:100000000C94DD020C9424030C9424030C9424031C
:100010000C9424030C9424030C9424030C942403C4
:100020000C9424030C9424030C94F8220C94CA23FB
:100030000C94061C0C9424030C9424030C942403A9
:100040000C9424030C9424030C9424030C94240394
:100050000C9424030C946E1C0C9424030C94240321
:100060000C9424030C9424030C9424030C94240374
:100070000C9424030C9424030C9424030C94240364
:100080000C9424030C9424030C9424030C94240354
:100090000C9424030C9424030C9424030C94240344
:1000A0000C9424030C9424030C942403AA05AC059B
:1000B000B705AE05B005B205B405B605B905BB0573
:1000C000BD05C805BF05C105C305C505C705CA05EA
:1000D0009E119E11D011D011781308127813781345
:1000E0004A127813F712F712681378137813711302
:1000F0000413041304130413041304130413041348
:100100000413041304130413041304130413041337
:10011000151323132A1331133B13FB13FB130D1475
:100120000D1404140D140D140D14FB13FB130914FA
:100130000D140D14091437245E2450255E24502517
:10014000AA24CD2450252325322502E26003E200B3
:10015000130012000C0018001C0028620F000E0093
:100160000D000B0038613700360010001100000050
:100170000000000000002C421700150008001A00C3
:1001800014000A00090007001600046205001900A7
:1001900006681B641D612A41000000000000000089
:1001A000310030002F002E002D00340033000000FD
:1001B0000000000035000000000000004C000000BE
:1001C00000000000000003513E003D003C003B00E9
:1001D0003A0043004200410040003F62F35C2B00C4
:1001E0002900456444610100000000000000000097
:1001F00027002600250024002300E1004F005200C4
:100200005100500038613700360087002D00000093
:1002100000000000000001002200210020001F005B
:100220001E000000000000000000E10000000000CF
:10023000E300E200E0000100000000000000000018
:10024000000000000000000000000000F300F000CB
:10025000F100F200000000000000F500F4000000D2
:10026000000000000000010000000A5C135CF05C6C
:10027000005C0000C95CC75CC55CC25C0000CA5C75
:10028000C85CC65CC35C0100000000000000000008
:1002900000000000000000002A2B280000000000E1
:1002A0000000000000000000000000290000000025
:1002B0002C1E3420212224342627252E362D373893
:1002C000271E1F202122232425263333362E37389C
:1002D0001F0405060708090A0B0C0D0E0F1011125A
:1002E000131415161718191A1B1C1D2F3130232D26
:1002F000350405060708090A0B0C0D0E0F10111224
:10030000131415161718191A1B1C1D2F3130354CD4
:1003100000000000000000000000000000000000DD
:1003200000000000000000000000000000000000CD
:1003300000010101010101000101010100000000B3
:1003400000000000000000000000010001000101A9
:10035000010101010101010101010101010101018D
:100360000101010101010101010101000000010180
:10037000000000000000000000000000000000007D
:100380000000000000000000000000010101010069
:100390007F3F1F643214783C1E6801F000B400787F
:1003A000005A0000000000000101010101010101EB
:1003B0000102020202020202020203030303030318
:1003C00003030404040404040505050505060606E4
:1003D000060607070707080808080909090A0A0A9C
:1003E0000A0B0B0B0C0C0C0D0D0D0E0E0F0F0F103E
:1003F00010111111121213131414151516161717C4
:10040000181819191A1A1B1C1C1D1D1E1F1F20202D
:100410002122222324252526272728292A2B2B2C75
:100420002D2E2F2F30313233343536363738393A96
:100430003B3C3D3E3F4041424344464748494A4B8E
:100440004C4D4F50515253555657585A5B5C5E5F56
:10045000606263646667696A6C6D6E7071737476EE
:1004600078797B7C7E8081838486888A8B8D8F914E
:10047000929496989A9B9D9FA1A3A5A7A9ABADAF77
:10048000B1B3B5B7B9BBBDBFC1C4C6C8CACCCFD163
:10049000D3D6D8DADCDFE1E4E6E8EBEDF0F2F5F70D
:1004A000FAFCFF0403300000001A037400720065B8
:1004B0000061006400730074006F006E006500331B
:1004C000003200000012036D00610072006B0073C7
:1004D0000061007200640000000403090409023B8B
:1004E00000020100A0C80904000001030101000985
:1004F00021110100012240000705810308000A09BB
:100500000401000103000000092111010001224F34
:10051000000705820320000A1201100100000008F4
:10052000EDFEA5DF10000102030105010902A10192
:1005300085020901A10005091901290515002501F8
:100540009505750181029501750381010501093049
:1005500009311581257F95027508810609381581B5
:10056000257F950175088106050C0A38021581253D
:100570007F950175088106C0C005010906A1010526
:100580000719E029E71500250195087501810295F5
:100590000175088101050819012905950575019165
:1005A000029501750391010507190029FF15002621
:1005B000FF00950675088100C00011241FBECFEF13
:1005C000DAE0DEBFCDBF04B603FE27C08091120281
:1005D00090911302A0911402B09115028730904BB4
:1005E000A740B04BD1F41092120210921302109255
:1005F00014021092150214BE84B7877F84BF0FB611
:10060000F894A895809160008861809360001092B2
:1006100060000FBEE0E0F8E3099511E0A0E0B1E072
:10062000E2E1FCE402C005900D92AE32B107D9F7C9
:1006300022E0AEE2B1E001C01D92A231B207E1F7C3
:100640000E941A200C9407260C9400000C947B0343
:100650000C94ED080C943B030C9425048A3221E49D
:10066000920731F08C32924419F088EC90E00895B2
:1006700086E990E00895FB01803F2CE5920731F177
:10068000833F2CE5920721F0833C9C4581F514C003
:100690008281882369F08091030282FD04C081E990
:1006A0000E945E1026C08AE491E00E94180421C0D6
:1006B00081E90E9428111DC082818823D1F0809198
:1006C000E4010E94400D0E942F0D07C08281882303
:1006D00081F00E94D50A0E94430D8091E601869523
:1006E0008F7390E09093E5018093E40102C081E074
:1006F000089580E008958091E60186958F7390E0DB
:100700009093E5018093E401089581E008951F939B
:10071000CF93DF9300D000D01F92CDB7DEB74983CF
:100720005A832091650189819A81211112C0662323
:1007300049F00E94C919182F682F89819A810E9457
:100740006C1903C00E949C19182F69817A81812F2E
:1007500004C00E94C91969817A810F900F900F908F
:100760000F900F90DF91CF911F910C947C06FC01AC
:10077000408151816281738184810C948703CF937E
:10078000282F30E0F901E057FD4FC491F901E05FF7
:10079000FC4F2491222359F081EE0E945E108C2F91
:1007A0000E945E108C2F0E94281181EE04C08C2FB5
:1007B0000E945E108C2FCF910C9428110F931F93E1
:1007C000CF93DF93EC01062FFE018491882359F12A
:1007D0009E012F5F3F4F813041F4E901F9011491EF
:1007E000812F0E945E10812F0DC0823031F4E9010B
:1007F000F90184910E945E100AC0833031F4E9014E
:10080000F90184910E94281102C00E94BF03219621
:10081000802F8823C9F2EFE9FFE03197F1F700C09C
:1008200000008150F6CFDF91CF911F910F91089575
:1008300060E00C94DE030E94F91A811102C00E944C
:10084000731B0C9426030C94280308950C942C031A
:1008500008950E94EB130E9428042FEF84E39CE08C
:10086000215080409040E1F700C000000C94941C9F
:100870000F931F93CF93DF938C010E94B703EC017A
:10088000B8010E942A03882309F42CC2CC3C8CE5D1
:10089000D80709F4E0C0E8F5C43CECE5DE0709F44C
:1008A000A4C0F8F4C5318CE5D80778F4C2309CE5D3
:1008B000D90708F02DC1C115ECE5DE0709F466C0C3
:1008C000C130DC4509F46AC001C2C23C8CE5D807DE
:1008D00009F477C008F07DC0C631DC4509F4CFC10A
:1008E000F5C1F8018281C83CFCE5DF0709F49BC033
:1008F00040F4C63CECE5DE0709F489C008F481C089
:100900008CC0CA3C9CE5D90709F499C008F491C091
:100910009CC0C43DFCE5DF0709F4DAC0B8F4C03D73
:100920009CE5D90709F4B2C060F4CE3CFCE5DF07D2
:1009300009F4D8C1F8018281CF3CDC4508F493C0AA
:1009400097C0C23DDC4509F4B1C0CCC1C93D9CE5AE
:10095000D90709F479C160F4C73DFCE5DF0709F464
:1009600029C108F04AC1C53DDC4509F4BBC1AEC18F
:10097000CD3DECE5DE0709F4C2C0CE3DFCE5DF0766
:10098000C1F0CC3DDC4509F0A1C1B2C0F8018281C3
:10099000882309F4A7C10E942904A4C1F801828117
:1009A000882309F49FC18091CC0181608093CC01A0
:1009B00099C1F8018281882309F494C10E94731BB4
:1009C00091C1F8018281882309F48CC10E94A10D94
:1009D00089C1F8018281882309F484C10E94491ADF
:1009E000827261F00E943D0D7DC1F80182818823F1
:1009F00009F478C10E94491A8272A1F30E942F0D56
:100A000071C1882309F46EC10E94320C6BC1882326
:100A100009F468C10E94560C65C1882309F462C1BB
:100A20000E94760C5FC1882309F45CC10E94960C79
:100A300059C1882309F456C10E94B60C53C18823BA
:100A400009F450C10E94D60C4DC1882309F44AC153
:100A50000E94EF0A47C1F8018281882309F442C14C
:100A60000E94040B3FC1882309F43CC181E02DC0E2
:100A7000882309F437C10E94E60A823028F00E94D8
:100A8000E60A843008F4BACF82E01FC0F801828100
:100A9000882309F427C10E94E60A853028F00E94C5
:100AA000E60A8A3008F4AACF85E00FC0F8018281F7
:100AB000882309F417C10E94E60A8B3028F00E94AF
:100AC000E60A8D3008F49ACF8BE00E94400D0AC1EF
:100AD000F8018281882309F405C10E94E60A8E305C
:100AE00028F00E94E60A873108F488CF8EE0EDCF27
:100AF000F8018281882309F4F5C080E006C0F8017E
:100B00008281882309F4EEC082E00E94BB20EAC003
:100B1000F8018281882309F4DEC00E94F91A81114C
:100B200002C00E94731B0E940C1B90E09093040271
:100B300080930302FE01E350FC45E231F10530F4FD
:100B4000EA5AFF4F809103020C94AC258091030276
:100B5000816027C0826025C0846023C0806121C07D
:100B600080621FC080641DC080681BC08460886074
:100B700018C08E7F16C08D7F14C08B7F12C08F7EF1
:100B800010C08F7D0EC08F7B0CC08F770AC08B7F0B
:100B9000877F07C087FB222720F991E0922790FBEF
:100BA00087F980930302809103020E94101B0E9428
:100BB000EB1398C0F8018281882351F01092330121
:100BC0000E94381C9093300180932F0182E022C054
:100BD0008091330181110FC080912F0190913001DC
:100BE0000E94441C883C910530F486E20E945E100D
:100BF00086E20E94281182E024C0F80182818823C5
:100C000061F0109234010E94381C9093320180935D
:100C1000310180E20E945C1165C080913401811134
:100C20000FC080913101909132010E94441C883C98
:100C3000910530F487E20E945E1087E20E9428113D
:100C400080E20E9463114EC0F80182818111D9CFE8
:100C5000809134018111F4CF809131019091320162
:100C60000E94441C883C910558F780E20E94631161
:100C700088E20E945E1088E20E94281133C00E9420
:100C8000491A282FF801828140910E0150910F01DD
:100C9000882379F02A7A91E009F490E090932E016C
:100CA000911102C069E201C065E3CA010E94A71B5D
:100CB0000AC080912E01811102C069E201C065E382
:100CC000CA010E94A91B0E94951A0CC081E0809362
:100CD000330180933401C801DF91CF911F910F91AF
:100CE0000C94850380E0DF91CF911F910F910895BF
:100CF00080E090E00895089595E0799FF001112437
:100D000098E2899FE00DF11D1124E60FF11DEE0F11
:100D1000FF1FE05BFE4F859194910895880F991F06
:100D2000FC01E057FC4F859194910895CF93DF9398
:100D30000E947C060E944D08EC01811520E5920777
:100D4000F0F5811530E4930708F024C1883E910541
:100D500000F5803E910508F09CC1883A910570F439
:100D6000853A910508F09FC08130910509F491C141
:100D700008F442C1049708F08CC13EC18F3B910535
:100D800008F49CC0803C910508F436C1805C910950
:100D9000F4C0811540E2940758F4C11581E0D807EA
:100DA00008F077C1C03FD10508F426C1D06571C1F4
:100DB000811520E3920708F0E4C09F70DEC0811522
:100DC00035E5930708F044C0811544E5940708F021
:100DD000F8C0C11582E5D80708F5C11521E5D2078D
:100DE00008F0DBC08C2F837021E030E002C0220FBE
:100DF000331F8A95E2F73C68CE0174E0969587959B
:100E00007A95E1F78370382BCF70C695C69580E24E
:100E1000C89FE0011124C22BD32B3BC12C2F269558
:100E20002695CE0183709927C115D34508F0BAC025
:100E300040E2249F90011124C1E0D0E002C0CC0F19
:100E4000DD1F8A95E2F72C2B3D2BE901DC6821C1DF
:100E5000811549E59407A0F4C11588E5D80708F085
:100E6000B5C0C11526E5D20708F0C6C08C2F0E9478
:100E7000CA088F71C82FD0E0DC2FCC27D06209C1FF
:100E800081153AE5930708F4A6C090568115904263
:100E900008F0B2C08D2F8F710E94CA08DD27D06282
:100EA0008F71D82BF6C0853A910509F4A8C0863A0F
:100EB000910509F0A7C0C2E8D0E4EBC0883A9105DB
:100EC00009F4A3C0893A910509F4A2C08A3A9105B0
:100ED00009F4A1C08B3A910509F4A0C08C3A9105A0
:100EE00009F49FC08B3B910509F49EC08C3B910592
:100EF00009F49DC08D3A910509F49CC0803B910591
:100F000009F49BC08E3A910509F49AC08F3A910575
:100F100009F499C0813B910509F498C0823B910581
:100F200009F497C0833B910509F496C0843B910571
:100F300009F495C0853B910509F494C0863B910561
:100F400009F493C0873B910509F492C0883B910551
:100F500009F491C0893B910509F490C08D3B91053E
:100F600009F48FC08E3B910509F48EC08A3B910530
:100F700009F48DC0C0E0D4E48CC00E948E06EC0160
:100F800088C09927D3FF03C0EC01D86C82C0EC0164
:100F9000D06C7FC0DF70D06A7CC0DC2FCC27C16FE3
:100FA000D06A77C040E2249F90011124C1E0D0E0D4
:100FB00002C0CC0FDD1F8A95E2F7C22BD32BDA6873
:100FC00068C0D82FCC27C46FD06A63C0DC2FCC2771
:100FD000C06FD06A5EC08F700E94CA0894E0D69538
:100FE000C7959A95E1F7CF70D0E0DC2FCC27D06A77
:100FF0008F70806EC82B4DC0C0E0D0E04AC0C1E801
:10100000D0E447C0C3E8D0E444C0C2EED4E441C059
:10101000C9EED4E43EC0CAEED4E43BC0C5EBD4E490
:1010200038C0C6EBD4E435C0C3EBD4E432C0C4EB63
:10103000D4E42FC0C7EBD4E42CC0CCECD4E429C05A
:10104000CDECD4E426C0C3E8D5E423C0CAE8D5E497
:1010500020C0C2E9D5E41DC0C4E9D5E41AC0C1E28C
:10106000D6E417C0C3E2D6E414C0C4E2D6E411C08B
:10107000C5E2D6E40EC0C6E2D6E40BC0C7E2D6E4B1
:1010800008C0CFE6D4E405C0C0E7D4E402C0CAE299
:10109000D6E4CE01DF91CF9108958238910549F1D0
:1010A000B0F48133910509F458C048F489329105B0
:1010B00009F44EC08A32910509F454C0089585336D
:1010C000910509F440C08933910599F00895833E54
:1010D000910529F138F4803E910591F0823E910509
:1010E000A1F00895863E9105F9F0873E910531F112
:1010F00008952091030220FD3AC021FD38C00895D3
:101100008091030280FD35C032C08091030282FFCE
:1011100032C08091030284FD30C083EE39C08091DB
:10112000030282FD28C0F5CF8091030283FF27C010
:101130008091030284FD21C087EE2AC080910302C2
:1011400083FD1DC0F5CF8091030285FD1AC01BC031
:101150008091030285FD17C014C08091030286FDB3
:1011600014C015C08091030286FD11C00EC080EE30
:101170000FC089E30DC082EE0BC080E009C086EE8F
:1011800007C089E205C085E303C08AE201C081E3AC
:1011900090E008959091030292FF0DC0282F2871CE
:1011A000283019F4877F846006C0282F24712430EA
:1011B00011F48B7F886093FF0DC0282F2871283190
:1011C00019F4877E846106C0282F2471243111F41C
:1011D0008B7E886194FD877E08950895E5E2F1E0B5
:1011E00041E050E028E02E0F9191A92FA295AF7019
:1011F000B0E091963C9191979F70BA0102C0660F42
:10120000771F9A95E2F7CB018095832391968C9373
:101210002E13EACFA0E2B1E041E050E025E02A0F32
:101220008D91E82FE295EF70F0E031A18F70BA0157
:1012300002C0660F771F8A95E2F7CB01962F909533
:10124000932391A392A1892B82A32A13E9CFA5E32B
:10125000B1E0EDE3F1E088E08E0F11921D928E1364
:10126000FCCF88E00E94CA090C941B044F925F9245
:101270006F927F928F929F92AF92BF92CF92DF92A6
:10128000EF92FF920F931F93CF93DF9325E2422EAD
:1012900021E0522EADE3B1E020E001E010E038E0C3
:1012A000932E9A0E7D018C901C92E20189912E0161
:1012B000E82FE295EF70F0E031A18F70A80102C035
:1012C000440F551F8A95E2F7CA01342B31A342A17E
:1012D000382F3095432342A350EA5A95F1F790E214
:1012E000C92E91E0D92E40E050E0E60179906E01E0
:1012F000672D62956F7070E0EB01A8A06C90B12C27
:10130000772D7F7002C0B594A7947A95E2F7A0FC80
:1013100007C0602F042E01C0660F0A94EAF701C0CF
:1013200060E066296C934F5F5F4F45305105E9F6E9
:1013300091A1392331A392A1892B82A3119681E037
:10134000F7019081891201C080E0282B9A12AACF60
:1013500048E065E371E08DE391E00E94CB090E94D3
:10136000230481E0DF91CF911F910F91FF90EF90C7
:10137000DF90CF90BF90AF909F908F907F906F90B5
:101380005F904F900895E82FF0E0EB5CFE4F808176
:10139000089508950895FF920F931F93CF93DF93BD
:1013A0008C01F62ED72FC42F222349F081E08093A1
:1013B00047010E94381C909346018093450180911B
:1013C00047018823C1F080914501909146010E9418
:1013D000441C069780F0EF2DFD2FD8014C2F50E0D4
:1013E000CD01801B910B841795071CF48D9181937F
:1013F000F7CF10924701DF91CF911F910F91FF908E
:101400000895EF92FF920F931F93CF93DF93E9011B
:10141000493C08F048EC662309F44BC0242F30E027
:10142000EFEFF0E0E61BF109B901E69F9001E79FBD
:10143000300DF69F300D1124232F8B01031B110952
:101440005CE3E52EF12CB7010E948425FB01BC0171
:10145000069FC001079F900D169F900D1124B701A4
:101460000E948425E230F105B1F040F4309779F024
:10147000319711F5832F242F461B21C0E430F1054D
:10148000A1F068F03597C1F4842F861B18C0832F14
:10149000262F230F14C0862F830FE42F03C0E42FC1
:1014A000E61B842F432F2E2F0AC0842F462F430F75
:1014B00006C0842F242F03C080E020E040E0E42F0A
:1014C000F0E0ED55FC4F4491E22FF0E0ED55FC4F7C
:1014D0009491E82FF0E0ED55FC4FE4914983988317
:1014E000EA83DF91CF911F910F91FF90EF900895C4
:1014F0008091E601282F26952F7330E021153105C4
:1015000019F48178826005C02831310524F0817892
:101510008E628093E6013091E601432F441F4427F9
:10152000441F2091E701522F550F852F842B27FB55
:10153000992790F9893641E094077CF068E671E0DC
:101540000E94982580FB37F93093E6018695207834
:10155000822B90FB87F98093E7018091E901893C18
:1015600018F088EC8093E901089588E090E00C94ED
:10157000C725CF93DF9300D000D0CDB7DEB7AB0146
:10158000BC0149835A836B837C830E94780A49811A
:101590005A816B817C8188E090E00F900F900F90D2
:1015A0000F90DF91CF910C94E525E6EEF1E083E01A
:1015B00080831092E7018FEF828388EC838314820B
:1015C00060817181828193810C94B90A8091E601D6
:1015D00080FF03C086958F73089580E00895809101
:1015E000EA0190E001968430910514F083E090E0E8
:1015F0008093EA016091E6017091E7018091E80132
:101600009091E9010C94B90A8091EA0190E0019768
:1016100097FF02C080E090E08430910514F083E0F1
:1016200090E08093EA016091E6017091E70180917A
:10163000E8019091E9010C94B90A8091530123E0EB
:10164000829FC001112485519E4F6091020170E07C
:101650002091E60120FD0DC020E030E0F901E551C8
:10166000FE4F1182108212822D5F3F4F22313105D1
:10167000A9F70C94090F9091E60190FF0FC020E0AC
:1016800030E0F901E551FE4F8183608342832D5F95
:101690003F4F22313105A9F70C941D0B0895CF93CC
:1016A000DF9300D01F92CDB7DEB72091E60120FF77
:1016B0000AC09E012F5F3F4F0E94010A4B81698142
:1016C0008A810E943B0B0F900F900F90DF91CF917A
:1016D00008955F926F927F928F929F92AF92BF9286
:1016E000CF92DF92EF92FF920F931F93CF93DF93EE
:1016F00000D01F92CDB7DEB78C01C62ED42E522E4D
:101700008091E60180FF81C0982F9E77923061F42E
:101710009E012F5F3F4FC8010E94010A4B816981E2
:101720008A810E943B0B51C0E82FE695EF739EE340
:101730009E0F9F73993068F4881F8827881F9091A7
:10174000E701292F220F022F082B97FB112710F9F1
:101750003CC082E38E0F8F738A30B8F5E0FD02C083
:1017600021E001C02FEFF0E03E97EE7FE756FC4FFF
:101770008591949166E070E00E94842526034001E3
:10178000279F900C1124580188E9A81A8EEFB80AF7
:101790008BEEE82E81E0F82E98E6692E772473947C
:1017A000C501B3010E94842597014D2D6C2D0E9427
:1017B000010AA80CB91C83E0E80EF11C8DEFE816B5
:1017C00081E0F80669F70E941D0B8091E60100FB9D
:1017D00087F98093E601902F96958091E7018078B4
:1017E000892B10FB87F98093E701C092E801D09222
:1017F000E901552051F06091E6017091E701809177
:10180000E8019091E9010E94B90A0F900F900F90A2
:10181000DF91CF911F910F91FF90EF90DF90CF90CC
:10182000BF90AF909F908F907F906F905F90089542
:10183000282FE6EEF1E09081991F9927991F3091AA
:10184000E701832F880F482F492B37FB552750F985
:10185000CA010A9668E671E00E9498254381628178
:101860000C94690B81E00C94180C282F9091E601E0
:10187000991F9927991F3091E701832F880F482FCF
:10188000492B37FB552750F9CA014A3051051CF442
:10189000825A9E4F01C00A9768E671E00E9498251F
:1018A0004091E9016091E8010C94690B81E00C948E
:1018B000350C6091E801262F30E02F3E310514F4FD
:1018C0006F5E01C06FEF3091E601331F3327331F86
:1018D0009091E701592F550F97FB992790F9282FE1
:1018E0004091E901852F832B0C94690B81E00C94C6
:1018F000590C6091E801262F30E02131310514F0B8
:10190000615101C060E03091E601331F3327331F7E
:101910009091E701592F550F97FB992790F9282FA0
:101920004091E901852F832B0C94690B81E00C9485
:10193000790C4091E901242F30E0283B310514F463
:101940004F5E01C048EC3091E601331F3327331F4F
:101950009091E701592F550F97FB992790F9282F60
:101960006091E801852F832B0C94690B81E00C9426
:10197000990C4091E901242F30E02131310514F018
:10198000415101C040E03091E601331F3327331F3E
:101990009091E701592F550F97FB992790F9282F20
:1019A0006091E801852F832B0C94690B81E00C94E6
:1019B000B90C20E00C94690BCF939091E60190FF55
:1019C00040C09178811102C0926007C0883110F048
:1019D0009E6203C08F73880F982B9093E601662355
:1019E00051F06091E6017091E7018091E8019091DA
:1019F000E9010E94B90AC091E6016C2F66956F73E8
:101A000070E04BE050E083E091E00E94B225892B2A
:101A100019F01092540103C081E080935401CC1F4F
:101A2000CC27CC1F9091E701892F880F97FB99272E
:101A300090F94091E9016091E8018C2BCF910C94D1
:101A4000D90CCF910895682F9091E60196959F73D8
:101A500081E0890F883108F081E00C94DC0C81E092
:101A60000C94230D682F9091E60196959F738FEF4C
:101A7000890F09F487E10C94DC0C81E00C94320DA1
:101A800061E00C94DC0CE6EEF1E080818160808303
:101A900086958F730C94400D60E00C94DC0C809163
:101AA0005501811135C08091CC0181608093CC01BA
:101AB0000E94F91A811104C00E94731B0E94D50A6A
:101AC0000E94B50A6093E6017093E7018093E801F4
:101AD0009093E9016E7761F40E94D50A0E94B50ADD
:101AE0006093E6017093E7018093E8019093E90128
:101AF0000E94780A81E0809354018091E60180FF82
:101B000004C086958F730E944C0D81E0809355012F
:101B10000895E6EEF1E080818E7F8083608171819F
:101B2000828193810E94B90A109254012FEF80E7BD
:101B300092E0215080409040E1F700C000000C94FA
:101B40001D0B8091E60180FD0C94890D0C94430DD2
:101B5000CF93E82FF0E0EA56FC4FC49180915101F9
:101B6000909152010E94441CEC2FF0E08E179F07C9
:101B7000E8F00E94381C90935201809351014091EB
:101B8000E9016091E80180914F01909150010E941C
:101B90004F0B80914F0190915001019668E671E0E2
:101BA0000E9484259093500180934F01CF91089516
:101BB000CF92DF92FF920F931F93CF93DF93F82E74
:101BC000E82FE695F0E0ED56FC4FC49180914D0171
:101BD00090914E010E94441CEC2FF0E08E179F075D
:101BE000E8F10E94381C90934E0180934D010BEE5A
:101BF00011E0C0E0D0E088E6C82EDD24D3948091C7
:101C00004B0190914C018C0F9D1FB6010E948425C1
:101C100098014091E9016091E8010E94010AEC9667
:101C20000D5F1F4FC83681E0D80749F70E941D0B92
:101C300020914B0130914C01F0FE0AC0C901019680
:101C4000BE010E94842590934C0180934B0106C0F5
:101C50002150310930934C0120934B01DF91CF91FA
:101C60001F910F91FF90DF90CF9008950F931F93D6
:101C7000CF93DF93E82FF0E0E057FC4FC4918091C1
:101C8000490190914A010E94441CEC2FF0E08E170C
:101C90009F0708F466C00E94381C90934A01809305
:101CA000490180E090E0FC01E551FE4F1182108275
:101CB0001282039682319105B1F7C0E0D0E006E0D0
:101CC00010E0CE01B8010E94982540914801042EF1
:101CD000000C550BFC01EE0FFF1FC417D5070CF1CC
:101CE00040910101042E000C550B4C175D07CCF000
:101CF0008E0F9F1F9C0125513E4F8091E601881F4A
:101D00008827881F9091E701592F550F97FB992736
:101D100090F94091E9016091E801852B0E94010A48
:101D200007C0E80FF91FE551FE4F118210821282A1
:101D30002196C630D10529F60E941D0B8091000125
:101D400090914801980F9093480120910101280F2C
:101D500020930101121614F495301CF081958093A4
:101D60000001DF91CF911F910F910895809154014F
:101D70008823E1F08091E60186958F739EE3980FAA
:101D80009F73933018F482500C94A80D9BE3980F26
:101D90009F73963018F485500C94D80D95E3980FE6
:101DA0009F73933018F48B500C94360E08952BB11A
:101DB000342F309523233BB1432B3FB7F894FC01DC
:101DC000680F791FE617F70789F0819198E04BB902
:101DD000000000C087FF2BB9880F000000C000C0C2
:101DE00000C02BB900C09A9591F7ECCF3FBF089582
:101DF0002AB1242B2AB99B01220F331F620F731FB4
:101E00000E94D70E87EC90E00197F1F700C0000028
:101E1000089548E00C94F80E90935B0180935A016A
:101E20000895E0915A01F0915B01309721F0019003
:101E3000F081E02D099480E00895E0915A01F0913D
:101E40005B01309721F00280F381E02D0994089521
:101E5000E0915A01F0915B01309739F022E0DC010A
:101E60002C930480F581E02D099408952091580168
:101E7000309159018217930771F090935901809323
:101E80005801E0915A01F0915B01309721F00680F2
:101E9000F781E02D09940895209156013091570162
:101EA0008217930771F09093570180935601E09148
:101EB0005A01F0915B01309721F00084F185E02D0B
:101EC0000994089585B7806885BF85B7806885BF08
:101ED0000895089508950C946A0F08950C946D0F59
:101EE0000E94620F0E94690F0C946B0F81E00895AD
:101EF0000E942F1C0E94EE080E94B81C0E944F0DE9
:101F00000C946E0FCF92DF92EF92FF920F931F937C
:101F1000CF93DF93CDB7DEB72B970FB6F894DEBF24
:101F20000FBECDBF0E9436090E94760F811111C0ED
:101F30008FEF89838A831B820E94381C8160782FEF
:101F40009D838C8349815A816B818D810E942A10E7
:101F500056C08DE5C82E81E0D82E00E010E0E02EBE
:101F6000802F0E94C309F60141916F01F42EF826DB
:101F700031F40F5F1F4F0830110589F7D9CF9091C9
:101F8000CC0191FF04C08B870E94C9098B8520E09A
:101F900030E04F2D50E0922FBA01022E02C075950D
:101FA00067950A94E2F760FF24C02E83EF8221E058
:101FB00030E0690102C0CC0CDD1C9A95E2F790E09C
:101FC0008C219D21892B09F420E028870E94381C50
:101FD0008160782F9A8789874E815F8168858A859D
:101FE0000E942A10F801E35AFE4F8081C826C08261
:101FF00006C02F5F3F4F2530310569F6BACF0E94EA
:10200000411E10915C010E94110F1817A1F00E944F
:10201000110F80935C012B960FB6F894DEBF0FBEB4
:10202000CDBFDF91CF911F910F91FF90EF90DF9087
:10203000CF900C9426042B960FB6F894DEBF0FBEFB
:10204000CDBFDF91CF911F910F91FF90EF90DF9067
:10205000CF900895CF93DF93CDB7DEB72B970FB610
:10206000F894DEBF0FBECDBF4F83588769877A874C
:102070008B87DE01119686E0FD0111928A95E9F7C2
:1020800085E0FE01379601900D928A95E1F749812E
:102090005A816B817C818D819E810E943C172B9699
:1020A0000FB6F894DEBF0FBECDBFDF91CF9108957C
:1020B000FC01808191810E940A1A0895882309F405
:1020C000C6C09CEF980F913A40F4682F80910E01A2
:1020D00090910F010E94A71B0DC090E2980F9830BD
:1020E00058F4877091E001C0990F8A95EAF7892F1B
:1020F0000E944C1A0C94951A9BE5980F933070F43B
:10210000853A29F0863A31F083E890E005C081E80D
:1021100090E002C082E890E00C94360F98E5980FAA
:10212000973108F08EC0883A09F445C0893A09F41D
:1021300045C08A3A09F445C08B3A09F445C08C3A47
:1021400009F445C08B3B09F445C08C3B09F445C0FC
:102150008D3A09F445C0803B09F445C08E3A09F434
:1021600045C08F3A09F445C0813B09F445C0823B24
:1021700009F445C0833B09F445C0843B09F445C0DC
:10218000853B09F445C0863B09F445C0873B09F40B
:1021900045C0883B09F445C0893B09F445C08D3BE7
:1021A00009F445C08E3B09F445C08A3B09F445C09B
:1021B00080E090E044C082EE90E041C089EE90E083
:1021C0003EC08AEE90E03BC085EB90E038C086EBE5
:1021D00090E035C083EB90E032C084EB90E02FC0FC
:1021E00087EB90E02CC08CEC90E029C08DEC90E067
:1021F00026C083E891E023C08AE891E020C082E90C
:1022000091E01DC084E991E01AC081E292E017C01C
:1022100083E292E014C084E292E011C085E292E091
:102220000EC086E292E00BC087E292E008C08FE623
:1022300090E005C080E790E002C08AE292E00C9452
:102240004C0F803F20F00E94491D0C94361E0895CB
:10225000882389F19CEF980F913A40F4682F809180
:102260000E0190910F010E94A91B0DC090E2980FE2
:10227000983058F4877091E001C0990F8A95EAF779
:10228000892F0E94521A0C94951A9BE5980F93304F
:1022900020F480E090E00C94360F98E5980F973189
:1022A00020F480E090E00C944C0F803F20F00E94DE
:1022B000B11D0C94361E0895882321F00E944C1AFB
:1022C0000C94951A0895882321F00E94521A0C94B8
:1022D000951A08958F929F92AF92BF92DF92EF92DC
:1022E000FF920F931F93CF93DF937C01D62FC72FBD
:1022F000FC01058102950F70128111110E94691A6B
:102300000E94421A882379F0112369F080E28D0F30
:10231000883048F082E00E94E01A0E94421A91E060
:10232000D82ED92601C0D12CAC2EA2948FE0A822A1
:10233000B12CF501E859FF4F0C94AC258C2F807F10
:10234000CF70882311F0C295C07F112399F0CC2360
:1023500009F4A9C180E28D0F883010F0D11104C0BA
:102360008C2F0E944C1A03C08C2F0E945C1A0E9472
:10237000951A99C18D2F0E942811CC2309F4B8C158
:1023800080E28D0F883010F0D11104C08C2F0E9494
:10239000521A03C08C2F0E94621A0E94951AA8C17B
:1023A0008C2F807FCF70803211F0C295C07FDD23EB
:1023B00019F0D130C9F022C0112371F0002341F08F
:1023C000013031F40E947C1A8C2B0E94821A90C139
:1023D0000E947C1A8C2B20C1002319F0013009F4D3
:1023E00087C10E948B1A12C0112321F0063008F019
:1023F0007FC108C0053008F07BC108C0112321F05F
:10240000011151C18C2F08C101115EC18C2F0AC16D
:102410001123F9F0D53F51F0D63F71F0D43FA9F424
:102420008091FD019091FE0181600BC08091FD01C2
:102430009091FE01826005C08091FD019091FE01A6
:1024400084609093FE018093FD018D2F0E94491DB1
:102450001EC0D53F51F0D63F71F0D43FA9F4809112
:10246000FD019091FE018E7F0BC08091FD01909146
:10247000FE018D7F05C08091FD019091FE018B7F53
:102480009093FE018093FD018D2F0E94B11D0E944B
:10249000361E3EC18C2F837009F050C0111134C11B
:1024A0008D2F829586958770880F880F9D2F9F703E
:1024B000892E912CA12CB12C082E04C0880C991CBB
:1024C000AA1CBB1C0A94D2F7D4FF14C00FE010E082
:1024D00020E030E0B901A80104C0440F551F661F79
:1024E000771F8A95D2F7CB01BA01609570958095D8
:1024F000909503C060E070E0CB01C695C695C370AF
:10250000D0E0C230D10561F0C330D10581F0682937
:1025100079298A299B29219771F00E948118F4C09A
:10252000682979298A299B290E949318EDC00E9465
:102530008118C501B4010E946F18E6C0112319F07B
:102540008C2F817001C08695882309F4DDC08D2F02
:10255000829586958770880F880F9D2F9F70892E92
:10256000912CA12CB12C082E04C0880C991CAA1CFB
:10257000BB1C0A94D2F7D4FF14C00FE010E020E097
:1025800030E0B901A80104C0440F551F661F771F32
:102590008A95D2F7CB01BA01609570958095909598
:1025A00003C060E070E0CB01C695C695C3704C2FA8
:1025B00050E04230510569F04330510589F06829F7
:1025C00079298A299B294130510571F00E944719C8
:1025D0009BC0682979298A299B290E94591994C08E
:1025E0000E944719C501B4010E9435198DC08D2F75
:1025F00090E0FC01E05EF109E531F10508F04FC023
:10260000E858FF4F0C94AC25DF708C2F8F7111238D
:1026100031F00E94CE188D2F0E945C1169C00E947B
:10262000EF188D2F0E94631163C0112341F0053014
:1026300008F05EC08C2F8F710E94141959C00630AB
:1026400008F056C0F7CF112339F08C2F8F710E94FC
:10265000CE184EC01123C9F38C2F8F710E94EF1832
:1026600047C0112329F08C2F8F710E94B91840C0E8
:102670000E94B4183DC0112349F0CF718C2F0E94E5
:10268000CE1863E08C2F0E94CB1A32C081E00E94EA
:10269000E01A023068F182E00E94E01A29C011239A
:1026A00031F0002391F28D2F0E945E1021C0002393
:1026B00099F2D93349F45FEF67EE73E0515060400F
:1026C0007040E1F700C000008D2F0E94281110C05B
:1026D0004C2F4F706D2FC7010E9478060E94E017A3
:1026E00017C04C2F4F706D2FC7010E947B0610C082
:1026F00088E0A816B10441F05CF0EAE0AE1AB10837
:10270000F2E0AF16B10420F40E94110F0E942604DB
:10271000DD20E1F00E943E1A80FD18C0F701128210
:102720000E94381A0E94CE18C7010E94B2130E945C
:10273000381ADF91CF911F910F91FF90EF90DF90AA
:10274000BF90AF909F908F900C94EF18DF91CF9136
:102750001F910F91FF90EF90DF90BF90AF909F90EF
:102760008F9008950F931F93CF93DF93EC0188818F
:1027700099812B813C81232BB9F09F3F11F48F3F2E
:1027800099F0CE010E943804882371F06881798124
:102790008A810E94151A8C010E946B190E946C1884
:1027A000B801CE010E946A11DF91CF911F910F9164
:1027B00008950E94691A0E94791A0E94951A0E942F
:1027C000CF1E0C94361E80910E0190910F010E9435
:1027D000AB1B0C94D9130E94591A0C94E313E92FE4
:1027E000E295EF70F0E03297EE30F105B0F4E35788
:1027F000FF4F0C94AC25803F91F018F4803E68F4B4
:102800000EC0843F51F40BC0803E48F0813F29F454
:1028100006C093FB882780F9089580E0089581E041
:1028200008950E940A1A0E94EF130895CF93DF9330
:1028300000D000D01F92CDB7DEB70F900F900F9051
:102840000F900F90DF91CF910895CF93DF9300D039
:1028500000D000D0CDB7DEB726960FB6F894DEBF15
:102860000FBECDBFDF91CF9108951F93CF93DF931C
:10287000C091660116E080916701C81799F0D0E019
:102880001C9FF0011D9FF00D1124E859FE4F40815F
:10289000518162817381848195810E9425142196E2
:1028A000C770E9CFDF91CF911F91089540919801B2
:1028B0005091990160919A0170919B0180919C01C6
:1028C00090919D010C9425142091660190916701CF
:1028D00056E02917A9F030E0529FF001539FF00D08
:1028E0001124E859FE4F7181671306C07081871368
:1028F00003C07281471306C02F5F3F4F2770E9CF97
:1029000080E0089581E00895FF920F931F93CF9385
:10291000DF9380919D0182958F7009F06AC080914C
:102920009A01882309F465C0C091660186E0F82EFB
:1029300080916701C81709F45CC08091980190915B
:10294000990120919B0130919C01D0E02115310526
:1029500009F44CC09F3F19F48F3F09F447C0FC9E17
:10296000F001FD9EF00D1124E859FE4F41819413B2
:102970003DC0908189133AC08281811137C0838123
:1029800094818217930708F401978C01021B130BA3
:10299000409198015091990160919A0170919B0129
:1029A00080919C010E9487030E942E03081719073B
:1029B000E8F480919D018F70806180939D0186E095
:1029C0008C9FF0018D9FF00D1124E359FE4F808103
:1029D0008F708061808388E991E00E94B213DF915B
:1029E000CF911F910F91FF900C9435142196C770D1
:1029F0009FCFDF91CF911F910F91FF9008958F92FC
:102A00009F92AF92BF92CF92DF92EF92FF920F937D
:102A10001F93CF93DF93CDB7DEB761970FB6F894CE
:102A2000DEBF0FBECDBF8C0185E0F801DE011D9633
:102A300001900D928A95E1F7D8018C9011969C90A7
:102A400011971296AC9012971396CD90DC90149734
:102A5000809198019091990120919B0130919C0166
:102A60002115310521F09F3F21F58F3F11F5A11070
:102A700006C0C8010E94B213BB24B394E9C18D867D
:102A80009E868D859E850E941114B82E882389F319
:102A900086E0F801A8E9B1E001900D928A95E1F78E
:102AA00088E991E00E9458100E9484140E945614F4
:102AB000CFC1B0909A01BB2009F44CC1C216D30615
:102AC00020F07601E21AF30A05C0209530957901CD
:102AD000EC0CFD1C409198015091990160919A0174
:102AE00070919B0180919C010E9487030E942E039C
:102AF00020919D01207FE816F90608F0DBC0809147
:102B000098019091990140919B0150919C01211154
:102B100090C0452BD9F09F3F11F48F3FB9F0991128
:102B200015C0881113C0A11011C080919D018F7034
:102B3000806180939D010E94561488E991E00E9473
:102B4000B21380919D01F801858330C040919801B6
:102B50005091990160919A0170919B0180919C0123
:102B60000E9487030E942E03843F914008F1CD28E4
:102B700009F455C02FEF921203C0821609F44FC01A
:102B8000A11018C040E0692D882D0E94641488238C
:102B900089F088E991E00E94B213E8E9F1E086E06B
:102BA000DF011D928A95E9F70E945614B12C50C19D
:102BB000CD28A9F1BFEF9B1202C08B1681F1A110A5
:102BC0002EC040E0692D882D0E946414F82E8111DA
:102BD00026C08D869E868D859E850E940A1A292F85
:102BE00022952F7030E02230310524F02430310559
:102BF00034F00FC09F7049F0811107C00EC09F7064
:102C000021F0F8019581907F41F090E2980F983083
:102C100020F0C8010E94B213FB2CBF2C19C1BA2CA2
:102C2000AA2009F415C180919D01816080939D01C6
:102C3000BDCF452B81F09F3F11F48F3F61F099117B
:102C40000AC0881108C0A11006C080919D01D8015A
:102C500015968C93C7C08D869E868D859E850E9415
:102C60001114882309F405CFAA2009F402CF20917A
:102C70009D01822F82958F7090E0029774F0809171
:102C800098019091990198878F831986DB86CA866F
:102C90002C87CE0107960E94B21386E0F801A8E9BE
:102CA000B1E001900D928A95E1F70E9484140E9490
:102CB0005614E2CE211109C07C2DD98AC88AA401FC
:102CC0006A2D89890E94161464CF80919801909191
:102CD000990120919B0130919C01232BC9F09F3FCA
:102CE00011F48F3FA9F0991113C0881111C0A110E0
:102CF0000FC080919D01F8018583C8010E94B21325
:102D000086E0E8E9F1E0DF011D928A95E9F7A0C0CD
:102D10008D869E868D859E850E941114882309F4D8
:102D2000A8CEAA2009F4A5CE20919D01822F8295DC
:102D30008F7090E002970CF4B0CF80919801909141
:102D400099019A8389831B82DD82CC822E83CE01F6
:102D50000196A1CFC216D30620F07601E21AF30A3B
:102D600005C0209530957901EC0CFD1C409198012F
:102D70005091990160919A0170919B0180919C0101
:102D80000E9487030E942E03E816F90608F050C03F
:102D9000BA2CAA2009F46DCE8091980190919901E6
:102DA00020919B0130919C01232B89F19F3F11F4CD
:102DB0008F3F69F199112BC0881129C020919D0185
:102DC00020FD1CC0822F82958F70C1F0F8012583F1
:102DD0008F3041F08F5F982F9295907F822F8F7068
:102DE000892B8583C8010E94B21386E0F801A8E907
:102DF000B1E001900D928A95E1F758CE86E0F80196
:102E0000A8E9B1E001900D928A95E1F721C08D8685
:102E10009E868D859E850E94111481113ECF8091E2
:102E20009D01816080939D01C8010E94B21310C072
:102E30007C2DD98AC88AA4016A2D89890E9416141A
:102E4000E8E9F1E086E0DF011D928A95E9F72ECEF0
:102E50008B2D61960FB6F894DEBF0FBECDBFDF910C
:102E6000CF911F910F91FF90EF90DF90CF90BF9087
:102E7000AF909F908F9008951F93CF93DF93CDB71E
:102E8000DEB72C970FB6F894DEBF0FBECDBF4F83D1
:102E9000588769877A878B879C87CE0107960E941F
:102EA000FF14882369F08F8198852A853B85232B21
:102EB000F1F19F3F09F063C08F3F09F060C037C058
:102EC00086E0FE013796DE01119601900D928A95FB
:102ED000E1F76F817885EA85FB85309741F17F3F87
:102EE00011F46F3F21F12091670130E0C901019693
:102EF000877099274091660150E08417950709F47F
:102F000047C069837A83FD83EC8396E0929FD0016A
:102F1000939FB00D1124A859BE4FFE013196019028
:102F20000D929A95E1F7809367010E94351416E09F
:102F300080916601909167018917C1F1189FC001C6
:102F4000112488599E4F0E94FF14882379F1E09143
:102F500066011E9FF0011124E859FE4F4081518106
:102F600062817381848195810E942514809166011C
:102F700090E001968770992780936601D9CF4F81A1
:102F8000588569857A858B859C850E942514CFCFCD
:102F90000E94EB131092670110926601E8E9F1E0DC
:102FA00086E0DF011D928A95E9F7C1CF2C960FB616
:102FB000F894DEBF0FBECDBFDF91CF911F91089572
:102FC000EF92FF920F931F93CF93DF938C01892B86
:102FD00009F46CC0F12CEE24E394E8012196F80189
:102FE0008491843740F4843008F051C0813081F0FE
:102FF000823019F15BC0853709F444C0A8F19CE721
:10300000980F903708F052C08F770E94281141C066
:103010000E5F1F4FFE01C49180E28C0F883048F490
:10302000C7708E2D01C0880FCA95EAF70E946C1AEE
:1030300014C08C2F0E945E102DC00E5F1F4FFE012A
:10304000C49180E28C0F883058F4C7708E2D01C077
:10305000880FCA95EAF70E94721A0E94951A1AC040
:103060008C2F0E94281116C00E5F1F4FFE01C491C5
:10307000CC2381F08FE99FE00197F1F700C00000B9
:10308000C150F6CF0E5F1F4FFE01F49003C00E94A7
:103090005E108E018F2D882309F49FCFEFE9FFE0AA
:1030A0003197F1F700C000008150F5CFDF91CF914B
:1030B0001F910F91FF90EF90089508950C945D1863
:1030C0000E945E186093BB017093BC018093BD01A8
:1030D0009093BE010C94D91308950C9460180F932B
:1030E0001F930091BB011091BC012091BD01309153
:1030F000BE01602B712B822B932B1F910F910C948F
:1031000060180F931F930091BB011091BC01209197
:10311000BD013091BE0160237123822393231F914F
:103120000F910C9460180F931F930091BB011091A5
:10313000BC012091BD013091BE016027712782271B
:1031400093271F910F910C94601808950C94A51863
:103150000E94A6186093B7017093B8018093B901DB
:103160009093BA010C94D91360E070E0CB010C94F9
:10317000A8180F931F9341E050E060E070E08A01CF
:103180009B0104C0000F111F221F331F8A95D2F725
:10319000C901B8011F910F910C94A8180F931F93A8
:1031A00041E050E060E070E004C0440F551F661F2E
:1031B000771F8A95D2F78091B7019091B801A091BD
:1031C000B901B091BA018A019B01082B192B2A2B56
:1031D0003B2BC901B8011F910F910C94A8180F93B4
:1031E0001F9341E050E060E070E004C0440F551FC1
:1031F000661F771F8A95D2F7409550956095709518
:103200008091B7019091B801A091B901B091BA0134
:103210008A019B01082319232A233B23C901B801F2
:103220001F910F910C94A8180F931F9341E050E049
:1032300060E070E004C0440F551F661F771F8A9539
:10324000D2F78091B7019091B801A091B901B091E6
:10325000BA018A019B01082719272A273B27C901A0
:10326000B8011F910F910C94A8180F931F93009110
:10327000B7011091B8012091B9013091BA01602BCA
:10328000712B822B932B1F910F910C94A8180F93E5
:103290001F930091B7011091B8012091B9013091AD
:1032A000BA0160237123822393231F910F910C9401
:1032B000A8180F931F930091B7011091B8012091A6
:1032C000B9013091BA0160277127822793271F9196
:1032D0000F910C94A818089524E0929F900D11244A
:1032E000890FA82FA695A695A695877051E001C0D5
:1032F000550F8A95EAF785E0A89FD001112420E0B8
:1033000030E070E0F901EA0FFB1FE256FE4F40810A
:10331000CB01022E02C0969587950A94E2F7817040
:103320009927819584278523842780832F5F3F4FAA
:103330002530310539F7089524E0929F900D11242E
:10334000890F682F669566956695982F977085E02A
:10335000689FB001112440E050E080E0FA01E60FE0
:10336000F71FE256FE4F208130E0092E02C036954D
:1033700027950A94E2F721703327042E01C0220F0B
:103380000A94EAF7822B4F5F5F4F4530510531F7C2
:103390000895BF92CF92DF92EF92FF920F931F9307
:1033A000CF93DF938C01C090BB01D090BC01E09023
:1033B000BD01F090BE018091B7019091B801A0913C
:1033C000B901B091BA01C82AD92AEA2AFB2ACFE169
:1033D000D0E0D701C6010C2E04C0B695A7959795ED
:1033E00087950A94D2F780FF07C0BC2EB8018C2FB6
:1033F0000E949606019719F4219758F7B12C8B2D4E
:10340000DF91CF911F910F91FF90EF90DF90CF90C0
:10341000BF900895CF93DF93EC010E94C919BE01BC
:103420000E949606DF91CF9108951F93CF93DF936B
:10343000EB0190916501992321F0CB010E940A1ABA
:1034400013C0882349F0CB010E94C919182F682F97
:10345000CE010E946C1904C0CB010E949C19182F48
:10346000BE01812F0E949606DF91CF911F91089592
:103470008091BF0185958595859508958091BF01BF
:10348000877008959091BF01977081E009F480E002
:1034900008958091CB0108959091CB01892B809361
:1034A000CB01089580959091CB0189238093CB0126
:1034B00008951092CB0108959091CA01892B8093B1
:1034C000CA01089580959091CA0189238093CA0109
:1034D00008951092CA0108959091C901892B809393
:1034E000C901089580959091C90189238093C901EC
:1034F00008951092C90108958091C001089508951A
:103500000C947F1A9091C001981721F08093C0010C
:103510000C94801A08958091C001882329F010929C
:10352000C00180E00C94801A0895E0910E01F091A2
:103530000F018091CB018083E0910E01F0910F018A
:1035400090818091CA01892B8083E0910E01F091D6
:103550000F0190818091C901892B80838091C001E6
:10356000882381F0E0910E01F0910F019081892B69
:10357000808380910E0190910F010E94751B811133
:103580000E948B1A80910E0190910F010C941D0FD7
:1035900008950C94C81A98E0899F90011124262B55
:1035A0002093BF010E94CE188091BF01859585951B
:1035B00085950C94C91A1092BF0180E00C94C91A29
:1035C0002091BF01809582238093BF01982F97702F
:1035D00079F430E0482F082E000C550B24173507DE
:1035E00039F08595859585950E94EF180C94DB1A26
:1035F000089580E090E00E94CD2521E08D3E9E4F11
:1036000009F020E0822F089582E090E00C94BF251D
:1036100083E090E00C94BF2584E090E00C94BF25FB
:10362000682F84E090E00C94D325AB01BC018FE0BF
:1036300090E00C94E525AB01BC0183E190E00C9493
:10364000E52560E070E0CB010C941B1B60E070E0AE
:10365000CB010E94151B0C94211B6DEE7EEF80E0C8
:1036600090E00E94F12560E082E090E00E94D32586
:1036700060E083E090E00E94D3251092BB0110929D
:10368000BC011092BD011092BE0160E084E090E0A8
:103690000E94D32560E085E090E00E94D32560E0A1
:1036A00086E090E00E94D3256FEF87E090E00E94D3
:1036B000D32540E050E0BA0188E090E00E94E52583
:1036C00060E08DE090E00E94D32540E050E0BA0138
:1036D00088E190E00E94E52560E087E190E00E94AB
:1036E000D3250C94261B0C942D1BFC01329697E0DD
:1036F00080E0915029F021912223D9F38F5FF9CFF7
:1037000008959C01FC0132969FEF80E0419146179D
:1037100089F09F3F19F4411101C0982F8F5F8630C7
:10372000A9F79F3F39F0F901E90FF11D97FDFA95CF
:10373000628308950895FC0132960896208126132D
:1037400001C010823196E817F907C1F708950C946B
:10375000811B0C949B1B029626E0FC0111922A957A
:10376000E9F7089508950C94B21B0E94B31B809151
:103770000902843049F11092CD0120E488E190E003
:103780000FB6F894A895809360000FBE2093600058
:1037900080E00E9426040E94B31B83B7817F84606F
:1037A00083BF83B7816083BF7894889583B78E7F0A
:1037B00083BF0FB6F894A8958091600088618093CC
:1037C0006000109260000FBE089508950895CF9391
:1037D0000E94E51B0E9436090E94E61BC0E08C2F68
:1037E0000E94C309811104C0CF5FC830C1F701C076
:1037F00081E0CF91089508950C94FB1B0E94EB1378
:103800000E94110F0E9426040C94FC1B1F920F9221
:103810000FB60F9211248F939F93AF93BF93809114
:10382000CD01811113C08091FF0190910002A09100
:103830000102B09102024196A11DB11D8093FF01CA
:1038400090930002A0930102B0930202BF91AF9146
:103850009F918F910F900FBE0F901F90189582E04F
:1038600084BD93E095BD9AEF97BD80936E00089557
:103870002FB7F8948091FF0190910002A09101026E
:10388000B09102022FBF0895CF92DF92EF92FF9284
:103890000F931F932FB7F8944091FF0150910002AE
:1038A00060910102709102022FBF6A017B01EE2438
:1038B000FF248C0120E030E0C016D106E206F306BA
:1038C00010F4415051099A01281B390BC9011F916D
:1038D0000F91FF90EF90DF90CF90089578941F9212
:1038E0000F920FB60F9211248F939F93AF93BF93B4
:1038F0008091FF0190910002A0910102B09102021B
:103900000196A11DB11D8093FF0190930002A09329
:103910000102B0930202BF91AF919F918F910F90DE
:103920000FBE0F901F90189581E08093E00080E219
:103930008093D8001092C9008FE19EE40197F1F7BF
:1039400000C0000087E090EBDC01809312029093AE
:103950001302A0931402B09315029CE088E10FB605
:10396000F894A895809360000FBE90936000FFCFFD
:103970000E94F91A811102C00E94731B0E94041B4D
:103980008093CC010E940C1B90E0909304028093E2
:1039900003020E94081B682F70E080E090E00C9406
:1039A0006D188091D20180FF04C06091130170E016
:1039B00028C081FF06C06091130170E0660F771F79
:1039C00020C082FF07C06091130184E0689FB001AE
:1039D000112417C09091D1019923D1F06091120167
:1039E000961788F72091130184E0289F90011124F5
:1039F000929FA001939F500D112470E0CA010E9474
:103A000098256038710540F46115710539F002C0E0
:103A100064E070E0862F08958FE7089581E00895AF
:103A20008091D20180FF08C06091110170E075950E
:103A300067957595679521C081FF06C0609111015A
:103A400070E07595679519C082FF04C060911101FF
:103A500070E010C09091D1019923C1F060911001E4
:103A60009617A0F780911101899FC001112470E081
:103A70000E9498256038710528F46115710521F0C0
:103A8000862F08958FE7089581E0089561E070E042
:103A9000F4CF803F21F40E94D11C819504C0813F66
:103AA00029F40E94D11C8093D6010895823F21F40D
:103AB0000E94D11C819504C0833F29F40E94D11C2F
:103AC0008093D5010895893F19F40E94101D05C007
:103AD0008A3F31F40E94101D81958093D70108958B
:103AE0008B3F21F40E94101D819504C08C3F29F466
:103AF0000E94101D8093D8010895843F21F4809185
:103B0000D401816017C0853F21F48091D401826087
:103B100011C0863F21F48091D40184600BC0873F9F
:103B200021F48091D401886005C0883F31F48091F0
:103B3000D40180618093D40108958D3F21F4809158
:103B4000D20181600BC08E3F21F48091D20182604E
:103B500005C08F3F29F48091D20184608093D20107
:103B60000895803F39F48091D60187FF6CC0109290
:103B7000D60169C0813F29F48091D6011816BCF3A3
:103B800062C09091D501823F29F497FF5CC01092EA
:103B9000D50159C0833F19F41916CCF354C0893F9D
:103BA00041F48091D70118160CF04DC01092D70146
:103BB0004AC08A3F29F48091D70187FF44C0F6CFDD
:103BC0008B3F39F48091D80187FF3DC01092D80116
:103BD0003AC08C3F29F48091D8011816BCF333C049
:103BE000843F21F48091D4018E7F17C0853F21F45A
:103BF0008091D4018D7F11C0863F21F48091D40142
:103C00008B7F0BC0873F21F48091D401877F05C053
:103C1000883F31F48091D4018F7E8093D40113C00A
:103C20008D3F21F48091D2018E7F0BC08E3F21F415
:103C30008091D2018D7F05C08F3F29F48091D20100
:103C40008B7F8093D2018091D50181110EC080912C
:103C5000D60181110AC08091D701811106C08091DF
:103C6000D801811102C01092D101089583ED91E035
:103C70000E94280F0E94381C9093D0018093CF019E
:103C800008951F93CF93DF938091CF019091D0013E
:103C90000E94441CAC019091D101992321F0209104
:103CA000140130E006C02091CE018AE0289F9001E7
:103CB00011244217530708F46EC08091D501C091BA
:103CC000D601D091D7011091D801811107C0C1113F
:103CD0005EC0D1115CC011115AC05DC09F3F19F088
:103CE0009F5F9093D101181624F40E94D11C8093F9
:103CF000D5018091D50187FF05C00E94D11C819517
:103D00008093D5011C1624F40E94D11C8093D60107
:103D10008091D60187FF05C00E94D11C81958093B8
:103D2000D6014091D501442379F03091D601332357
:103D300059F025EB4203A00111245093D501320321
:103D4000C00111249093D6011D1624F40E94101D69
:103D50008093D7018091D70187FF05C00E94101D75
:103D600081958093D701111624F40E94101D809331
:103D7000D8018091D80187FF05C00E94101D819550
:103D80008093D801DF91CF911F910C94361E9F3FF5
:103D900009F0A6CFAECFDF91CF911F910895E3ED4B
:103DA000F1E086E0DF011D928A95E9F71092D101DA
:103DB0001092D20108958091E10108950895089527
:103DC000CF93DF93EC010E94CB20823011F084303E
:103DD000F9F482E08093E9009FEF8091E800915030
:103DE00085FD06C085ED8A95F1F700009111F5CFAC
:103DF0008091E80085FF0CC040E050E066E070E094
:103E0000CE010E94E8208091E8008E778093E80040
:103E1000DF91CF910895CF93DF93EC010E94CB20E7
:103E2000823011F0843039F581E08093E9008FEF22
:103E30009091E800815095FD06C095ED9A95F1F7B7
:103E400000008111F5CF8091E80085FF14C040E0AB
:103E500050E068E070E0CE010E94E8208091E80028
:103E60008E778093E80088E0FE01A9EDB1E0019033
:103E70000D928A95E1F7DF91CF9108958091080224
:103E8000811109C00E947D220E94DA228091E20005
:103E900084608093E20008951092080208950895C6
:103EA00008950C94FE1B42E061EC81E00E94F72132
:103EB00042E261EC82E00C94F72180910B028330A6
:103EC00009F460C030F4813071F0823009F499C097
:103ED00008958A3009F485C08B3009F46BC08930AD
:103EE00009F0A7C020C080910A02813A09F0A1C060
:103EF0008091E800877F8093E80080910E02909186
:103F00000F02892B21F468E089ED91E003C060E0A5
:103F100080E090E070E00E9433218091E8008B7790
:103F20008093E800089580910A02813209F081C0EF
:103F300080910E0290910F02029708F07AC0809152
:103F4000E800877F8093E8008091E80082FD05C04B
:103F5000809109028111F8CF6CC02091F30080910B
:103F6000F20090E0922B029729F48091F1008B7F70
:103F7000813021F48091F1008093E1018091E8008B
:103F80008B7753C080910A02813A09F052C0809128
:103F90000E0290910F02892B09F04BC08091E8002E
:103FA000877F8093E8008091E80080FFFCCF8091BC
:103FB0001F0136C080910A028132D9F580910E022C
:103FC00090910F02892BA9F58091E800877F80935B
:103FD000E8000E942C2280910C0280931F010C9417
:103FE000EB1380910A02813221F58091E800877FEE
:103FF0008093E8000E942C2280910D028093E201C0
:10400000089580910A02813AA1F48091E800877FA7
:104010008093E8008091E80080FFFCCF8091E2016E
:104020008093F1008091E8008E778093E8000C94F3
:104030002C22089584B7877F84BF0FB6F894A89583
:1040400080916000886180936000109260000FBED4
:1040500080E880936100109261000E94700F0E94BE
:104060007D220E94DA228091E20084608093E20047
:1040700078940E9469250E94780F85E191E00E9462
:104080000C0F80910902853069F40E94B51B809164
:1040900007028823B1F30E94E71B882391F30E9453
:1040A000D220EFCF0E94820F0E94B60EEACF0C946E
:1040B0005920292F332723303105C9F064F42130EA
:1040C000310581F02230310509F04CC08BE390E0DE
:1040D0002DED34E04BC02132310521F12232310582
:1040E00089F140C082E190E028E135E03FC09927A6
:1040F0008130910571F02CF4892BA1F5E9EDF4E004
:104100000DC08230910541F0039761F5E3EAF4E0D8
:1041100005C0E5ECF4E002C0E9EAF4E0849190E047
:104120009F0124C06115710541F061307105D1F422
:1041300089E090E028E035E019C089E090E02FEEBA
:1041400034E014C06115710541F06130710551F41E
:104150008FE490E02AE235E009C080E490E029E7AE
:1041600035E004C080E090E020E030E0FA013183E7
:10417000208308950895CF93C82F0E94BA20C0933A
:10418000E301CF91089580910902843011F081E01C
:10419000089582E008958091E301811102C00C949A
:1041A000C320089580E189BD82E189BD09B400FE84
:1041B000FDCF8091D8008F7D8093D8008091E00062
:1041C00082608093E0008091E00081FDFCCF089543
:1041D000CF92DF92EF92FF920F931F93CF93DF93D3
:1041E000EC018B016A010E944B22811133C0C11482
:1041F000D10439F0F60180819181081B190BC80F99
:10420000D91FE12CF12C0115110519F18091E8005D
:1042100085FD16C08091E8008E778093E800C11478
:10422000D10449F0F60180819181E80EF91EF182F6
:10423000E08285E00FC00E944B22882321F30AC050
:1042400089918093F10001501109FFEFEF1AFF0AE5
:10425000DACF80E0DF91CF911F910F91FF90EF9027
:10426000DF90CF900895209110023091110226170F
:10427000370748F06115710539F42091E8002E7771
:104280002093E80001C0B90140E061157105A9F172
:1042900020910902222309F443C0253009F442C0C9
:1042A0002091E80023FD40C02091E80022FD32C0AB
:1042B0002091E80020FFE9CF4091F3002091F20027
:1042C00030E0342BFC01CF016115710559F0283025
:1042D000310540F481918093F100615071092F5FA5
:1042E0003F4FF1CF41E02830310509F040E0209107
:1042F000E8002E772093E800C8CF4111C9CF0AC04B
:1043000080910902882361F0853061F08091E80096
:1043100083FD0AC08091E80082FFF2CF80E008951B
:1043200082E0089583E0089581E0089520911002CD
:10433000309111022617370748F06115710539F4DD
:104340002091E8002E772093E80001C0B901FC011C
:1043500020E06115710591F180910902882309F42B
:1043600040C0853009F43FC08091E80083FD3DC026
:104370008091E80082FD2FC08091E80080FFE9CFA6
:104380002091F3008091F20090E0922B611571056D
:1043900059F08830910540F424912093F100319632
:1043A000615071090196F2CF21E0089709F020E0F1
:1043B0008091E8008E778093E800CBCF2111CCCF9D
:1043C0000AC080910902882361F0853061F08091F4
:1043D000E80083FD0AC08091E80082FFF2CF80E010
:1043E000089582E0089583E0089581E00895982F6C
:1043F000973058F59093E900981739F07091EC00D8
:104400002091ED005091F00003C0242F762F50E052
:1044100021FF19C03091EB003E7F3093EB003091CB
:10442000ED003D7F3093ED003091EB003160309333
:10443000EB007093EC002093ED005093F00020917E
:10444000EE0027FF07C09F5FD3CF8F708093E900F6
:1044500081E0089580E0089580910A0287FF11C0ED
:104460008091E80082FD05C0809109028111F8CF9A
:1044700011C08091E8008B770BC0809109028823DE
:1044800049F08091E80080FFF8CF8091E8008E77B6
:104490008093E80008952091E4003091E50095E6CE
:1044A0004091EC00842F817040FF22C08091E80091
:1044B00080FD1CC080910902882391F0853091F025
:1044C0008091EB0085FD10C04091E4005091E50023
:1044D0004217530729F39A01915011F784E0089588
:1044E00082E0089583E0089581E0089580E00895D2
:1044F0004091E80042FFDECF08950E94EB220E9427
:10450000F322E0EEF0E0808181608083E8EDF0E06E
:1045100080818F77808319BCA7EDB0E08C918E7F6E
:104520008C9380818F7E80831092080208950F9370
:104530001F93CF93DF930E94EB220E94F322C8EDDA
:10454000D0E088818F77888388818068888388819C
:104550008F7D888319BC1092090210920502109277
:1045600007021092060200EE10E0F80180818B7FB6
:10457000808388818160888342E060E080E00E94DF
:10458000F721E1EEF0E080818E7F8083E2EEF0E0C3
:10459000808181608083808188608083F801808150
:1045A0008E7F8083888180618883DF91CF911F9186
:1045B0000F910895E8EDF0E080818F7E8083E7ED34
:1045C000F0E080818160808384E082BF81E080931D
:1045D00008020C949722E8EDF0E080818E7F8083C2
:1045E0001092E20008951092DA001092E10008950E
:1045F0001F920F920FB60F9211242F933F934F9358
:104600005F936F937F938F939F93AF93BF93EF933A
:10461000FF938091E10082FF0BC08091E20082FF56
:1046200007C08091E1008B7F8093E1000E946825A4
:104630008091DA0080FF1FC08091D80080FF1BC0EE
:104640008091DA008E7F8093DA008091D90080FF1C
:104650000DC080E189BD82E189BD09B400FEFDCFB6
:1046600081E0809309020E943E1F05C019BC109290
:1046700009020E944C1F8091E10080FF19C08091C7
:10468000E20080FF15C08091E2008E7F8093E200FF
:104690008091E20080618093E2008091D800806286
:1046A0008093D80019BC85E0809309020E94501FB6
:1046B0008091E10084FF30C08091E20084FF2CC033
:1046C00080E189BD82E189BD09B400FEFDCF809102
:1046D000D8008F7D8093D8008091E1008F7E8093F9
:1046E000E1008091E2008F7E8093E2008091E20001
:1046F00081608093E20080910502882311F084E0BC
:1047000007C08091E30087FD02C081E001C083E023
:10471000809309020E94511F8091E10083FF29C00C
:104720008091E20083FF25C08091E100877F809324
:10473000E10082E080930902109205028091E1007D
:104740008E7F8093E1008091E2008E7F8093E20073
:104750008091E20080618093E20042E060E080E0CE
:104760000E94F7218091F00088608093F0000E9401
:104770004F1FFF91EF91BF91AF919F918F917F91CB
:104780006F915F914F913F912F910F900FBE0F90BE
:104790001F9018951F920F920FB60F9211242F930E
:1047A0003F934F935F936F937F938F939F93AF93B9
:1047B000BF93CF93DF93EF93FF93C091E900CF7046
:1047C0008091EC00D82FD17080FDD0E81092E900E4
:1047D0008091F000877F8093F00078940E940E24EF
:1047E0001092E9008091F00088608093F000CD2B5A
:1047F000CF70C093E900FF91EF91DF91CF91BF910E
:10480000AF919F918F917F916F915F914F913F9168
:104810002F910F900FBE0F901F9018951F93CF935D
:10482000DF93CDB7DEB7AA970FB6F894DEBF0FBE01
:10483000CDBFEAE0F2E088E08E0F9091F100919315
:104840008E13FBCF0E945D1F8091E80083FF28C17B
:1048500080910A0290910B02492F50E04A30510595
:1048600008F01EC1FA01E556FF4F0C94AC258038C4
:1048700021F0823809F014C108C08091060290919D
:104880000702992389F082600FC080910E028F7019
:10489000873008F005C18093E9008091EB0085FB2B
:1048A000882780F91092E9009091E800977F909313
:1048B000E8008093F1001092F100D0C0282F2D7FE6
:1048C00009F0EEC0882319F0823061F0E9C08091D0
:1048D0000C02813009F0E4C0933009F080E080934D
:1048E00007022EC080910C0281112AC080910E0215
:1048F0008F702FEF280F263008F0D2C08093E90088
:104900002091EB0020FF1CC0933021F48091EB003C
:10491000806214C09091EB0090619093EB0021E0D5
:1049200030E0A90102C0440F551F8A95E2F7409379
:10493000EA001092EA008091EB0088608093EB001F
:104940001092E9008091E800877F8093E8000E9440
:104950002C22A6C08111A4C010910C021F77809157
:10496000E3008078812B8093E3008091E800877FCB
:104970008093E8000E942C228091E80080FFFCCF09
:104980008091E30080688093E300111102C082E00F
:1049900001C083E08093090283C08058823008F010
:1049A0007FC080910C0290910D028C3D53E09507E1
:1049B00079F583E08A838AE289834FB7F894DE0130
:1049C000139620E03EE051E2E32FF0E050935700D1
:1049D000E49120FF03C0E295EF703F5FEF708E2FF0
:1049E00090E0EA3010F0C79601C0C0968D939D9379
:1049F0002F5F243149F74FBF8091E800877F809374
:104A0000E8006AE270E0CE0101960E94332115C0F1
:104A100060910E0270910F02AE014F5F5F4F0E94D6
:104A20005720BC01892BE1F19091E800977F90938A
:104A3000E80089819A810E9496218091E8008B7715
:104A40008093E8002DC0803859F58091E800877F79
:104A50008093E800809105028093F1008091E80046
:104A60008E7773CF81111CC090910C029230C0F4EC
:104A70008091E800877F8093E800909305020E9470
:104A80002C2280910502811106C08091E30087FDF0
:104A900002C081E001C084E0809309020E94531F9C
:104AA0008091E80083FF0AC08091E800877F8093AF
:104AB000E8008091EB0080628093EB00AA960FB62D
:104AC000F894DEBF0FBECDBFDF91CF911F91089547
:104AD0000895CF93809109028823A1F0C091E90045
:104AE000CF709091EC00892F817090FD80E8C82BE9
:104AF0001092E9008091E80083FD0E940E24CF709F
:104B0000C093E900CF910895AA1BBB1B51E107C0D8
:104B1000AA1FBB1FA617B70710F0A61BB70B881F4D
:104B2000991F5A95A9F780959095BC01CD010895DC
:104B300097FB072E16F4009407D077FD09D00E944A
:104B4000842507FC05D03EF4909581959F4F0895EC
:104B5000709561957F4F0895EE0FFF1F0590F491BA
:104B6000E02D0994FC014150504030F001900616B0
:104B7000D1F73197CF010895882799270895F9999A
:104B8000FECF92BD81BDF89A992780B50895A6E120
:104B9000B0E044E050E00C94F925A8E1B0E042E038
:104BA00050E00C94F925262FF999FECF92BD81BDD6
:104BB000F89A019700B4021639F01FBA20BD0FB65B
:104BC000F894FA9AF99A0FBE08950396272F0E9437
:104BD000D4250E94D325252F0E94D425242F0C9460
:104BE000D4250196272F0E94D4250C94D325DC01CF
:104BF000CB01FC01F999FECF06C0F2BDE1BDF89AE8
:104C0000319600B40D9241505040B8F70895F89491
:024C1000FFCFD4
:104C1200010206010E0F1011121314151617C1010D
:104C22002808960301DB1E0B1FE01EDE1EDF1E019D
:0E4C3200F4F5F6F767F1F0C632349796940069
:00000001FF
