:100000000C9426060C946D060C946D060C94052C2D
:100010000C946D060C946D060C946D060C946D0694
:100020000C946D060C946D060C9426290C94DB2719
:100030000C94F61D0C946D060C946D060C946D06D4
:100040000C946D060C946D060C946D060C946D0664
:100050000C946D060C94931D0C946D060C946D0617
:100060000C946D060C946D060C946D060C946D0644
:100070000C946D060C946D060C946D060C946D0634
:100080000C946D060C946D060C946D060C946D0624
:100090000C946D060C946D060C946D060C946D0614
:1000A0000C946D060C946D060C946D06DA12DA123F
:1000B000141314133015671330153015A913871452
:1000C000981498147B15B815BD15C215C715CC1515
:1000D000D115D615DB15E015E515FF1538161716E1
:1000E0001A1638161D163816201638168E208E2031
:1000F000A120A1209720A120A120A1208E208E2028
:100100009C20A120A1209C20EA251126B32711269E
:10011000B32759267C26B32777278A2700010101B8
:1001200001010101010102020202020202020203B4
:100130000303030303030304040404040404050584
:100140000505050606060606070707070708080847
:1001500008090909090A0A0A0B0B0B0C0C0C0D0DF6
:100160000D0E0E0E0F0F0F1010111111121213138E
:100170001414151516161717181819191A1A1B1B07
:100180001C1D1D1E1E1F2020212222232424252663
:1001900026272829292A2B2C2D2D2E2F303132329B
:1001A000333435363738393A3B3C3D3E3F404142A7
:1001B000434445464748494A4C4D4E4F505153548D
:1001C000555658595A5B5D5E5F6162646566686941
:1001D0006B6C6D6F7072737577787A7B7D7E8082C1
:1001E000838587888A8C8E8F91939596989A9C9E0A
:1001F000A0A2A3A5A7A9ABADAFB1B3B5B7BABCBE1A
:10020000C0C2C4C6C9CBCDCFD1D4D6D8DBDDDFE2E6
:10021000E4E7E9EBEEF0F3F5F8FAFDFFFFAA7F550E
:100220004000AF00000000000000000000000000DF
:10023000000000000000007E0F00D4FFFFFFC70099
:1002400000007800000000000000002A2B280000B9
:100250000000000000000000000000000000290075
:100260000000002C1E3420212224342627252E367F
:100270002D3738271E1F20212223242526333336ED
:100280002E37381F0405060708090A0B0C0D0E0F40
:10029000101112131415161718191A1B1C1D2F31C3
:1002A00030232D350405060708090A0B0C0D0E0F27
:1002B000101112131415161718191A1B1C1D2F31A3
:1002C00030354C0102E2600103E2002A0013001203
:1002D000000C0018001C00280033000F000E000D59
:1002E000000B005200380037003600100011008764
:1002F000724F00510050006564095D170015000839
:10030000001A00140029000A000900070016000462
:10031000002B620500190006001B001D00E1002CE7
:10032000002A00085DE300E200E000000000000099
:1003300000000000000000000000000000000000BD
:1003400000000000000000000000000000000000AD
:10035000000000000000000000000000000000009D
:10036000000000000000000000000000000000008D
:10037000000000000000000000000000000000007D
:1003800000000000000000000000004C0030002FC2
:100390000089002E002D00010031003400330000E0
:1003A0000000004B008700380037003600000001D5
:1003B000004D004E004A00000001003E003D003CA0
:1003C000003B003A00010043004200410040003F72
:1003D0000001000B5D000000004500440001000129
:1003E000004C0001000100010001000000000000BD
:1003F00000000000000000000000000000000000FD
:1004000000000000000000000000000000000000EC
:1004100000000000000000000000000000000000DC
:1004200000000000000000000000000000000000CC
:1004300000000000000000000000000000000000BC
:10044000000000000000000000000000002700265F
:100450000025002400230001003400230022002195
:100460000000000000870020001F001E00000001A7
:10047000003800360037002700010022002100204C
:10048000001F001E0001000000000000000000002E
:100490000001000000000000000000000001000159
:1004A0000001000100010001000100000000000047
:1004B000000000000000000000000000000000003C
:1004C000000000000000000000000000000000002C
:1004D000000000000000000000000000000000001C
:1004E000000000000000000000000000000000000C
:1004F00000000000000000000000000000000000FC
:10050000000000000000000000000000004B004A56
:1005100000F900FB00000000004E004D00FA00FC56
:10052000000000F0000000F500F4000000000001F1
:1005300000F300F100F2000000010000000A5C136B
:100540005C0C5D005C00000000C95CC75CC55CC25F
:100550005C00000000CA5CC85CC65CC35C010000B3
:100560000000000100010001000100000000000087
:10057000000000000000000000000000000000007B
:10058000000000000000000000000000000000006B
:10059000000000000000000000000000000000005B
:1005A000000000000000000000000000000000004B
:1005B000000000000000000000000000000000003B
:1005C000000000000000000000000000DA02818F3F
:1005D000D9F1DB40A4A62EAF00A0C000A1C800AE98
:1005E000D580A81FD300408D1420007F3F1F6432A8
:1005F00014783C1E00AE05010902A1018502090123
:10060000A1000509190129051500250195057501A8
:1006100081029501750381010501093009311581B8
:10062000257F95027508810609381581257F95017A
:1006300075088106050C0A38021581257F9501751C
:10064000088106C0C005010906A101050719E029B6
:10065000E71500250195087501810295017508814E
:10066000010507190029FF150026FF0095067508EA
:10067000810005081901290595057501910295016B
:1006800075039101C009023B00020100A0FA0904B0
:1006900000000103010100092111010001224000B5
:1006A0000705810308000A09040100010300000096
:1006B000092111010001224F000705820320000AD1
:1006C0001201100100000008EDFEA3DF100001027E
:1006D00003010403300000001A0374007200650077
:1006E00061006400730074006F006E0065003400E8
:1006F0003800000012036D00610072006B0073008F
:10070000610072006400000004030904000000009E
:1007100000003E5B4F5B3E003E6B4F6B3E001C3E5D
:100720007C3E1C00183C7E3C18001C577D571C006A
:100730001C5E7F5E1C0000183C180000FFE7C3E74A
:10074000FF00001824180000FFE7DBE7FF00304837
:100750003A060E00262979292600407F0505070064
:10076000407F05253F005A3CE73C5A007F3E1C1C59
:100770000800081C1C3E7F0014227F2214005F5FCB
:10078000005F5F0006097F017F00006689956A00AF
:1007900060606060600094A2FFA2940008047E0480
:1007A000080010207E20100008082A1C0800081CE1
:1007B0002A0808001E10101010000C1E0C1E0C0041
:1007C00030383E383000060E3E0E060000000000B5
:1007D000000000005F000000000700070000147F19
:1007E000147F1400242A7F2A120023130864620055
:1007F000364956205000000807030000001C224123
:1008000000000041221C00002A1C7F1C2A0008084E
:100810003E08080000807030000008080808080042
:100820000000606000002010080402003E514945AD
:100830003E0000427F400000724949494600214184
:10084000494D33001814127F1000274545453900E3
:100850003C4A4949310041211109070036494949BB
:100860003600464949291E000000140000000040DF
:100870003400000000081422410014141414140061
:100880000041221408000201590906003E415D5949
:100890004E007C1211127C007F49494936003E41CE
:1008A000414122007F4141413E007F494949410089
:1008B0007F09090901003E41415173007F08080882
:1008C0007F0000417F4100002040413F01007F0840
:1008D000142241007F40404040007F021C027F0004
:1008E0007F0408107F003E4141413E007F09090915
:1008F00006003E4151215E007F0919294600264924
:100900004949320003017F0103003F4040403F005E
:100910001F2040201F003F4038403F006314081450
:1009200063000304780403006159494D4300007FCC
:1009300041414100020408102000004141417F0074
:100940000402010204004040404040000003070848
:1009500000002054547840007F2844443800384434
:1009600044442800384444287F0038545454180024
:1009700000087E0902001824241C78007F08040463
:10098000780000447D4000002040403D00007F1082
:100990002844000000417F4000007C047804780077
:1009A0007C0804047800384444443800FC182424AB
:1009B000180018242418FC007C080404080048547B
:1009C0005454240004043F4424003C4040207C0054
:1009D0001C2040201C003C4030403C004428102893
:1009E00044004C1010107C004464544C4400000837
:1009F000364100000000770000000041360800008A
:100A00000201020402003C2623263C0000000000F4
:100A100000000000000000000000000000000000D6
:100A200000000000000000000000000000000000C6
:100A300000000000000000000000000000000000B6
:100A400000000000000000000000000000000000A6
:100C400000000000000000000000000011241FBE92
:100C5000CFEFDAE0DEBFCDBF04B603FE27C0809140
:100C6000580690915906A0915A06B0915B068730BC
:100C7000904BA740B04BD1F41092580610925906F1
:100C800010925A0610925B0614BE84B7877F84BF09
:100C90000FB6F894A89580916000886180936000F9
:100CA000109260000FBEE0E0F8E3099526E0A8EDA1
:100CB000B2E001C01D92A835B207E1F712E0A0E052
:100CC000B1E0EEE6F1E602C005900D92A83DB10755
:100CD000D9F70E944D160C94B5300C94000008957D
:100CE000BF92CF92DF92EF92FF920F931F93CF9319
:100CF000DF93E82EF62EE901E42FF0E0611106C043
:100D0000E45EFE4F8491B82EE82F71C0262F30E0AC
:100D1000E45EFE4FE491FE2FCE2ED12C46E0849F60
:100D2000C00111240FEF10E0B8010E94752D4BEAAD
:100D30004603C001479F900D11248E0D911D8E0D0D
:100D4000911D982F990F890FD801A21BB30BAC9D51
:100D5000A001AD9D500DBC9D500D1124B52EF89EE7
:100D6000D0011124AB2FBB277801EA1AFB0AEC9CB7
:100D7000D001ED9CB00DFC9CB00D11247801E81A57
:100D8000F108E29EC001E39E900DF29E900D1124A9
:100D9000892F9927081B190B0C9D90010D9D300D73
:100DA0001C9D300D1124832F6230710591F048F4A1
:100DB00061157105E1F061307105B9F48E2FEB2FEB
:100DC00016C06430710569F040F06630710579F045
:100DD0000CC08E2FE52FB32E0AC0E52FBF2E8B2F10
:100DE00006C0852FBE2EE32F02C0852FBB2EE983C0
:100DF0008883BA82DF91CF911F910F91FF90EF907E
:100E0000DF90CF90BF90089590912C0392FF0DC07A
:100E1000282F2871283019F4877F846006C0282F76
:100E20002471243011F48B7F886093FF0DC0282F2C
:100E30002871283119F4877E846106C0282F247117
:100E4000243111F48B7E886120912D0320FF0DC089
:100E5000382F3871383019F4877F816006C0382FF9
:100E60003171313011F48E7F886021FF0DC0282F41
:100E70002871283119F4877E816106C0282F2171DD
:100E8000213111F48E7E886194FD877E08951F9331
:100E9000CF93DF93CDB7DEB767970FB6F894DEBF79
:100EA0000FBECDBF4B8B5C8B6D8B7E8B8F8B86E0AB
:100EB0009E01235F3F4FD901E82F1D92EA95E9F784
:100EC00095E0FE017396D90101900D929A95E1F794
:100ED000F901DE01179601900D928A95E1F7CE0196
:100EE00007960E94A52081113EC086E0FE0137963C
:100EF000DE01119601900D928A95E1F7FF81E88558
:100F00006A857B856115710531F0EF3F31F481E031
:100F1000FF3F19F403C081E001C080E080FD23C0E1
:100F20002091A80330E0C90101968770992740916C
:100F3000D90350E08417950779F1F983EA837D831B
:100F40006C8396E0929FD001939FB00D1124A7551A
:100F5000BC4FFE01319601900D929A95E1F7809376
:100F6000A8030E94062016E08091D9039091A8035F
:100F70008917F9F0189FC001112487559C4F0E94D2
:100F8000A5208823B1F08091D90390E00196877065
:100F900099278093D903E8CF0E9467221092A80373
:100FA0001092D903E2EAF3E086E0DF011D928A9510
:100FB000E9F767960FB6F894DEBF0FBECDBFDF919D
:100FC000CF911F910895E0912F03F0913003309756
:100FD00021F00190F081E02D099480E008950E94B5
:100FE000C81DDC01CB01805A9541AF4FBF4F8093A4
:100FF000750390937603A0937703B0937803809161
:10100000790381110BC062E070E081E292E00E94FE
:10101000B124892B19F481E08093790380917903BD
:101020000895882311F0FA0101C0FB010994EBE453
:10103000F3E01182828184608283089530910E01F1
:1010400080914E0680FF16C0E0910D0163E0E69F9F
:10105000F0011124E352FD4F539A8BB1877F9BB16E
:1010600098602FB7F894AF0163E0369F400D511D93
:10107000112414C080910F0190911001891720F75D
:10108000E82FF0E0AF01440F551FE40FF51FE352C6
:10109000FD4F1182108212828F5FF0CFE417F507A7
:1010A00089F0319168E09BB9000000C037FF8BB92F
:1010B000330F000000C000C000C08BB900C06A95AB
:1010C00091F7ECCF2FBF87EC90E00197F1F700C0CC
:1010D000000008951F93CF93DF93EC018C81811161
:1010E00009C081E08C831092010392E090930C017F
:1010F00080930B0180910F0190911001891770F47A
:10110000E82FF0E09F01220F331FE20FF31FE3529D
:10111000FD4F1182108212828F5FF0CF10E060913C
:1011200011011617D8F5E12FF0E070E0CF010E9411
:10113000892D20910F01820F20910103022E000CB6
:10114000330B90E0E217F307E4F020910C01022E3C
:10115000000C330B2E173F07A4F09C01220F331F06
:10116000820F931F9C0123523D4F40915106453BF6
:1011700008F044EB6091500680914F060E94700683
:101180000BC0FC01EE0FFF1F8E0F9F1FFC01E352EF
:10119000FD4F1182108212821F5FC1CF0E941E0874
:1011A00080910B0120910103280F2093010390915E
:1011B0000C01980F90930C0119165CF4022E000C90
:1011C000330B4091110150E041505109241735076C
:1011D00034F0819580930B01813009F41C82DF91FA
:1011E000CF911F910895FF920F931F93CF93DF9399
:1011F000EC01F12C0FEF10E060911101F61608F5EB
:1012000080910F012F2D30E0280F311DC901880F6B
:10121000991F280F391F23523D4F40915106453BDE
:1012200008F044EB70E0C8010E94892D962F8C8154
:1012300060915006F99E800D11240E947006F3946F
:10124000DBCF0E941E089A818C8190FF02C08F5FC5
:1012500001C081508C83DF91CF911F910F91FF903E
:10126000089590914E0690FF16C090910F01209125
:101270001001921770F4E92FF0E0DF01AA0FBB1FF5
:10128000EA0FFB1FE352FD4F8183608342839F5F20
:10129000F0CF0C941E0808950F931F93CF93DF9304
:1012A00000D01F92CDB7DEB78C0180914E0680FF33
:1012B00013C040915106453B08F044EB9E012F5F5F
:1012C0003F4F60915006F80184810E9470064B8167
:1012D00069818A810E943109F80184818F5F84834A
:1012E0000F900F900F90DF91CF911F910F91089564
:1012F000EEE4F6E080818E7F80830E941708EBE4A5
:10130000F3E08281816082832FEF80E792E02150B9
:1013100080409040E1F700C000000C941E088091CE
:101320004E06282F269530E02115310519F48170DD
:10133000826005C02831310524F081708E6280936F
:101340004E0680915106853B18F084EB8093510640
:101350000895CF92DF92EF92FF926B017C010E9481
:101360008F09B701A60188E090E0FF90EF90DF9031
:10137000CF900C94472DAF92BF92CF92DF92EF9215
:10138000FF920F931F93CF93DF9300D01F92CDB79F
:10139000DEB7082FF62E142FE22E80914E0680FF26
:1013A00080C0E82FE695AE2FB0E0AB52BE4F9C91C7
:1013B00090934B038E7F823081F4453B08F044EBE1
:1013C0009E012F5F3F4F6F2D802F0E9470064B8133
:1013D00069818A810E94310941C0923019F40091DB
:1013E0004F063CC09530D9F39E30C1F5EE508E2F9C
:1013F0008170D82EE695F0E0E45EFD4FA590B490A4
:10140000C12CBB2460911101C61630F52C2D30E0A3
:10141000A29EC001A39E900DB29E900D112470E07B
:101420000E94752D802FD11002C0860F01C0861B2F
:1014300090910F01290F311DA901440F551F240F51
:10144000351F23523D4F412F153B08F044EB6F2DC4
:101450000E947006C394D6CF0E941E0880914F064A
:10146000081308C080915006F81204C080915106FC
:10147000181729F080914D03826080934D030093EB
:101480004F06F092500610935106EE2051F06091F5
:101490004E0670914F0680915006909151060E9421
:1014A000A9090F900F900F90DF91CF911F910F918D
:1014B000FF90EF90DF90CF90BF90AF900895EEE453
:1014C000F6E0438128E0421B08F440E021E062811D
:1014D00081810C94BB09EEE4F6E0438128E0420FE1
:1014E00008F44FEF21E0628181810C94BB09EEE4A6
:1014F000F6E0628128E0621B08F460E021E04381AD
:1015000081810C94BB09EEE4F6E0628128E0620F71
:1015100008F46FEF21E0438181810C94BB09EEE474
:10152000F6E0818121E04381628188500C94BB09FF
:10153000EEE4F6E0818121E043816281885F0C94D2
:10154000BB0980915206882319F08150809352067E
:1015500060914E0670914F06809150069091510611
:101560000C94A90980915206833018F48F5F809300
:10157000520660914E0670914F06809150069091F0
:1015800051060C94A909EEE4F6E083E08083118211
:101590008FEF828384EB83831482ABE4B3E01296F3
:1015A0008C911297836012968C93608171818281F5
:1015B00093810C94A9098091DC02811112C0809161
:1015C000D80080618093D8008AE18A95F1F700C045
:1015D0008091D90080FD02C082E001C081E080934B
:1015E000DC0281E09091DC02913009F080E0089506
:1015F000CF93DF9320E6829FC0011124FC0146E0D7
:10160000749FE00DF11D1124E60FF11DEE0FFF1F79
:10161000E553FD4FC591D491CE01C238D10569F192
:10162000B0F4C133D10509F475C048F4C932D1050D
:1016300009F469C0CA32D10509F473C079C0C53351
:10164000D10509F459C0C933D105B9F071C0C33E01
:10165000D10571F138F4C03ED105B1F0C23ED105DB
:1016600011F166C0C63ED105B9F1C73ED105C9F139
:10167000C43ED10509F05CC024C020912C0320FD9C
:101680003AC121FD38C154C020912C0320FD2DC149
:1016900020912D0320FF34C180912C0384FD22C1B1
:1016A00083EE90E02DC120912C0322FF29C1F4CFBD
:1016B00080912C0382FD1CC180912D0380FD1BC1F4
:1016C000EBCF20912D0321FF1BC180912C0384FDC2
:1016D00009C187EE90E014C120912C0323FF10C1B3
:1016E000F4CF80912C0383FD09C180912D0381FFEC
:1016F000ECCF84EE90E004C120912C0325FF00C1C3
:1017000089E290E0FDC020912C0325FFF9C085E31C
:1017100090E0F6C020912C0326FFF2C08AE290E010
:10172000EFC020912C0326FFEBC081E390E0E8C0DE
:10173000C11552E5D50778F5C11521E5D20708F0A6
:101740009BC0CF3FD10509F0B8F4C03FD10508F0E8
:101750006EC0C53AD10540F4C430D10508F0D0C000
:10176000219709F4CDC0BEC09E01205E310928300A
:10177000310508F0B7C0C4C0C11540E5D40708F072
:101780005DC0C11550E4D50708F054C0C115D04262
:1017900008F4B6C0A7C0C11546E5D40720F5C115A9
:1017A00055E5D50708F082C0C11584E5D80708F0D3
:1017B00078C09E01237033279C2F96959695C1156E
:1017C000D34508F05EC041E050E002C0440F551F11
:1017D0002A95E2F780E2989F90011124CA01822B9A
:1017E000932B9C688DC0C1155AE5D50778F4C115B7
:1017F00089E5D80708F063C0C11528E5D20708F4C9
:1018000071C09C2F8827806F906A7AC0CE01905655
:101810008115904208F066C08D2F8F710E940407D9
:101820009E01332730628F71A901582B59C0CE0118
:10183000906566C0CE019F70906A62C0CE01F4E0F0
:1018400096958795FA95E1F7282F23703C2F3370F2
:1018500081E090E002C0880F991F3A95E2F79C68FA
:10186000922B2C2F2F702695269550E2259F9001C4
:101870001124822B932B44C09C2F8827816F906A60
:101880003FC041E050E002C0440F551F2A95E2F7E7
:1018900080E2989F90011124CA01822B932B9A68B1
:1018A0002FC09C2F8827846F906A2AC08C2F0E949B
:1018B00004078F7190E0982F8827906221C08C2FA9
:1018C0008F700E9404079E0194E0369527959A95A3
:1018D000E1F72F7030E0322F22273069A901482B21
:1018E000CA010EC080E090E00BC089E390E008C020
:1018F00082EE90E005C080EE90E002C086EE90E0BF
:10190000DF91CF9108950F931F93CF93DF93C62F4D
:10191000D42F122FFC0182818823C9F06093040325
:101920000E94D41D909303038093020380E28C0FE6
:10193000883008F057C0C77081E001C0880FCA9591
:10194000EAF7DF91CF911F910F910C947D22809146
:101950000403681330C080910203909103030E9436
:10196000B91D813E910538F500E20D0FCD17B9F094
:1019700080E28C0F883040F4C77081E001C0880F8E
:10198000CA95EAF70E947222083028F581E09D2F5F
:10199000977001C0880F9A95EAF70E947D22812FE7
:1019A0000E949A230830F0F4D77081E001C0880FBC
:1019B000DA95EAF70AC080E28C0F883098F4C77095
:1019C00081E001C0880FCA95EAF7DF91CF911F919E
:1019D0000F910C947222812FDF91CF911F910F9163
:1019E0000C949A23DF91CF911F910F9108956091EC
:1019F0004E06669570E04BE050E080E091E00E947A
:101A0000A32D892B19F481E080934C030E94D41DEF
:101A1000909346038093450380914D0384608093A7
:101A20004D03089590914E0690FF3BC09170811137
:101A300002C0926006C0883110F09E6202C0880F1A
:101A4000982B90934E0680914D03816080934D03B7
:101A5000662351F060914E0670914F0680915006BA
:101A6000909151060E94A90960914E06669570E01A
:101A70004BE050E080E091E00E94A32D892B19F00B
:101A80000E94170802C00E94F70C81E0809348036F
:101A900020E0409151066091500680914F060C94D1
:101AA000BB09089580914E068695815009F487E11F
:101AB00061E00C94120D80914E0686958F5F8831FF
:101AC00008F081E061E00C94120D90914E0690FFB9
:101AD00004C09695981740F003C0811105C090E0AE
:101AE000961710F40C945B0D61E00C94120D3F926C
:101AF0004F925F926F927F928F929F92AF92BF921E
:101B0000CF92DF92EF92FF920F931F93CF93DF93C9
:101B10006AEB72E00AE113E022E2E22E23E0F22E09
:101B2000D801412CAA24A394B12C4D017C901C9285
:101B3000EB018991BE01E82FE295EF70F0E021A161
:101B40008F70A50102C0440F551F8A95E2F7CA01A4
:101B5000242B21A322A1342E3094232122A350EA46
:101B60005A95F1F79AECC92E92E0D92E20E030E098
:101B7000E60159906E01452D42954F7050E0EA0103
:101B800048A16C9050E0D52DDF7002C05595479567
:101B9000DA95E2F740FD08C05A2D022E01C0550F1C
:101BA0000A94EAF7452F01C040E046294C932F5F85
:101BB0003F4F26303105E1F691A1D32DD923D1A392
:101BC00092A1892B82A3119681E0F4019081971153
:101BD00001C080E0482AEA16FB0609F0A6CFD090A3
:101BE0002B03442049F081E08093DA020E94D41D47
:101BF0009093D9028093D8028091DA028823A9F0C9
:101C00008091D8029091D9020E94B91D069768F080
:101C1000ED2DF0E0EE5CFC4FD8018D918D018193AC
:101C2000EA16FB06C9F71092DA020E94DB0A882343
:101C3000D1F110912A0380914D038823E9F085E0CA
:101C4000EEE4F6E0A8E0B3E001900D928A95E1F7AA
:101C500080914B0390914C03A0914D0380930D0311
:101C600090930E03A0930F0381E090E00E94952CC7
:101C7000892B11F410924D0380E090E00E94952C86
:101C8000892B09F063C0E12FF0E0EE5CFC4F80E0AF
:101C900090E0DC01AF5EBC4F2C912193019688301F
:101CA0009105B9F750C0E0912B030E2F10E0809101
:101CB00010038830C9F580910F0380FF12C0809116
:101CC000080380FF0CC080914E06816080934E0611
:101CD0008091080360E086950E94120D02C00E9468
:101CE000780980910F0381FF09C020E040910B0328
:101CF00060910A03809109030E94BB0980910F0340
:101D000082FF09C080910E03882319F00E94F70C0E
:101D100002C00E94170880910F0383FF03C081E077
:101D20008093480310921003F801EE5CFC4F80E0B2
:101D300090E02191DC01AF5EBC4F2C93019688307E
:101D40009105B9F716C01092DB0213C08091DB0237
:101D50008F5F8093DB02863060F0E0912A03F0E031
:101D6000EE5CFC4F80E090E0119201968830910586
:101D7000D9F7842DDF91CF911F910F91FF90EF90B4
:101D8000DF90CF90BF90AF909F908F907F906F909B
:101D90005F904F903F9008956F927F928F929F92A5
:101DA000AF92BF92CF92DF92EF92FF920F931F9369
:101DB000CF93DF93CDB7DEB72A970FB6F894DEBF87
:101DC0000FBECDBFFC010081D18083819481892B1E
:101DD00039F01FEFD11206C091E00F3F19F403C094
:101DE00091E001C090E090FD43C77F0185E0DE01F6
:101DF000169601900D928A95E1F7F70122818E8166
:101E00009F81222349F00E94ED1E182F682F8E819A
:101E10009F810E94671F03C00E943A1F182F20E66F
:101E2000129FF001112436E0D39EE00DF11D112424
:101E3000E00FF11DEE0FFF1FE553FD4F05911491CB
:101E4000F7018281882389F10C33110528F4F80108
:101E5000E75EFD4F808101C080E21F928F931F9348
:101E60000F93F70180811F928F9381811F928F932F
:101E700087EF91E09F938F931F9287E18F938BE67B
:101E800091E09F938F930E94BD2D0FB6F894DEBF13
:101E90000FBECDBF09303DE5130761F008F41DC644
:101EA0000B30EDE51E0769F0C4C009303DE51307AE
:101EB00009F0B2C041E062E0F70182810E94712422
:101EC000CBC0F7018281882309F4AFC080912C0335
:101ED00082FF07C033ECC32E32E0D32E4AE0642EDB
:101EE00010C081E90E941023B7C0823009F5F2E0EA
:101EF000CF0ED11CF60184910E9410233FEFC31A2C
:101F0000D30AF6012491222309F4A6C0213009F056
:101F100042C0F60131968491813039F7F2E0CF0E5C
:101F2000D11CF601B4908B2D0E9410238B2D07C07D
:101F3000833041F4F2E0CF0ED11CF60184910E946F
:101F40008722DCCF843009F065C0F2E0CF0ED11CCF
:101F5000F601249180E090E030E0205331092A30EE
:101F6000310570F4689EA001699E500D1124C901CD
:101F7000840F951FFFEFCF1ADF0AF6012491ECCFF3
:101F8000009709F4BBCFEFE9FFE03197F1F700C00C
:101F900000000197F5CFE22FF0E0ED5BFD4F74906C
:101FA000822F86958695869590E0FC01ED5CFD4F2D
:101FB00084902770912C022E02C0959487940A94E5
:101FC000E2F7F1E08F229924FC01ED5DFD4FA49032
:101FD000B12C02C0B594A7942A95E2F721E0A22281
:101FE000BB248114910419F081EE0E941023A114E6
:101FF000B10419F086EE0E941023872D0E949A23C7
:10200000AB2819F086EE0E948722892809F476CF42
:1020100081EE95CF6F0172CF0A308DE5180708F475
:102020005CC50B30EDE51E0721F481E90E94872293
:1020300013C00C30FDE51F0789F4F7018281882366
:1020400059F00E94C30A80914E06816080934E062B
:1020500061E086950E94120DD12C02C0DD24D3943C
:1020600040913E0450913F046091400470914104BE
:1020700080901B0490901C04A0901D04B0901E043E
:10208000E5E5F2E020E030E0808190E0A0E0B0E023
:10209000411551056105710531F488159905AA05A9
:1020A000BB0579F405C0481759076A077B0749F44F
:1020B00049E0429FC001439F900D11248A5A9D4FD1
:1020C00008C02F5F3F4F399625303105E9F68DEE78
:1020D00091E020912C0322FF03C02FEE31E002C0DB
:1020E00023EF31E09F938F933F932F9389E092E00A
:1020F0009F938F931F9287E18F938BE391E09F9340
:102100008F930E94BD2D0FB6F894DEBF0FBECDBFDA
:10211000DD2009F4ADC5033F3CE51307C1F180F4B0
:10212000083D9CE51907C9F0093DECE51E07D9F10A
:10213000073DFCE51F07D1F526E241EE61EE10C038
:10214000053F2CE5120759F130F1063F8CE51807E1
:1021500069F527E245EE66EE03C027E245EE65EE3F
:10216000C7012A960FB6F894DEBF0FBECDBFDF9130
:10217000CF911F910F91FF90EF90DF90CF90BF9084
:10218000AF909F908F907F906F900C94830C26E27D
:1021900041EE60EEE5CF27E245EE64EEE1CF26E2C8
:1021A00041EE62EEDDCF28E241E0D9CFF701928126
:1021B000992309F452C1109204030230FCE51F0771
:1021C00008F435C106312CE5120738F098012A5F72
:1021D0003C452930310508F02AC10E94461E9093E3
:1021E0002D0380932C0300313CE5130709F4C3C091
:1021F00008F041C008309CE5190709F49AC0F0F4D2
:102200000430FCE51F0709F487C068F402303CE5A0
:10221000130709F477C003301C4509F0E5C080912D
:102220002C03826076C006309CE5190709F46EC065
:1022300008F07BC080912C0388606BC00C30FCE5FB
:102240001F0709F485C068F40A303CE5130709F458
:1022500074C008F079C00E94672280912C038068C6
:1022600058C00E309CE5190709F476C008F07FC00D
:1022700080912C038BC00B3FFCE51F0709F44FC076
:1022800018F503313CE5130709F47DC078F40131FA
:102290009CE5190709F473C002311C4509F0A4C07C
:1022A0000E94672280912C038F7733C00531FCE5B3
:1022B0001F0709F472C008F486C00A3F1C4509F0E4
:1022C00093C080912D033EC00F3F8CE5180709F4A1
:1022D0005FC058F40D3FECE51E0709F444C008F454
:1022E0003FC080912D0382602DC001302DE5120783
:1022F00009F475C008F45DC002301D4509F074C0D2
:1023000060E06EC080912C03816003C080912C033B
:10231000806180932C0368C080912C0311C0809150
:102320002D03826080932D035FC080912C03806217
:10233000F0CF80912C038064ECCF80912C038860D7
:102340008460E7CF8160EECF80912C038E7FE1CF58
:1023500080912C038D7FDDCF80912C03877FD9CF97
:1023600080912D0318C080912D038D7FDBCF80914C
:102370002C038F7ECECF80912C038F7DCACF80918E
:102380002C038F7BC6CF80912C03877F8B7FC1CF9F
:1023900080912D038D7F8E7FC5CF80912C0382FB92
:1023A000222720F991E0922790FB82F990FB83F994
:1023B000B0CF80912D03982F909591708E7F892BAF
:1023C00090FB81F9AFCF0E94672280912C0387FB9D
:1023D000222720F991E0922790FB87F99ACF61E0BC
:1023E0008EE090E00E94352D60912C0310912D031A
:1023F00084E090E00E94352D612F81E290E00E9400
:10240000352D2A960FB6F894DEBF0FBECDBFDF91F3
:10241000CF911F910F91FF90EF90DF90CF90BF90E1
:10242000AF909F908F907F906F900C9467220631B1
:102430002CE51207B9F5809119048A7A91E009F424
:1024400090E090930503882311F065E301C069E2F1
:102450008AE993E00E942C1E0FC006312CE512077A
:1024600009F05AC080910503882309F43EC365E34F
:102470008AE993E00E941F1E2A960FB6F894DEBFE9
:102480000FBECDBFDF91CF911F910F91FF90EF90C5
:10249000DF90CF90BF90AF909F908F907F906F9084
:1024A0000C94C01E01152CE51207D1F00E3D1C4501
:1024B00009F03CC02A960FB6F894DEBF0FBECDBF20
:1024C000DF91CF911F910F91FF90EF90DF90CF9010
:1024D000BF90AF909F908F907F906F900C94571EFD
:1024E0000E9467228FEF94E3ECE081509040E0403F
:1024F000E1F700C0000087E797E790930108809319
:1025000000089AE088E10FB6F894A89580936000DF
:102510000FBE90936000FFCF809119048272F80182
:10252000E25CFC45E431F10508F4E1C2F701008109
:102530001181992349F0C8010E94ED1ED82E682F01
:10254000C8010E94671F04C0C8010E943A1FD82E0C
:10255000B8018D2D0E94F80A8C01982EF701A580F4
:10256000A2942FE0A222B280B110109218048091A0
:102570001604877079F0BB2069F080E2800F883004
:1025800048F082E00E94C21F809116048770DD240B
:10259000D3948111D12CC12EC2949FE0C9228C2DDD
:1025A00090E08C30910508F05BC2FC01EA5AFF4FC5
:1025B0000C949D2D812F807F1F70882311F0129520
:1025C000107FBB20B9F0112309F435C280E2800FDF
:1025D000883010F0911006C080911904182B1093C8
:1025E000190405C080911804182B109318040E9438
:1025F000C01E21C2802F0E948722112309F430C2FD
:10260000005E1095083010F0911006C080911904FA
:1026100018231093190405C08091180418231093EF
:1026200018040E94C01E1CC2812F807F1F70803240
:1026300011F01295107F992021F0F1E09F16E1F042
:102640002AC0BB2081F080911A04AA2051F001E039
:10265000A01207C0182B181709F402C210931A040D
:10266000FFC1812B10C0AA2021F021E0A21609F49D
:10267000F7C10E94BA1E27C0BB2041F035E03A15D1
:1026800008F4EEC1812F0E947D22EAC184E08A1500
:1026900008F4E6C118C0BB2049F0AA2099F3F7015D
:1026A000858180FFC8C18F708583ECCFAA2059F047
:1026B000093309F0D2C1FFEF17EE23E0F1501040CB
:1026C0002040E1F7C8C1812F0E947222C9C1BB20FE
:1026D000F9F0053F51F0063F71F0043FA9F48091F5
:1026E00006039091070381600BC0809106039091CF
:1026F0000703826005C08091060390910703846000
:102700009093070380930603802F0E942B1D1EC009
:10271000053F51F0063F71F0043FA9F48091060394
:10272000909107038E7F0BC0809106039091070361
:102730008D7F05C080910603909107038B7F909356
:10274000070380930603802F0E94611C0E94E01DF6
:102750008DC1812F837009F069C0B11085C1902FA0
:10276000929596959770990F990F802F8F70882E5C
:10277000912CA12CB12C092E04C0880C991CAA1CE8
:10278000BB1C0A94D2F704FF12C04FE050E060E097
:1027900070E004C0440F551F661F771F9A95D2F74B
:1027A000DB01CA0180959095A095B09503C080E0AB
:1027B00090E0DC0116951695412F4370423019F1D7
:1027C000C8F400911B0410911C0420911D04309149
:1027D0001E04413059F088299929AA29BB29BC0136
:1027E000CD0160237123822393230AC0802A912A7A
:1027F000A22AB32ABC01CD01682979298A299B29FB
:102800000E94FC1F31C188299929AA29BB2900915E
:102810001B0410911C0420911D0430911E04BC0166
:10282000CD016027712782279327EACFBB2019F0BB
:10283000812F817001C08695882309F415C1902FDE
:10284000929596959770990F990F802F8F70882E7B
:10285000912CA12CB12C092E04C0880C991CAA1C07
:10286000BB1C0A94D2F704FF12C04FE050E060E0B6
:1028700070E004C0440F551F661F771F9A95D2F76A
:10288000DB01CA0180959095A095B09503C080E0CA
:1028900090E0DC0116951695412F43704230D9F037
:1028A00068F500913E0410913F042091400430915E
:1028B0004104413059F088299929AA29BB29BC0132
:1028C000CD0160237123822393231EC0802A912A85
:1028D000A22AB32A13C088299929AA29BB290091C1
:1028E0003E0410913F042091400430914104BC010A
:1028F000CD01602771278227932706C0BC01CD0137
:10290000682979298A299B290E94931FADC01F70CD
:10291000BB2039F0812F0E94DB1F802F0E947D2277
:10292000A3C0802F0E947222812F0E949D1F9CC0F5
:10293000802F32EF931609F440C0391538F090EF2C
:10294000991661F0E1EF9E1699F170C0F3EF9F16B2
:10295000D9F124EF921609F44EC068C0BB2019F1DA
:1029600034E03A1508F47CC01F7181E090E0A0E0EB
:10297000B0E0AC01BD0104C0440F551F661F771FB6
:102980001A95D2F780913E0490913F04A0914004A3
:10299000B09141048A019B01082719272A273B2768
:1029A000C901B80125C025E02A1508F459C0DCCFBB
:1029B000BB2029F0812F8F712CC0BB20D9F3812F30
:1029C0008F710E949D1F4CC0BB2079F01F7181E068
:1029D00090E0A0E0B0E0BC01CD0104C0660F771F1D
:1029E000881F991F1A95D2F703C060E070E0CB01F1
:1029F0000E94931F35C0BB2079F01F71812F0E9468
:102A0000DB1F38E0139FC0011124836080931604FC
:102A1000812F0E94DB1F24C081E00E94C21F81E041
:102A20008A15F0F482E00E94C21F1AC0BB2039F060
:102A3000AA2009F4BFCF802F0E94102311C0AA2022
:102A400009F4BDCF893349F49FEFE7EEF3E09150ED
:102A5000E040F040E1F700C00000802F0E94872294
:102A600088EF8C0D843010F40E94E307DD20A9F07C
:102A70008091160480FD11C0F7011282859585951D
:102A800085950E94DB1FC7010E94CC0E8091160421
:102A90008595859585950E949D1F85E0F701DE014E
:102AA000119601900D928A95E1F789819A810E9491
:102AB0003A1F9A8100E6809FF001112416E0919F51
:102AC000E00DF11D11248981E80FF11DEE0FFF1FAC
:102AD000E553FD4F85919491CBC008309DE51907D2
:102AE00009F0BCCA42E061E0E7C969E2C1CCEE5935
:102AF000FF4F0C949D2D80914E0680FF33C08E7F3A
:102B000080934E0660914E0670914F06809150065C
:102B1000909151060E94A9090E94170880914D03C7
:102B2000816080934D039FEFE0E7F2E09150E04039
:102B3000F040E1F700C000002A960FB6F894DEBF1F
:102B40000FBECDBFDF91CF911F910F91FF90EF90FE
:102B5000DF90CF90BF90AF909F908F907F906F90BD
:102B60000C941E08816080934E0661E0869549C0F2
:102B700042E55DE06BE57DE02CC04BE55DE062E5A4
:102B80007DE027C04FE85AE068E97AE022C048E9D2
:102B90005AE06FE87AE01DC047E75AE063E87AE060
:102BA00018C043E85AE067E77AE013C04FE55AE0FF
:102BB0006BE67AE00EC04BE65AE06FE57AE009C0BA
:102BC00041EA5AE062EB7AE004C042EB5AE061EA83
:102BD0007AE02A960FB6F894DEBF0FBECDBFDF9124
:102BE000CF911F910F91FF90EF90DF90CF90BF900A
:102BF000AF909F908F907F906F900C94110861E040
:102C000081E02A960FB6F894DEBF0FBECDBFDF91EC
:102C1000CF911F910F91FF90EF90DF90CF90BF90D9
:102C2000AF909F908F907F906F900C94120D64E006
:102C300082E008C06AE085E005C06DE08BE002C07C
:102C400067E18EE02A960FB6F894DEBF0FBECDBFC7
:102C5000DF91CF911F910F91FF90EF90DF90CF9078
:102C6000BF90AF909F908F907F906F900C94650D68
:102C70002A960FB6F894DEBF0FBECDBFDF91CF917D
:102C80001F910F91FF90EF90DF90CF90BF90AF908A
:102C90009F908F907F906F900895CF93DF93CDB7E3
:102CA000DEB7CC54D1090FB6F894DEBF0FBECDBF4E
:102CB00084B7877F84BF0FB6F894A8958091600091
:102CC000886180936000109260000FBE90E080E801
:102CD0000FB6F89480936100909361000FBE85B7A2
:102CE000806885BF85B7806885BF0E941F280E94C5
:102CF000C5288091E20084608093E20078948091FE
:102D000034048823A1F01091E9001F709091EC0029
:102D1000892F817090FD80E8182B1092E900809136
:102D2000E80083FD0E9406251F701093E90082E0F1
:102D300084BD93E095BD9AEF97BD80936E000E948D
:102D4000DB0A8093220180912201882331F01092C6
:102D50000D018CE080930E0105C08CE080930D0185
:102D600010920E010E94DB0A882331F062E070E0CD
:102D700082E191E00E94B32B809122018091220197
:102D8000811102C098E001C090E090932B0388E08D
:102D9000891B80932A03AAEBB2E042EC52E061E087
:102DA00070E08D91E82FE295EF70F0E021A18F7037
:102DB0008B0102C0000F111F8A95E2F7C801902F06
:102DC0009095922391A392A1892B82A34A175B0726
:102DD00041F7AAECB2E040ED52E061E070E08D9185
:102DE000E82FE295EF70F0E021A18F708B0102C017
:102DF000000F111F8A95E2F7C801902F909592233A
:102E000091A392A1892B82A34A175B0741F7EAE1BC
:102E1000F3E08AE293E0A2E3B3E011921D928E17F1
:102E20009F07D9F780E090E00E942F2D8C3E9E4FA7
:102E300011F00E94571E0E94DB0A811106C062E059
:102E400070E082E191E00E94BC2B1092730380E855
:102E5000809342040E946E2A6DE070E08EED95E052
:102E60000E94B124892B09F043C08091730363E071
:102E700070E081FD3AC08BED95E00E94B124892B72
:102E8000B9F56DE070E08BEC95E00E94B124892BE0
:102E900079F50E94C81DDC01CB01805A9541AF4FE6
:102EA000BF4F8093750390937603A0937703B093FD
:102EB0007803E5E4F4E080E092E0DF018C011D920C
:102EC00001501040E1F7F0934C06E0934B068FEF72
:102ED0009FEF909344048093430481E080937A03AE
:102EE000809379031092740303C088ED95E0C5CFF9
:102EF00080E090E00E942F2D8C3E9E4F11F00E94AA
:102F0000571E82E090E00E94212D809389030E9449
:102F1000461E90932D0380932C0383E090E00E9443
:102F2000212D682F70E080E090E00E94FC1F8091CE
:102F30002E0381113BC080E090E00E942F2D8C3E3B
:102F40009E4F21F00E94571E0E94C30A88E090E025
:102F50000E94292D60934E0670934F068093500671
:102F60009093510680914D03836080934D036E7F53
:102F700071F40E94C30A88E090E00E94292D6093BA
:102F80004E0670934F0680935006909351060E9410
:102F90008F090E94170880914E0680FF04C060E0F0
:102FA00086950E94120D81E080932E038AE891E0BD
:102FB0009093300380932F0344244394512C8091A9
:102FC0003404853009F04BC080913404843009F416
:102FD00034C01092310320E488E190E00FB6F894F9
:102FE000A895809360000FBE209360000E94170890
:102FF0008091540681110AC081E08093540680912B
:103000004E068170809353060E94780983B7817FB2
:10301000846083BF83B7816083BF7894889583B7CA
:103020008E7F83BF0FB6F894A89580916000886169
:1030300080936000109260000FBE8091330488235B
:1030400009F4BDCF0E94770D82E493E0E2E3F3E060
:1030500021912111C0C38E179F07D1F7B0CF0E94D5
:10306000770D982E0E94DB0A882309F445C0EAE810
:10307000F3E0A2E3B3E000E010E0302F2D91919156
:103080009227A1F180E0FF24F394492F4F2151F1C1
:1030900022968FAF229723963FAF23972F2181E06F
:1030A00009F480E024968FAF24970E94D41D81609C
:1030B000782F26969FAF8EAF269722964FAD2297F8
:1030C00023965FAD239724966FAD249726968FADF8
:1030D00026970E944707F801E657FC4F8081F826A3
:1030E000F0822AC08F5FFF0C863079F60F5F1F4F8A
:1030F0000031110509F0C1CF8FEF27968FAF2797C9
:1031000028968FAF289729961FAE29970E94D41D25
:103110008160782F2B969FAF8EAF2B9727964FAD60
:10312000279728965FAD289729966FAD29972B96FC
:103130008FAD2B970E94470780914C03882309F499
:103140008BC080914B03E0914E06E695E81BE0931F
:103150004703823059F4F0E0EF50FA4FE4910E2F1C
:1031600010E02CE4E22E29E0F22E21C0853061F43B
:10317000E695F0E0E251FA4FE4910E2F10E093EF64
:10318000E92E98E0F92E13C08B3059F4F0E0E551A8
:10319000FA4FE4910E2F10E08AE6E82E88E0F82E30
:1031A00006C000ED17E0BFE6EB2EB6E0FB2E8091E7
:1031B0004803882389F0109248030E94D41D980187
:1031C00020953095820F931F90934603809345037B
:1031D00010924A031092490380914503909146034F
:1031E0000E94B91D80179107B8F18091440388238C
:1031F000B1F01092440380914203909143030E94E6
:10320000B91D8033954758F00E94D41D9093430315
:103210008093420380914D03886080934D03C0905A
:103220004903D0904A03E0914503F09146030E0F05
:103230001F1F109346030093450385E493E0F701B5
:1032400009958091490390914A03892B29F4CD284F
:1032500019F081E08093440380917A03882309F474
:10326000B1C105E414E010934C0600934B060E9494
:10327000DB0A882309F48DC040914E0330914E063D
:1032800080914F06909150062091510643130CC037
:1032900040914F03481308C040915003491304C0A4
:1032A000409151034217A9F12695269526959695AA
:1032B00096959695869586958695432F469530FDED
:1032C00002C03EE201C03AE21F922F931F929F93E9
:1032D0001F928F931F924F931F923F9380E992E02A
:1032E0009F938F931F9287E18F9383E291E09F9347
:1032F0008F930E94BD2D85E0EEE4F6E0AEE4B3E0EE
:1033000001900D928A95E1F70FB6F894DEBF0FBEDB
:10331000CDBF83E291E00E9459248BE391E00E94AB
:1033200059240E94E30780FD03C028E032E002C078
:1033300022E832E081FD03C048E052E002C046E8E6
:1033400052E082FD03C088E092E002C08BE892E088
:103350009F938F935F934F933F932F938BEA92E0CA
:103360009F938F931F9287E18F9383E591E09F93C3
:103370008F930E94BD2D83E591E00E9459248BE636
:1033800091E00E9459240FB6F894DEBF0FBECDBF66
:103390000DC080E4E5E9F1E0DE01119601900D92A7
:1033A0008A95E1F7CE0101960E94592420914304A9
:1033B000309144042115310509F4E4C0809174036F
:1033C0008111E0C0082F10E07201082E02C0EE0C3F
:1033D000FF1C0A94E2F7A70142235323452B11F463
:1033E0008F5FF0CF909173039801A5E0220F331FF8
:1033F000AA95E1F790FD12C08295880F80768093A0
:103400008501220F232F221F330B31952093880132
:10341000815E809386011092890112C0E5E03695A5
:103420002795EA95E1F7220F220F220F20938501BD
:1034300010928801295F2093860183E0809389019F
:1034400024E630E047E050E063E871E088E70E945E
:10345000FB2A892B09F096C08091730380FD22C05E
:10346000A80175E0440F551F7A95E1F74B5B5B4F60
:1034700004E610E020E230E060E488E70E94222BBE
:10348000892B09F07FC00E94EF07E094F0948091AF
:10349000430490914404E822F922F0924404E0921B
:1034A000430470C080E2E3E5F3E0DF011D928A95FA
:1034B000E9F7A80135E0440F551F3A95E1F7E4ED2F
:1034C000F2E02D96FFAFEEAF2D9700ED12E068ED24
:1034D000A62E62E0B62E2D96AEADBFAD2D978D9186
:1034E0002D96BFAFAEAF2D97F80191918F01BA0124
:1034F000690F711D6B5B7B4F90E08D5A9C4FFC01F7
:1035000027E0822E9F01281B390B242C01C0220C9E
:103510002A95EAF76B01712CD6016D906D0162203E
:10352000282D27192770322E022E000C330BB62DB2
:1035300001C0BB0F3A94EAF73B2E31952195310932
:103540002770332701C066942A95EAF736286080F1
:1035500036283082739428E07212DECF8A94319636
:103560003FEF8312CFCF2D968EAD9FAD2D97A8162E
:10357000B90609F0B0CF04E610E020E230E043E500
:1035800053E07ACF809179038823E1F00E94C81D2F
:1035900000917503109176032091770330917803A1
:1035A000DC01CB01801B910BA20BB30BB7FD0AC052
:1035B00062E070E084EF95E00E94B124892B11F461
:1035C0001092790391100E94EF0786E0E2E8F3E0A1
:1035D000DE01119601900D928A95E1F780918403A6
:1035E000811105C080918503882309F471C0809101
:1035F0008003909181030E94B91DAC0190917F03DB
:1036000021E030E0911102C020E030E024173507BE
:1036100008F05EC09F3F19F09F5F90937F03109268
:1036200086031092870380918403181624F40E9465
:10363000081D809384038091840387FF05C00E9446
:10364000081D81958093840380918503181624F4C6
:103650000E94081D809385038091850387FF05C024
:103660000E94081D81958093850330918403332344
:10367000E1F0209185032223C1F005EB3003C00166
:103680001124992319F09093840303C081E080935F
:10369000840315EB2103C0011124992319F09093A1
:1036A000850303C081E0809385030E94E01D809123
:1036B0007D0390917E03909381038093800386E045
:1036C000FE013196A2E8B3E001900D928A95E1F7F0
:1036D00080918603811105C080918703882309F4B6
:1036E0006EC080917B0390917C030E94B91D9C0168
:1036F00090917F03992309F484C02536310508F49D
:103700005EC09F3F19F09F5F90937F0310928403E8
:103710001092850380918603181624F40E94E61CFB
:10372000809386038091860387FF05C00E94E61C74
:1037300081958093860380918703181624F40E9454
:10374000E61C809387038091870387FF05C00E9452
:10375000E61C819580938703309186033323E1F043
:10376000209187032223C1F045EB3403C0011124CB
:10377000992319F09093860303C081E08093860318
:1037800005EB2003C0011124992319F090938703BE
:1037900003C081E0809387030E94E01D80917D0338
:1037A00090917E0390937C0380937B0386E0FE01DF
:1037B0003196A2E8B3E001900D928A95E1F70E945C
:1037C000E30790918803891709F4F9CB0E94E30776
:1037D00080938803F4CB80E189BD82E189BD09B47F
:1037E00000FEFDCF8091D8008F7D8093D80080911E
:1037F000E00082608093E0008091E00081FDFCCFDA
:10380000DECB2D32314008F07ECFD9CF0895089518
:103810008091290408959C0180913404843001F53D
:1038200082E08093E9009FEF8091E800915085FD50
:1038300006C085ED8A95F1F700009111F5CF8091D2
:10384000E80085FF0DC0C90140E050E066E070E08F
:103850000E94DA248091E8008E778093E800089532
:103860000895CF93DF9320913404243039F521E07B
:103870002093E9002FEF3091E800215035FD06C07C
:1038800035ED3A95F1F700002111F5CF2091E800D0
:1038900025FF14C0EC0140E050E068E070E00E94B9
:1038A000DA248091E8008E778093E80088E0FE01BA
:1038B000AAE2B4E001900D928A95E1F7DF91CF91F1
:1038C0000895803F39F48091850387FF6CC0109282
:1038D000850369C0813F29F4809185031816BCF3E4
:1038E00062C090918403823F29F497FF5CC01092DC
:1038F000840359C0833F19F41916CCF354C0893F8F
:1039000041F48091860318160CF04DC01092860386
:103910004AC08A3F29F48091860387FF44C0F6CFCE
:103920008B3F39F48091870387FF3DC01092870356
:103930003AC08C3F29F4809187031816BCF333C03A
:10394000843F21F4809183038E7F17C0853F21F44B
:10395000809183038D7F11C0863F21F48091830382
:103960008B7F0BC0873F21F480918303877F05C045
:10397000883F31F4809183038F7E8093830313C04B
:103980008D3F21F4809123048E7F0BC08E3F21F464
:10399000809123048D7F05C08F3F29F480912304FB
:1039A0008B7F809323048091840381110EC08091CA
:1039B000850381110AC080918603811106C0809120
:1039C0008703811102C010927F0308958091230420
:1039D00080FD16C081FD16C082FD18C080917F0356
:1039E000882391F0883290F428E0829FC00111244E
:1039F00068E270E00E94892D862F672B29F007C0AE
:103A000082E0089584E0089581E0089588E00895B3
:103A10008091230480FD17C081FD17C082FD19C06D
:103A200080917F03882399F0863998F42CE0829F57
:103A3000C001112466E970E00E94892D862F672B52
:103A400049F481E0089583E0089586E0089584E0D4
:103A500008958CE00895803F21F40E94081D81950F
:103A600004C0813F29F40E94081D809385030895B6
:103A7000823F21F40E94081D819504C0833F29F4F0
:103A80000E94081D809384030895893F19F40E94C1
:103A9000E61C05C08A3F31F40E94E61C81958093A4
:103AA000860308958B3F21F40E94E61C819504C093
:103AB0008C3F29F40E94E61C809387030895843F7D
:103AC00021F480918303816017C0853F21F48091A8
:103AD0008303826011C0863F21F480918303846058
:103AE0000BC0873F21F480918303886005C0883F25
:103AF00031F48091830380618093830308958D3F27
:103B000021F48091230481600BC08E3F21F48091C9
:103B10002304826005C08F3F29F4809123048460D0
:103B200080932304089578941F920F920FB60F92FA
:103B300011248F939F93AF93BF9380911F04909113
:103B40002004A0912104B09122040196A11DB11D71
:103B500080931F0490932004A0932104B093220427
:103B6000BF91AF919F918F910F900FBE0F901F90BB
:103B700018959C014FB7F89480911F0490912004F0
:103B8000A0912104B09122044FBF821B930B089592
:103B90002FB7F89460911F04709120048091210444
:103BA000909122042FBF08952FB7F89480911F049D
:103BB00090912004A0912104B09122042FBF089578
:103BC000E0912F03F0913003309749F082E0809329
:103BD00082030480F581E02D82E893E009950E943C
:103BE000D41D90937E0380937D0308951F920F92BE
:103BF0000FB60F9211248F939F93AF93BF93809131
:103C00003103811113C080911F0490912004A09171
:103C10002104B09122044196A11DB11D80931F047F
:103C200090932004A0932104B0932204BF91AF91FC
:103C30009F918F910F900FBE0F901F9018959C0130
:103C40002A5F3F4FFC014281461301C01282019658
:103C500082179307B9F708959C01FC0132969FEFF4
:103C600080E04191461789F09F3F19F4411101C04E
:103C7000982F8F5F8630A9F79F3F39F0F901E90F40
:103C8000F11D97FDFA95628308950895CF9384E01E
:103C900090E00E94212DC82F81E290E00E94212D0A
:103CA0002C2F30E0A901582BCA01CF9108956CEE5A
:103CB0007EEF80E090E00E94532D60E082E090E093
:103CC0000E94352D60E083E090E00E94352D109237
:103CD0001B0410921C0410921D0410921E0460E03C
:103CE00084E090E00E94352D60E081E290E00E9447
:103CF000352D60E085E090E00E94352D60E086E0A3
:103D000090E00E94352D6FEF87E090E00E94352D06
:103D100040E050E0BA0188E090E00E94472D60E06A
:103D20008DE090E00E94352D40E050E0BA0188E13E
:103D300090E00E94472D60E087E190E00E94352DE1
:103D400040E050E0BA018CE190E00E94472D60E035
:103D500080E290E00E94352D40E050E0BA018FE013
:103D600090E00E94472D40E050E0BA0183E190E0EE
:103D70000C94472D80911A04811110921A04089511
:103D80009091190480911804892B20911704982F81
:103D9000922B90939A0380911A04882389F0892B9F
:103DA00080939A03ECE9F3E097E080E0915029F0EA
:103DB00021912223D9F38F5FF9CF81110E94BA1E7E
:103DC000E0912F03F0913003309731F00280F381BE
:103DD000E02D8AE993E009940895BF92CF92DF9293
:103DE000EF92FF920F931F93CF93DF938C01C090BC
:103DF0003E04D0903F04E0904004F0904104809154
:103E00001B0490911C04A0911D04B0911E04C82AAB
:103E1000D92AEA2AFB2ACFE1D0E0D701C6010C2E2D
:103E200004C0B695A795979587950A94D2F780FD1B
:103E300004C0219790F7B12C07C0BC2EB8018C2F7D
:103E40000E94F80A0197A9F38B2DDF91CF911F9162
:103E50000F91FF90EF90DF90CF90BF900895CF9398
:103E6000DF93EC010E94ED1EBE010E94F80ADF9173
:103E7000CF910895292F220F920F990F890F682F44
:103E8000669566956695982F977085E0689FB00156
:103E9000112440E050E080E0FB01E40FF51FE65202
:103EA000FC4F208130E0092E02C0369527950A94F8
:103EB000E2F721703327042E01C0220F0A94EAF79B
:103EC000822B4F5F5F4F4530510531F70895292F01
:103ED000220F920F990F890FE82FE695E695E69548
:103EE000877051E001C0550F8A95EAF785E0E89F99
:103EF000F0011124E652FC4F20E030E070E04081F8
:103F0000CB01022E02C0969587950A94E2F7817044
:103F1000819584278523842781932F5F3F4F253008
:103F2000310569F7089560933E0470933F048093D0
:103F30004004909341040C9454220F931F9341E04A
:103F400050E060E070E004C0440F551F661F771F0B
:103F50008A95D2F7409550956095709580913E0472
:103F600090913F04A0914004B09141048A019B01CB
:103F7000082319232A233B23C901B8011F910F915C
:103F80000C94931F2091160480958223809316042D
:103F9000982F977079F430E0482F082E000C550BBD
:103FA0002417350739F08595859585950E949D1FC5
:103FB0001092160408950F931F9341E050E060E0C3
:103FC00070E004C0440F551F661F771F8A95D2F713
:103FD00080913E0490913F04A0914004B09141042F
:103FE0008A019B01082B192B2A2B3B2BC901B801F5
:103FF0001F910F910C94931F60931B0470931C04EA
:1040000080931D0490931E040C9454228091D90334
:104010009091A803891719F08F5F8770FBCF0895DF
:104020000F931F93CF93DF938091A70382958F7097
:1040300009F05DC08091A403882309F458C08091E1
:10404000D9031091A8036091A2037091A303C091BA
:10405000A503D091A60391E06F3F09F090E0292FCE
:1040600006E0811709F443C0209721F07F3F21F03B
:1040700030E003C031E001C0322F90E030FD34C0A9
:10408000089FF001099FF00D1124DF01A755BC4FD7
:1040900011963C911197371327C03C91361324C0D9
:1040A00012963C91129731111FC013964D915C915D
:1040B00014974C1B5D0B413E5105B0F48091A70352
:1040C0008F7080618093A703E255FC4F80818F70D1
:1040D0008061808382EA93E00E94CC0EDF91CF91D1
:1040E0001F910F910C94062001968770BACFDF9133
:1040F000CF911F910F9108950E942F1F292F2F708C
:10410000E92FE295EF704E2F50E0FA013297EE3032
:10411000F105B8F4EA58FF4F0C949D2D803F99F0BB
:1041200018F4883E70F40FC0843F59F40CC0883EE8
:1041300050F0813F31F407C0822F86958695869591
:10414000089580E0089581E008959F92AF92BF9214
:10415000CF92DF92EF92FF920F931F93CF93DF9353
:10416000CDB7DEB761970FB6F894DEBF0FBECDBFF7
:104170008C0185E0F801DE011D9601900D928A9573
:10418000E1F7F80190818181E2803091A203609192
:10419000A3034091A5035091A6034115510531F0A9
:1041A0006F3F31F421E03F3F19F403C021E001C02B
:1041B00020E0F22FF1709F2E20FD23C1F801C38073
:1041C000D48022EAA22E23E0B22EF090A403F601BE
:1041D000E41BF50BFF2009F4CEC02091A703E13EBC
:1041E000F10508F099C0422F407F09F051C06813D3
:1041F00011C039130FC0FE2CE1100CC02F702061CC
:104200002093A703C5010E94CC0E8091A703F8015B
:10421000858337C1CD2831F08F3F31F421E09F3FB6
:1042200019F403C021E001C020E020FD03C021E01B
:104230002E2502C020E030E0F22FF170FF2E20FF8B
:104240001DC02091D9034091A80356E0241709F41A
:10425000F6C030E0529FF001539FF00D1124E75556
:10426000FC4F6181861306C06081961303C0628192
:10427000E61204C02F5F3F4F2770E8CFFE2CEE20E0
:1042800009F4FFC08091A70381608093A70350C009
:10429000681307C0391305C0E11003C0F801258376
:1042A0008DC09D878E878D859E850E947C2088236A
:1042B00069F1EE2059F12091A703822F82958F702A
:1042C00090E0029774F08091A2039091A3039887E5
:1042D0008F831986DB86CA862C87CE0107960E94BB
:1042E000CC0E86E0F801A2EAB3E001900D928A9527
:1042F000E1F70E9410200DC06817E1F09D878E87BE
:104300008D859E850E947C2081111EC0C8010E945F
:10431000CC0EFF24F394B5C0422F407F69F782EAA8
:1043200093E00E94CC0E86E0F50111928A95E9F7A0
:10433000F12CA7C03913E2CFE110E0CFF8012583BB
:10434000C8010E94CC0E57C0EE2001F32091A703B4
:10435000822F82958F7090E002971CF28091A203C9
:104360009091A3039A8389831B82DD82CC822E8362
:10437000CE010196B4CFE13EF105E8F5FE2CEE202A
:1043800029F2681327C0391325C02091A70320FD07
:1043900018C0822F82958F70482F50E0411551052B
:1043A00081F0F80125834F30510541F08F5F982F40
:1043B0009295907F822F8F70892B8583C8010E94F0
:1043C000CC0E86E0F801A2EAB3E001900D928A9546
:1043D000E1F757C09D878E878D859E850E947C2042
:1043E00081117FCF8091A70381608093A703C801CB
:1043F0000E94CC0E46C086E0F50111928A95E9F73D
:1044000040C0EE2009F482CF9D878E878D859E85E2
:104410000E947C20F82E882309F478CF86E0F801EA
:10442000A2EAB3E001900D928A95E1F78091A20390
:104430009091A3030E942F1F0E94102022C09D87ED
:104440008E878D859E850E942F1F292F22952F7084
:10445000223028F49F7039F0811105C00BC0243040
:1044600028F49F7049F4805E883020F0C8010E94D3
:10447000CC0E9F2CF92C05C0F8019581907F99F7FF
:10448000F9CF8F2D61960FB6F894DEBF0FBECDBF6A
:10449000DF91CF911F910F91FF90EF90DF90CF9020
:1044A000BF90AF909F900895109218041092170437
:1044B0000E94C01EE2E8F3E086E0DF011D928A95CB
:1044C000E9F710927F03109223040C94E01D1092E0
:1044D000190486E0ECE9F3E0DF011D928A95E9F723
:1044E0000C945422882341F08095909119048923DB
:1044F000809319040C94C01E0895882339F090917C
:104500001904892B809319040C94C01E08958823E4
:1045100009F485C0823869F40E94E30781FF7FC0F7
:1045200069E38AE993E00E942C1E0E94C01E69E3A1
:104530000EC0833891F40E94E30780FF70C063E5EA
:104540008AE993E00E942C1E0E94C01E63E58AE95E
:1045500093E00E941F1E0C94C01E843869F40E94D0
:10456000E30782FF5CC067E48AE993E00E942C1EA7
:104570000E94C01E67E4EBCF9CEF980F913A10F4B5
:10458000682FE5CF90E2980F983088F4877021E08B
:1045900030E0A90102C0440F551F8A95E2F7CA0115
:1045A000809590911904892380931904D4CF9BE5B9
:1045B000980F9330A0F48091240490912504892BC6
:1045C00071F11092250410922404E0912F03F091D0
:1045D0003003309721F10680F781E02D17C098E570
:1045E000980F9731B0F48091260490912704892B7D
:1045F000B1F01092270410922604E0912F03F0915D
:104600003003309761F00084F185E02D80E090E088
:104610000994803F20F00E94611C0C94E01D0895D5
:10462000CF93882309F484C0C82F8238B1F40E9444
:10463000E30781FD7DC069E38AE993E00E942C1EB7
:104640000E94C01E2FEF81EE94E0215080409040E8
:10465000E1F700C0000069E317C08338E1F40E946D
:10466000E30780FD65C063E58AE993E00E942C1EA4
:104670000E94C01E2FEF81EE94E0215080409040B8
:10468000E1F700C0000063E58AE993E00E941F1E85
:10469000CF910C94C01E8438B1F40E94E30782FDD0
:1046A00047C067E48AE993E00E942C1E0E94C01E66
:1046B0002FEF81EE94E0215080409040E1F700C060
:1046C000000067E4E1CF8CEF8C0F813A80F4ECE9D5
:1046D000F3E082EA93E02191C21711F18E179F0750
:1046E000D1F76C2F8AE993E00E942C1ED1CF80E293
:1046F0008C0F883068F4C77081E090E001C0880FAB
:10470000CA95EAF790911904892B80931904C0CFB8
:10471000C03F70F08C2F0E942B1DCF910C94E01D98
:104720006C2F8AE993E00E941F1E0E94C01ED9CF01
:10473000CF910895CF93C82F0E941023C93349F415
:104740002FEF87EE93E0215080409040E1F700C0CA
:1047500000008C2FCF910C948722CF93DF93C091D0
:104760004B06D0914C068A30B1F420914204CE0120
:1047700085549440622F70E00E94752D281B822F73
:1047800066E00E94692DC82FC15008F48FC080E2F6
:104790000E94AD23F9CF8D30E9F4C554D440209167
:1047A0004204622F70E0CE010E94752D281B822FDB
:1047B0009E01280F311D2115324018F080E0C0E025
:1047C000D0E0C80FD11DCB5BDB4FD0934C06C0931C
:1047D0004B066CC096E0FE01A5E4B6E001900D9298
:1047E0009A95E1F7803E30F086E0FE0111928A95BD
:1047F000E9F70BC0F6E08F9FB0011124645F784F9A
:1048000046E050E0CE010E94182DC0914B06D09199
:104810004C0646E050E0BE0185E496E00E94B02DD3
:10482000892B49F19E0125543440A90185E0569514
:1048300047958A95E1F781E090E0BC0102C0660FE0
:10484000771F4A95E2F74091430450914404462B68
:10485000572B2A5F3F4F65E0369527956A95E1F71C
:1048600002C0880F991F2A95E2F7842B952B90930D
:104870004404809343049E012F53344040914204EA
:10488000642F70E0C9010E94752D481B463010F45A
:10489000240F311D211582E0380710F020E030E0B0
:1048A0002B5B3B4F30934C0620934B06DF91CF910F
:1048B00008950F931F93CF93DF93EC01FC010190B8
:1048C0000020E9F78F0101501109C017D10720F42A
:1048D00089910E94AD23F9CFDF91CF911F910F9164
:1048E0000895CF93DF93C62FD42F882321F0862FEE
:1048F0000E94DB1F03C0862F0E949D1F41E050E0F5
:1049000060E070E0DB01CA0104C0880F991FAA1F94
:10491000BB1FDA95D2F704C0440F551F661F771FDF
:10492000CA95D2F7842B952BA62BB72B40913E042A
:1049300050913F04609140047091410448235923F1
:104940006A237B2384179507A607B70729F483E01A
:10495000DF91CF910C94DB1F83E0DF91CF910C941A
:104960009D1FEF92FF920F931F93CF93DF93EC0164
:104970007B0164E670E088E70E94742A8C01EC0EEB
:10498000FD1ECE15DF0561F017FD0AC0FE01849102
:1049900064E670E00E94CB2A8C012196892B89F372
:1049A0000E944F2BC801DF91CF911F910F91FF9073
:1049B000EF900895EF92FF920F931F93CF93DF93A1
:1049C0007C018B010E943E28811119C0E70101156D
:1049D0001105A1F08091E80085FD0AC08091E800F2
:1049E0008E778093E8000E943E28882381F307C0D9
:1049F00089918093F10001501109E9CF80E0DF91A6
:104A0000CF911F910F91FF90EF9008951F93CF9337
:104A1000DF93CDB7DEB7AA970FB6F894DEBF0FBE0F
:104A2000CDBFE6E3F4E08091F100819324E0EE3322
:104A3000F207C9F780913704833009F460C030F47D
:104A4000813071F0823009F49AC0B1C08A3009F423
:104A500086C08B3009F46BC0893009F0A8C020C033
:104A600080913604813A09F0A2C08091E800877FE6
:104A70008093E80080913A0490913B04892B21F4C3
:104A800068E08AE294E003C060E080E090E070E0DB
:104A90000E94102A8091E8008B778093E80087C0FD
:104AA00080913604813209F082C080913A0490915D
:104AB0003B04029708F07BC08091E800877F8093D9
:104AC000E8008091E80082FD05C0809134048111E6
:104AD000F8CF6DC02091F3008091F20090E0922B0E
:104AE000029729F48091F1008B7F813021F480912D
:104AF000F100809329048091E8008B7754C0809165
:104B00003604813A09F053C080913A0490913B04F5
:104B1000892B09F04CC08091E800877F8093E800E2
:104B20008091E80080FFFCCF8091940137C0809194
:104B300036048132E1F580913A0490913B04892B4F
:104B4000B1F58091E800877F8093E8000E9471288A
:104B500080913804809394010E94672228C080913C
:104B60003604813221F58091E800877F8093E80048
:104B70000E947128809139048093280418C0809184
:104B80003604813AA1F48091E800877F8093E800A1
:104B90008091E80080FFFCCF809128048093F10091
:104BA0008091E8008E778093E8000E9471288091C0
:104BB000E80083FFD8C18091360490913704492FD3
:104BC00050E04A30510508F0CEC1FA01EC57FF4FD2
:104BD0000C949D2D803821F0823809F0C4C108C0A2
:104BE0008091320490913304992389F082600FC040
:104BF00080913A048F70873008F0B5C18093E90046
:104C00008091EB0085FB882780F91092E900909154
:104C1000E800977F9093E8008093F1001092F100F4
:104C200071C1282F2D7F09F09EC1882319F0823091
:104C300061F099C180913804813009F094C19330BA
:104C400009F080E0809333042EC0809138048111F4
:104C50002AC080913A048F702FEF280F263008F079
:104C600082C18093E9002091EB0020FF1CC09330AB
:104C700021F48091EB00806214C09091EB00906170
:104C80009093EB0021E030E0A90102C0440F551FD2
:104C90008A95E2F74093EA001092EA008091EB00D7
:104CA00088608093EB001092E9008091E800877F94
:104CB0002CC1811158C1109138041F778091E300F5
:104CC0008078812B8093E3008091E800877F809338
:104CD000E8000E9471288091E80080FFFCCF80915D
:104CE000E30080688093E300111102C082E001C0FC
:104CF00083E08093340437C18058823008F033C198
:104D000080913804909139048C3D53E0950779F5F2
:104D100083E08A838AE289834FB7F894DE01139691
:104D200020E03EE051E2E32FF0E050935700E491A1
:104D300020FF03C0E295EF703F5FEF708E2F90E091
:104D4000EA3010F0C79601C0C0968D939D932F5FF7
:104D5000243149F74FBF8091E800877F8093E800B6
:104D60006AE270E0CE0101960E94102ABAC040911A
:104D70003A0450913B04292F332723303105B1F0F9
:104D800068F42130310509F4FDC02230310509F005
:104D9000EAC08BE390E0E5E8F6E050C0213231054F
:104DA00081F12232310509F439C0DDC09927813003
:104DB0009105B9F070F082309105D9F0039709F0B0
:104DC000D2C0E2EDF6E0E4918E2F90E0E2EDF6E065
:104DD00032C0E8E0F7E0E4918E2F90E0E8E0F7E001
:104DE0002AC0E4EFF6E0E4918E2F90E0E4EFF6E0E5
:104DF00022C0E8EDF6E0E4918E2F90E0E8EDF6E0D9
:104E00001AC04115510509F4C2C04130510509F0DD
:104E1000AAC089E090E0E0EBF6E010C04115510532
:104E200009F4BAC04130510509F09DC08FE490E00B
:104E3000E6EFF5E003C0009709F495C02091E80083
:104E4000277F2093E80020913C0430913D04821795
:104E5000930708F49C0140E02115310589F1809108
:104E60003404882309F43DC08530D9F18091E800ED
:104E700083FD37C08091E80082FD2FC08091E8005B
:104E800080FFEACF4091F3008091F20090E0942BF4
:104E90002115310559F08830910540F44491409333
:104EA000F1003196215031090196F2CF41E0089787
:104EB00009F040E08091E8008E778093E800CCCF45
:104EC0004111CDCF0AC080913404882351F0853040
:104ED00041F08091E80083FD04C08091E80082FFEA
:104EE000F2CF8091E8008B778093E8003CC0803857
:104EF000D1F58091E800877F8093E80080913504A8
:104F00008093F1008091E8008E778093E8000E9402
:104F1000712829C0811127C08091380490913904EB
:104F20009927029704F58091E800877F8093E80035
:104F300010913804109335040E947128111106C095
:104F40008091E30087FD02C081E001C084E080938E
:104F5000340442E061EC81E00E94902842E261EC7E
:104F600082E00E9490288091E80083FF1AC080911F
:104F7000E800877F8093E8008091EB008062809357
:104F8000EB000FC082E190E0E0ECF6E057CF89E063
:104F900090E0E7E9F6E052CF80E490E0E5E4F6E067
:104FA0004DCFAA960FB6F894DEBF0FBECDBFDF91EE
:104FB000CF911F9108951F920F920FB60F92112457
:104FC0002F933F934F935F936F937F938F939F9311
:104FD000AF93BF93CF93DF93EF93FF93C091E9001B
:104FE000CF708091EC00D82FD17080FDD0E8109266
:104FF000E9008091F000877F8093F00078940E9410
:1050000006251092E9008091F00088608093F000FE
:10501000CD2BCF70C093E900FF91EF91DF91CF913D
:10502000BF91AF919F918F917F916F915F914F91C0
:105030003F912F910F900FBE0F901F901895E8EDA4
:10504000F0E080818E7F80831092E2001092DA007F
:105050001092E100A0EEB0E08C9181608C93808191
:105060008F77808319BCA7EDB0E08C918E7F8C93F5
:1050700080818F7E808310924D0608952091E400F8
:105080003091E50095E64091EC00842F817040FF5F
:1050900023C08091E80080FD1DC0809134048823E6
:1050A00099F0853099F08091EB0085FD11C0409119
:1050B000E4005091E5002417350729F3915011F0D1
:1050C0009A01E1CF84E0089582E0089583E0089595
:1050D00081E0089580E008954091E80042FFDDCF2F
:1050E00008958091360487FF11C08091E80082FD09
:1050F00005C0809134048111F8CF11C08091E8007F
:105100008B770BC080913404882349F08091E800AC
:1051100080FFF8CF8091E8008E778093E8000895B3
:10512000982F973068F59093E900981739F07091AF
:10513000EC002091ED005091F00003C0242F762F59
:1051400050E021FD02C09F5FECCF3091EB003E7F2D
:105150003093EB003091ED003D7F3093ED003091C6
:10516000EB0031603093EB007093EC002093ED0086
:105170005093F0002091EE0027FDE5CF80E00895E8
:105180008F708093E90081E00895CF92DF92EF92D3
:10519000FF920F931F93CF93DF93C8EDD0E08881E8
:1051A0008F7E8883E7EDF0E080818160808384E0FA
:1051B00082BF81E080934D0688818E7F888302EED6
:1051C00010E0F80110821092DA0081EEC82ED12C86
:1051D000F601108288818F77888388818068888330
:1051E00088818F7D888319BC109234041092350415
:1051F000109233041092320490EEE92EF12CF70154
:1052000080818B7F808388818160888342E060E039
:1052100080E00E949028F60180818E7F8083F801D3
:10522000808181608083808188608083F7018081B4
:105230008E7F8083888180618883DF91CF911F91E9
:105240000F91FF90EF90DF90CF9008951F920F92F3
:105250000FB60F9211242F933F934F935F936F9349
:105260007F938F939F93AF93BF93EF93FF9380911F
:10527000E10082FF09C08091E20082FF05C08091B9
:10528000E1008B7F8093E1008091DA0080FF2AC0EB
:105290008091D80080FF26C08091DA008E7F8093B5
:1052A000DA008091D90080FF18C080E189BD82E1D9
:1052B00089BD09B400FEFDCF81E080933404809164
:1052C0004D0681110FC00E941F280E94C5288091A1
:1052D000E20084608093E20005C019BC109234049F
:1052E00010924D068091E10080FF17C08091E2008E
:1052F00080FF13C08091E2008E7F8093E200809156
:10530000E20080618093E2008091D8008062809307
:10531000D80019BC85E0809334048091E10084FFBB
:1053200043C08091E20084FF3FC080E189BD82E1FB
:1053300089BD09B400FEFDCF8091D8008F7D809398
:10534000D8008091E1008F7E8093E1008091E2009F
:105350008F7E8093E2008091E20081608093E20082
:1053600080913504882311F084E007C08091E30028
:1053700087FD02C081E001C083E0809334040E9475
:1053800067220E94E30710925406809153068823F7
:1053900049F080914E06816080934E0660E08695CC
:1053A0000E94120D0E94F70C8091E10083FF27C03C
:1053B0008091E20083FF23C08091E100877F80938A
:1053C000E10082E080933404109235048091E10082
:1053D0008E7F8093E1008091E2008E7F8093E200D7
:1053E0008091E20080618093E20042E060E080E032
:1053F0000E9490288091F00088608093F000FF91D7
:10540000EF91BF91AF919F918F917F916F915F913C
:105410004F913F912F910F900FBE0F901F901895B5
:1054200020913C0430913D042617370748F0611560
:10543000710539F42091E8002E772093E80001C02F
:10544000B901FC0120E06115710579F18091340406
:105450008823F1F18530F1F18091E80083FD3CC0B3
:105460008091E80082FD2EC08091E80080FFEBCFA4
:105470002091F3008091F20090E0922B611571056C
:1054800051F08830910538F421912093F10061505A
:1054900071090196F3CF21E0089709F020E080918F
:1054A000E8008E778093E800CECF2111CFCF0AC0DD
:1054B00080913404882361F0853061F08091E800A8
:1054C00083FD0AC08091E80082FFF2CF80E008955A
:1054D00082E0089583E0089581E008951092B90074
:1054E0008CE08093B8000895EF92FF920F931F9382
:1054F000CF93DF93182FEB011092BC0084EA8093C6
:10550000BC000E94D41D7C018091BC0087FD0EC0B0
:10551000CF3F8FEFD807C1F30E94D41D8E199F098A
:105520008C179D0788F38EEF9FEF2EC08091B900F6
:10553000887F883041F08091B900887F803119F0F0
:105540008FEF9FEF21C01093BB0084E88093BC00D5
:105550000E94D41D8C018091BC0087FD0CC0CF3F00
:105560008FEFD807C1F30E94D41D801B910B8C17BD
:105570009D0788F3D8CF8091B900887F883111F0DA
:105580008034F1F680E090E0DF91CF911F910F9190
:10559000FF90EF9008950F931F93CF93DF93EB014C
:1055A0008093BB0084E88093BC000E94D41D8C01D2
:1055B0008091BC0087FD0EC0CF3F8FEFD807C1F3AD
:1055C0000E94D41D801B910B8C179D0788F38EEFD2
:1055D0009FEF0CC02091B900287F81E090E0283235
:1055E00011F480E090E0919581959109DF91CF9140
:1055F0001F910F910895CF92DF92EF92FF920F9338
:105600001F93CF93DF936B018A017901B9010E9447
:10561000742AE6010C0D1D1DC017D10761F424E9A1
:105620002093BC00DF91CF911F910F91FF90EF90DD
:10563000DF90CF90089597FDF2CFB70189910E9436
:10564000CB2AEACFCF92DF92EF92FF920F931F9374
:10565000CF93DF93C62F6A017901B8010E94742AA3
:1056600097FD11C0B8018C2F0E94CB2AE601EC0CEB
:10567000FD1CCE15DF0539F097FD05C0B8018991F5
:105680000E94CB2AF6CF24E92093BC00DF91CF9172
:105690001F910F91FF90EF90DF90CF90089584E9D4
:1056A0008093BC0008958EE14A9B02C08150E1F7CF
:1056B0004A9BFECF08955A9880E28A95F1F75A9A4C
:1056C0000895FC012AE02A95F1F790E020E080E0BF
:1056D00031E0261779F040E14A95F1F7880F4A9BAF
:1056E00002C08160932700C0000040E14A95F1F7B5
:1056F0002F5FEFCF20E12A95F1F729B100C000001C
:1057000030E13A95F1F722FB222720F992272081F8
:10571000920F90830895EF92FF920F931F93CF9370
:10572000DF931F92CDB7DEB719828C017C01E60EA4
:10573000F11C0E151F0559F00E94532B68E0CE0195
:1057400001960E94612BF80181938F01F2CF81E0D5
:105750009981911180E00F90DF91CF911F910F916E
:10576000FF90EF90089590935706809356066093AC
:105770005506529A5A9A0895909357068093560662
:105780006093550652985A9AEA9AE9E6F0E08081C9
:105790008F7C80830895615091E001C0990F6A95D4
:1057A000EAF720E031E0992361F0492F482319F00E
:1057B0005A9A232701C05A9840E24A95F1F79695E4
:1057C000F2CF222311F05A9A01C05A9880E28A95AA
:1057D000F1F75A980895FF920F931F93CF93DF9399
:1057E000EC018C01060F111DC017D10741F0F99093
:1057F0000E945B2B68E08F2D0E94CB2BF5CFDF91B1
:10580000CF911F910F91FF9008951F920F920FB6A5
:105810000F9211240F931F932F933F934F935F93F6
:105820006F937F938F939F93AF93BF93EF93FF9368
:10583000CF93DF931F92CDB7DEB719820E94532B0F
:1058400067E0CE0101960E94612B382F3695369580
:105850003695932F96959570232F2570920F292FAB
:105860002370969596958770920F891348C0898109
:10587000811145C080915506831708F440C080E12E
:105880008A95F1F75A9A529AA2E0AA95F1F700C0C8
:105890000091560610915706B8E03B9F000D111D70
:1058A00011245A98F8016581662321F08681978139
:1058B0000E94EB2B0E945B2BF0E1FA95F1F75A98CE
:1058C00052985A9A80E18A95F1F7D80112966C9114
:1058D0001297662369F013968D919C9114970E94FC
:1058E0008B2BD801ED91FC91811105C082E004C0A1
:1058F000D801ED91FC9188E080830E94532B0F909A
:10590000DF91CF91FF91EF91BF91AF919F918F91D7
:105910007F916F915F914F913F912F911F910F91C7
:105920000F900FBE0F901F9018950F931F93CF935A
:10593000DF932091550630E0281739070CF471C029
:105940009C0193E0220F331F9A95E1F7C091560610
:10595000D0915706C20FD31FF894529A5A9845E037
:105960004A95F1F70000982F969595708570890FEC
:10597000982F937086958695890F8901082B0E9430
:105980005B2B84E08A95F1F700C067E0802F0E94CE
:10599000CB2B40E14A95F1F752985A9A4A9902C0A6
:1059A00000C0FCCF87E090E04A9B0EC0019751F405
:1059B000529A5A9AE881F98181E08083789481E053
:1059C00090E031C000C0F0CF6D81662381F08E8100
:1059D0009F810E948B2B81110AC0529A5A9AE881AA
:1059E000F98182E08083789482E090E01CC00E947C
:1059F000532B80E28A95F1F75A98529A40E14A95E2
:105A0000F1F76A81662321F08B819C810E94EB2B48
:105A10000E945B2BE881F9811082789480E090E00D
:105A200002C084E090E0DF91CF911F910F91089523
:105A3000FB01DC0102C005900D9241505040D8F7A7
:105A40000895F999FECF92BD81BDF89A992780B546
:105A50000895A6E1B0E044E050E00C945B2DA8E18D
:105A6000B0E042E050E00C945B2D262FF999FECF78
:105A700092BD81BDF89A019700B4021639F01FBAA1
:105A800020BD0FB6F894FA9AF99A0FBE08950396BE
:105A9000272F0E94362D0E94352D252F0E94362D4E
:105AA000242F0C94362D0196272F0E94362D0C940E
:105AB000352DDC01CB01FC01F999FECF06C0F2BD0A
:105AC000E1BDF89A319600B40D9241505040B8F7BC
:105AD0000895991B79E004C0991F961708F0961B4A
:105AE000881F7A95C9F780950895AA1BBB1B51E1C1
:105AF00007C0AA1FBB1FA617B70710F0A61BB70B3E
:105B0000881F991F5A95A9F780959095BC01CD01E2
:105B1000089597FB072E16F4009407D077FD09D05F
:105B20000E94752D07FC05D03EF4909581959F4FFE
:105B30000895709561957F4F0895EE0FFF1F0590B2
:105B4000F491E02D0994FC014150504030F0019057
:105B50000616D1F73197CF01089588279927089520
:105B6000FB01DC0104C08D910190801921F44150AA
:105B70005040C8F7881B990B0895AEE0B0E0E3EC05
:105B8000FDE20C948C300D891E898F89988D26E05A
:105B90002C831A83098397FF02C080E090E8019765
:105BA0009E838D83AE01455E5F4F698D7A8DCE01F8
:105BB00001960E94ED2D4D815E8157FD0AC02F8117
:105BC0003885421753070CF49A01F801E20FF31FCE
:105BD00010822E96E4E00C94A830ABE0B0E0E3EF46
:105BE000FDE20C947E306C017B018A01FC0117827E
:105BF0001682838181FFCCC1CE0101963C01F60162
:105C00009381F70193FD859193FF81917F01882313
:105C100009F4BAC1853239F493FD859193FF8191DE
:105C20007F01853229F4B60190E00E94E42FE7CF8E
:105C3000912C212C312CFFE1F315D8F08B3279F027
:105C400038F4803279F08332A1F4232D20611DC015
:105C50008D3261F0803369F4232D216016C0832DCD
:105C60008260382EE32DE4603E2E2AC0F32DF860CA
:105C70001DC037FC2DC020ED280F2A3040F08E3299
:105C8000B9F436FC81C1232D2064322E19C036FEB2
:105C900006C08AE0989E200D1124922E11C0EAE0E1
:105CA0002E9E200D1124222EF32DF0623F2E08C0CF
:105CB0008C3621F4832D8068382E02C0883641F45A
:105CC000F70193FD859193FF81917F018111B3CFFE
