:100000000C94F6060C943D070C943D070C94D22CEE
:100010000C943D070C943D070C943D070C943D0750
:100020000C943D070C943D070C94F3290C94A828DC
:100030000C94C31E0C943D070C943D070C943D0793
:100040000C943D070C943D070C943D070C943D0720
:100050000C943D070C94601E0C943D070C943D07D6
:100060000C943D070C943D070C943D070C943D0700
:100070000C943D070C943D070C943D070C943D07F0
:100080000C943D070C943D070C943D070C943D07E0
:100090000C943D070C943D070C943D070C943D07D0
:1000A0000C943D070C943D070C943D072F1038101D
:1000B000291044102C100F114B10F910BB13BB1357
:1000C000F513F51301163814011601167A14581594
:1000D0006915691508113810291044102C100F11DA
:1000E0004B10F910491686168B16901695169A160F
:1000F0009F16A416A916AE16B316CD160617E5164A
:10010000E8160617EB160617EE1606175B215B219D
:100110006E216E2164216E216E216E215B215B2197
:1001200069216E216E216921B726DE268028DE2610
:1001300080282627492780284428572800010101C4
:100140000101010101010202020202020202020394
:100150000303030303030304040404040404050564
:100160000505050606060606070707070708080827
:1001700008090909090A0A0A0B0B0B0C0C0C0D0DD6
:100180000D0E0E0E0F0F0F1010111111121213136E
:100190001414151516161717181819191A1A1B1BE7
:1001A0001C1D1D1E1E1F2020212222232424252643
:1001B00026272829292A2B2C2D2D2E2F303132327B
:1001C000333435363738393A3B3C3D3E3F40414287
:1001D000434445464748494A4C4D4E4F505153546D
:1001E000555658595A5B5D5E5F6162646566686921
:1001F0006B6C6D6F7072737577787A7B7D7E8082A1
:10020000838587888A8C8E8F91939596989A9C9EE9
:10021000A0A2A3A5A7A9ABADAFB1B3B5B7BABCBEF9
:10022000C0C2C4C6C9CBCDCFD1D4D6D8DBDDDFE2C6
:10023000E4E7E9EBEEF0F3F5F8FAFDFFFFAA7F55EE
:100240004000AF00000000000000000000000000BF
:10025000000000000000007E0F00D4FFFFFFC70079
:1002600000007800000000000000002A2B28000099
:100270000000000000000000000000000000290055
:100280000000002C1E3420212224342627252E365F
:100290002D3738271E1F20212223242526333336CD
:1002A0002E37381F0405060708090A0B0C0D0E0F20
:1002B000101112131415161718191A1B1C1D2F31A3
:1002C00030232D350405060708090A0B0C0D0E0F07
:1002D000101112131415161718191A1B1C1D2F3183
:1002E00030354C0102E2600103E2002A00130012E3
:1002F000000C0018001C00280033000F000E000D39
:10030000000B005200380037003600100011004C7E
:10031000004F005100500065640C5D170015000887
:10032000001A00140029000A000900070016000442
:10033000002B620500190006001B001D00E1002CC7
:10034000002A000A5DE300E200E0005F0060006157
:10035000005400530000005C005D005E0055002B5F
:1003600000000059005A005B005600580000000AC7
:100370005D6200630057002A0000000000000000DA
:10038000000000000000000000000000000000006D
:10039000000000000000000000000000000000005D
:1003A00000000000000000000000002D00130012FB
:1003B000000C0018001C00280033000F000E000D78
:1003C000000B005200380037003600100011004CBE
:1003D000004F005100500065640C5D1700150008C7
:1003E000001A00140029000A000900070016000482
:1003F000002B620500190006001B001D00E1002C07
:10040000002A000A5DE300E200E00014001A000880
:100410000015001700000004001600070009000A7C
:100420000000001D621B00060019000500000029E5
:10043000612B64E3000B5D2A000000000000000057
:1004400000000000000000000000000000000000AC
:10045000000000000000000000000000000000009C
:1004600000000000000000000000004C0030002FE1
:100470000089002E002D00010031003400330000FF
:100480000000004B008700380037003600000001F4
:10049000004D004E004A00000001003E003D003CBF
:1004A000003B003A00010043004200410040003F91
:1004B00000010028000E5D095D45004400010001B7
:1004C000004C0001000100010001000400050006CD
:1004D00000890020020000070008000900220287AE
:1004E0000200002502260230003400010000000155
:1004F00000000036002D024C00000000000000004B
:1005000000000000000000000000000000000000EB
:1005100000000000000000000000000000000000DB
:1005200000000000000000000000004C0030002F20
:100530000089002E002D000100310034003300003E
:100540000000004B00870038003700360000000133
:10055000004D004E004A00000001003E003D003CFE
:10056000003B003A00010043004200410040003FD0
:1005700000010028000E5D085D45004400010001F7
:10058000004C0001000100010001003A003B003C6A
:10059000003D003E0000003F00400041004200439B
:1005A00000000044624500085D0E5D280000000167
:1005B000000100010001004C0000000000000000EC
:1005C000000000000000000000000000000000002B
:1005D000000000000000000000000000000000001B
:1005E00000000000000000000000000000270026BE
:1005F00000250024002300010034002300220021F4
:100600000000000000870020001F001E0000000105
:1006100000380036003700270001002200210020AA
:10062000001F001E0001000000000000000000008C
:1006300000010000000000000000000000010001B7
:1006400000010001000100010001000000000000A5
:10065000000000000000000000000000000000009A
:10066000000000000000000000000000000000008A
:10067000000000000000000000000000000000007A
:10068000000000000000000000000000000000006A
:10069000000000000000000000000000000000005A
:1006A000000000000000000000000000004B004AB5
:1006B00000F900FB00000000004E004D00FA00FCB5
:1006C000000000F0000000F500F400000000000150
:1006D00000F300F100F2000000010000000A5C13CA
:1006E0005C0F5D005C00000000C95CC75CC55CC2BB
:1006F0005C00000000CA5CC85CC65CC35C01000012
:1007000000000001000100010001000000000000E5
:1007100000000000000000000000000000000000D9
:1007200000000000000000000000000000000000C9
:1007300000000000000000000000000000000000B9
:1007400000000000000000000000000000000000A9
:100750000000000000000000000000000000000099
:10076000000000000000000000000000DA02818F9D
:10077000D9F1DB40A4A62EAF00A0C000A1C800AEF6
:10078000D580A81FD300408D1420007F3F1F643206
:1007900014783C1E00AE05010902A1018502090181
:1007A000A100050919012905150025019505750107
:1007B0008102950175038101050109300931158117
:1007C000257F95027508810609381581257F9501D9
:1007D00075088106050C0A38021581257F9501757B
:1007E000088106C0C005010906A101050719E02915
:1007F000E7150025019508750181029501750881AD
:10080000010507190029FF150026FF009506750848
:1008100081000508190129059505750191029501C9
:1008200075039101C009023B00020100A0FA09040E
:100830000000010301010009211101000122400013
:100840000705810308000A090401000103000000F4
:10085000092111010001224F000705820320000A2F
:100860001201100100000008EDFEA3DF10000102DC
:1008700003010403300000001A03740072006500D5
:1008800061006400730074006F006E006500340046
:100890003800000012036D00610072006B007300ED
:1008A00061007200640000000403090400000000FD
:1008B00000003E5B4F5B3E003E6B4F6B3E001C3EBC
:1008C0007C3E1C00183C7E3C18001C577D571C00C9
:1008D0001C5E7F5E1C0000183C180000FFE7C3E7A9
:1008E000FF00001824180000FFE7DBE7FF00304896
:1008F0003A060E00262979292600407F05050700C3
:10090000407F05253F005A3CE73C5A007F3E1C1CB7
:100910000800081C1C3E7F0014227F2214005F5F29
:10092000005F5F0006097F017F00006689956A000D
:1009300060606060600094A2FFA2940008047E04DE
:10094000080010207E20100008082A1C0800081C3F
:100950002A0808001E10101010000C1E0C1E0C009F
:1009600030383E383000060E3E0E06000000000013
:10097000000000005F000000000700070000147F77
:10098000147F1400242A7F2A1200231308646200B3
:10099000364956205000000807030000001C224181
:1009A00000000041221C00002A1C7F1C2A000808AD
:1009B0003E080800008070300000080808080800A1
:1009C0000000606000002010080402003E5149450C
:1009D0003E0000427F4000007249494946002141E3
:1009E000494D33001814127F100027454545390042
:1009F0003C4A49493100412111090700364949491A
:100A00003600464949291E0000001400000000403D
:100A100034000000000814224100141414141400BF
:100A20000041221408000201590906003E415D59A7
:100A30004E007C1211127C007F49494936003E412C
:100A4000414122007F4141413E007F4949494100E7
:100A50007F09090901003E41415173007F080808E0
:100A60007F0000417F4100002040413F01007F089E
:100A7000142241007F40404040007F021C027F0062
:100A80007F0408107F003E4141413E007F09090973
:100A900006003E4151215E007F0919294600264982
:100AA0004949320003017F0103003F4040403F00BD
:100AB0001F2040201F003F4038403F0063140814AF
:100AC00063000304780403006159494D4300007F2B
:100AD00041414100020408102000004141417F00D3
:100AE00004020102040040404040400000030708A7
:100AF00000002054547840007F2844443800384493
:100B000044442800384444287F0038545454180082
:100B100000087E0902001824241C78007F080404C1
:100B2000780000447D4000002040403D00007F10E0
:100B30002844000000417F4000007C0478047800D5
:100B40007C0804047800384444443800FC18242409
:100B5000180018242418FC007C08040408004854D9
:100B60005454240004043F4424003C4040207C00B2
:100B70001C2040201C003C4030403C0044281028F1
:100B800044004C1010107C004464544C4400000895
:100B900036410000000077000000004136080000E8
:100BA0000201020402003C2623263C000000000053
:100BB0000000000000000000000000000000000035
:100BC0000000000000000000000000000000000025
:100BD0000000000000000000000000000000000015
:100BE0000000000000000000000000000000000005
:100DE00000000000000000000000000011241FBEF1
:100DF000CFEFDAE0DEBFCDBF04B603FE27C080919F
:100E0000A6069091A706A091A806B091A9068730E2
:100E1000904BA740B04BD1F41092A6061092A706B3
:100E20001092A8061092A90614BE84B7877F84BFCB
:100E30000FB6F894A8958091600088618093600057
:100E4000109260000FBEE0E0F8E3099526E0AAEEFC
:100E5000B2E001C01D92A63AB207E1F712E0A0E0AD
:100E6000B1E0E8E0F3E602C005900D92AA3EB107BA
:100E7000D9F70E941B170C9482310C94000008953E
:100E8000BF92CF92DF92EF92FF920F931F93CF9377
:100E9000DF93E82EF62EE901E42FF0E0611106C0A1
:100EA000E45CFE4F8491B82EE82F71C0262F30E00D
:100EB000E45CFE4FE491FE2FCE2ED12C46E0849FC1
:100EC000C00111240FEF10E0B8010E94422E4BEA3E
:100ED0004603C001479F900D11248E0D911D8E0D6C
:100EE000911D982F990F890FD801A21BB30BAC9DB0
:100EF000A001AD9D500DBC9D500D1124B52EF89E46
:100F0000D0011124AB2FBB277801EA1AFB0AEC9C15
:100F1000D001ED9CB00DFC9CB00D11247801E81AB5
:100F2000F108E29EC001E39E900DF29E900D112407
:100F3000892F9927081B190B0C9D90010D9D300DD1
:100F40001C9D300D1124832F6230710591F048F4FF
:100F500061157105E1F061307105B9F48E2FEB2F49
:100F600016C06430710569F040F06630710579F0A3
:100F70000CC08E2FE52FB32E0AC0E52FBF2E8B2F6E
:100F800006C0852FBE2EE32F02C0852FBB2EE9831E
:100F90008883BA82DF91CF911F910F91FF90EF90DC
:100FA000DF90CF90BF90089590917A0392FF0DC08B
:100FB000282F2871283019F4877F846006C0282FD5
:100FC0002471243011F48B7F886093FF0DC0282F8B
:100FD0002871283119F4877E846106C0282F247176
:100FE000243111F48B7E886120917B0320FF0DC09A
:100FF000382F3871383019F4877F816006C0382F58
:101000003171313011F48E7F886021FF0DC0282F9F
:101010002871283119F4877E816106C0282F21713B
:10102000213111F48E7E886194FD877E08951F938F
:10103000CF93DF93CDB7DEB767970FB6F894DEBFD7
:101040000FBECDBF4B8B5C8B6D8B7E8B8F8B86E009
:101050009E01235F3F4FD901E82F1D92EA95E9F7E2
:1010600095E0FE017396D90101900D929A95E1F7F2
:10107000F901DE01179601900D928A95E1F7CE01F4
:1010800007960E94722181113EC086E0FE013796CC
:10109000DE01119601900D928A95E1F7FF81E885B6
:1010A0006A857B856115710531F0EF3F31F481E090
:1010B000FF3F19F403C081E001C080E080FD23C040
:1010C0002091F60330E0C90101968770992740917D
:1010D000270450E08417950779F1F983EA837D832B
:1010E0006C8396E0929FD001939FB00D1124A9507C
:1010F000BC4FFE01319601900D929A95E1F78093D5
:10110000F6030E94D32016E0809127049091F60305
:101110008917F9F0189FC001112489509C4F0E9433
:1011200072218823B1F08091270490E001968770A6
:10113000992780932704E8CF0E9434231092F60366
:1011400010922704E0EFF3E086E0DF011D928A951C
:10115000E9F767960FB6F894DEBF0FBECDBFDF91FB
:10116000CF911F910895E0917D03F0917E03309718
:1011700021F00190F081E02D099480E008950E9413
:10118000951EDC01CB01805A9541AF4FBF4F809334
:10119000C3039093C403A093C503B093C603809187
:1011A000C70381110BC062E070E081E492E00E940D
:1011B0007E25892B19F481E08093C7038091C703B2
:1011C0000895882311F0FA0101C0FB010994E9E9AF
:1011D000F3E01182828184608283089530910E0150
:1011E00080919C0680FF16C0E0910D0163E0E69FB0
:1011F000F0011124E151FD4F539A8BB1877F9BB1D0
:1012000098602FB7F894AF0163E0369F400D511DF1
:10121000112414C080910F0190911001891720F7BB
:10122000E82FF0E0AF01440F551FE40FF51FE15127
:10123000FD4F1182108212828F5FF0CFE417F50705
:1012400089F0319168E09BB9000000C037FF8BB98D
:10125000330F000000C000C000C08BB900C06A9509
:1012600091F7ECCF2FBF87EC90E00197F1F700C02A
:10127000000008951F93CF93DF93EC018C818111BF
:1012800009C081E08C8310924F0392E090930C018F
:1012900080930B0180910F0190911001891770F4D8
:1012A000E82FF0E09F01220F331FE20FF31FE151FF
:1012B000FD4F1182108212828F5FF0CF10E060919B
:1012C00011011617D8F5E12FF0E070E0CF010E9470
:1012D000562E20910F01820F20914F03022E000CF9
:1012E000330B90E0E217F307E4F020910C01022E9B
:1012F000000C330B2E173F07A4F09C01220F331F65
:10130000820F931F9C0121513D4F40919F06453B09
:1013100008F044EB60919E0680919D060E94400774
:101320000BC0FC01EE0FFF1F8E0F9F1FFC01E15150
:10133000FD4F1182108212821F5FC1CF0E94EE0802
:1013400080910B0120914F03280F20934F03909120
:101350000C01980F90930C0119165CF4022E000CEE
:10136000330B4091110150E04150510924173507CA
:1013700034F0819580930B01813009F41C82DF9158
:10138000CF911F910895FF920F931F93CF93DF93F7
:10139000EC01F12C0FEF10E060911101F61608F549
:1013A00080910F012F2D30E0280F311DC901880FCA
:1013B000991F280F391F21513D4F40919F06453BF2
:1013C00008F044EB70E0C8010E94562E962F8C81E5
:1013D00060919E06F99E800D11240E944007F394AF
:1013E000DBCF0E94EE089A818C8190FF02C08F5F54
:1013F00001C081508C83DF91CF911F910F91FF909D
:10140000089590919C0690FF16C090910F01209135
:101410001001921770F4E92FF0E0DF01AA0FBB1F53
:10142000EA0FFB1FE151FD4F8183608342839F5F81
:10143000F0CF0C94EE0808950F931F93CF93DF9392
:1014400000D01F92CDB7DEB78C0180919C0680FF43
:1014500013C040919F06453B08F044EB9E012F5F6F
:101460003F4F60919E06F80184810E9440074B81A6
:1014700069818A810E94010AF80184818F5F8483D7
:101480000F900F900F90DF91CF911F910F910895C2
:10149000ECE9F6E080818E7F80830E94E708E9E92D
:1014A000F3E08281816082832FEF80E792E0215018
:1014B00080409040E1F700C000000C94EE0880915D
:1014C0009C06282F269530E02115310519F48170EE
:1014D000826005C02831310524F081708E628093CE
:1014E0009C0680919F06853B18F084EB80939F06B5
:1014F0000895CF92DF92EF92FF926B017C010E94E0
:101500005F0AB701A60188E090E0FF90EF90DF90BE
:10151000CF900C94142EAF92BF92CF92DF92EF92A5
:10152000FF920F931F93CF93DF9300D01F92CDB7FD
:10153000DEB7082FF62E142FE22E80919C0680FF36
:1015400080C0E82FE695AE2FB0E0AB52BE4F9C9125
:10155000909399038E7F823081F4453B08F044EBF1
:101560009E012F5F3F4F6F2D802F0E9440074B81C0
:1015700069818A810E94010A41C0923019F4009168
:101580009D063CC09530D9F39E30C1F5EE508E2FAC
:101590008170D82EE695F0E0E45CFD4FA590B49004
:1015A000C12CBB2460911101C61630F52C2D30E002
:1015B000A29EC001A39E900DB29E900D112470E0DA
:1015C0000E94422E802FD11002C0860F01C0861BC0
:1015D00090910F01290F311DA901440F551F240FB0
:1015E000351F21513D4F412F153B08F044EB6F2D26
:1015F0000E944007C394D6CF0E94EE0880919D06BA
:10160000081308C080919E06F81204C080919F06BE
:10161000181729F080919B03826080939B030093AD
:101620009D06F0929E0610939F06EE2051F0609169
:101630009C0670919D0680919E0690919F060E9447
:10164000790A0F900F900F90DF91CF911F910F911A
:10165000FF90EF90DF90CF90BF90AF900895ECE9AE
:10166000F6E0438128E0421B08F440E021E062817B
:1016700081810C948B0AECE9F6E0438128E0420F6B
:1016800008F44FEF21E0628181810C948B0AECE930
:10169000F6E0628128E0621B08F460E021E043810B
:1016A00081810C948B0AECE9F6E0628128E0620FFC
:1016B00008F46FEF21E0438181810C948B0AECE9FF
:1016C000F6E0818121E04381628188500C948B0A8D
:1016D000ECE9F6E0818121E043816281885F0C942E
:1016E0008B0A8091A006882319F081508093A00670
:1016F00060919C0670919D0680919E0690919F0638
:101700000C94790A8091A006833018F48F5F80933F
:10171000A00660919C0670919D0680919E06909116
:101720009F060C94790AECE9F6E083E0808311824D
:101730008FEF828384EB83831482A9E9B3E012964E
:101740008C911297836012968C9360817181828153
:1017500093810C94790A8091EE02811112C08091DC
:10176000D80080618093D8008AE18A95F1F700C0A3
:101770008091D90080FD02C082E001C081E08093A9
:10178000EE0281E09091EE02913009F080E0089540
:10179000CF93DF9320E6829FC0011124FC0146E035
:1017A000749FE00DF11D1124E60FF11DEE0FFF1FD8
:1017B000E551FD4FC591D491CE01C238D10569F1F3
:1017C000B0F4C133D10509F475C048F4C932D1056C
:1017D00009F469C0CA32D10509F473C079C0C533B0
:1017E000D10509F459C0C933D105B9F071C0C33E60
:1017F000D10571F138F4C03ED105B1F0C23ED1053A
:1018000011F166C0C63ED105B9F1C73ED105C9F197
:10181000C43ED10509F05CC024C020917A0320FDAC
:101820003AC121FD38C154C020917A0320FD2DC159
:1018300020917B0320FF34C180917A0384FD22C173
:1018400083EE90E02DC120917A0322FF29C1F4CFCD
:1018500080917A0382FD1CC180917B0380FD1BC1B6
:10186000EBCF20917B0321FF1BC180917A0384FD84
:1018700009C187EE90E014C120917A0323FF10C1C3
:10188000F4CF80917A0383FD09C180917B0381FFAE
:10189000ECCF84EE90E004C120917A0325FF00C1D3
:1018A00089E290E0FDC020917A0325FFF9C085E32D
:1018B00090E0F6C020917A0326FFF2C08AE290E021
:1018C000EFC020917A0326FFEBC081E390E0E8C0EF
:1018D000C11552E5D50778F5C11521E5D20708F005
:1018E0009BC0CF3FD10509F0B8F4C03FD10508F047
:1018F0006EC0C53AD10540F4C430D10508F0D0C05F
:10190000219709F4CDC0BEC09E01205E3109283068
:10191000310508F0B7C0C4C0C11540E5D40708F0D0
:101920005DC0C11550E4D50708F054C0C115D042C0
:1019300008F4B6C0A7C0C11546E5D40720F5C11507
:1019400055E5D50708F082C0C11584E5D80708F031
:1019500078C09E01237033279C2F96959695C115CC
:10196000D34508F05EC041E050E002C0440F551F6F
:101970002A95E2F780E2989F90011124CA01822BF8
:10198000932B9C688DC0C1155AE5D50778F4C11515
:1019900089E5D80708F063C0C11528E5D20708F427
:1019A00071C09C2F8827806F906A7AC0CE019056B4
:1019B0008115904208F066C08D2F8F710E94D40768
:1019C0009E01332730628F71A901582B59C0CE0177
:1019D000906566C0CE019F70906A62C0CE01F4E04F
:1019E00096958795FA95E1F7282F23703C2F337051
:1019F00081E090E002C0880F991F3A95E2F79C6859
:101A0000922B2C2F2F702695269550E2259F900122
:101A10001124822B932B44C09C2F8827816F906ABE
:101A20003FC041E050E002C0440F551F2A95E2F745
:101A300080E2989F90011124CA01822B932B9A680F
:101A40002FC09C2F8827846F906A2AC08C2F0E94F9
:101A5000D4078F7190E0982F8827906221C08C2F37
:101A60008F700E94D4079E0194E0369527959A9531
:101A7000E1F72F7030E0322F22273069A901482B7F
:101A8000CA010EC080E090E00BC089E390E008C07E
:101A900082EE90E005C080EE90E002C086EE90E01D
:101AA000DF91CF9108950F931F93CF93DF93C62FAC
:101AB000D42F122FFC0182818823C9F06093520336
:101AC0000E94A11E909351038093500380E28C0FDB
:101AD000883008F057C0C77081E001C0880FCA95F0
:101AE000EAF7DF91CF911F910F910C944A238091D7
:101AF0005203681330C080915003909151030E94AB
:101B0000861E813E910538F500E20D0FCD17B9F024
:101B100080E28C0F883040F4C77081E001C0880FEC
:101B2000CA95EAF70E943F23083028F581E09D2FEF
:101B3000977001C0880F9A95EAF70E944A23812F77
:101B40000E9467240830F0F4D77081E001C0880F4C
:101B5000DA95EAF70AC080E28C0F883098F4C770F3
:101B600081E001C0880FCA95EAF7DF91CF911F91FC
:101B70000F910C943F23812FDF91CF911F910F91F3
:101B80000C946724DF91CF911F910F91089560917C
:101B90009C06669570E04BE050E080E091E00E948A
:101BA000702E892B19F481E080939A030E94A11E64
:101BB000909394038093930380919B03846080931C
:101BC0009B03089590919C0690FF3BC091708111FA
:101BD00002C0926006C0883110F09E6202C0880F79
:101BE000982B90939C0680919B03816080939B032C
:101BF000662351F060919C0670919D0680919E062F
:101C000090919F060E94790A60919C06669570E00B
:101C10004BE050E080E091E00E94702E892B19F09B
:101C20000E94E70802C00E94C70D81E080939603DE
:101C300020E040919F0660919E0680919D060C9445
:101C40008B0A089580919C068695815009F487E15E
:101C500061E00C94E20D80919C0686958F5F88313F
:101C600008F081E061E00C94E20D90919C0690FFF9
:101C700004C09695981740F003C0811105C090E00C
:101C8000961710F40C942B0E61E00C94E20D3F9229
:101C90004F925F926F927F928F929F92AF92BF927C
:101CA000CF92DF92EF92FF920F931F93CF93DF9328
:101CB0006CEC72E008E613E020E7E22E23E0F22E5F
:101CC000D801412CAA24A394B12C4D017C901C92E4
:101CD000EB018991BE01E82FE295EF70F0E021A1C0
:101CE0008F70A50102C0440F551F8A95E2F7CA0103
:101CF000242B21A322A1342E3094232122A350EAA5
:101D00005A95F1F79CEDC92E92E0D92E20E030E0F3
:101D1000E60159906E01452D42954F7050E0EA0161
:101D200048A16C9050E0D52DDF7002C055954795C5
:101D3000DA95E2F740FD08C05A2D022E01C0550F7A
:101D40000A94EAF7452F01C040E046294C932F5FE3
:101D50003F4F26303105E1F691A1D32DD923D1A3F0
:101D600092A1892B82A3119681E0F40190819711B1
:101D700001C080E0482AEA16FB0609F0A6CFD09001
:101D80007903442049F081E08093EC020E94A11E77
:101D90009093EB028093EA028091EC028823A9F0F1
:101DA0008091EA029091EB020E94861E069768F0ED
:101DB000ED2DF0E0E058FC4FD8018D918D0181931D
:101DC000EA16FB06C9F71092EC020E94AB0B8823BF
:101DD000D1F11091780380919B038823E9F085E08D
:101DE000ECE9F6E0A6E5B3E001900D928A95E1F703
:101DF0008091990390919A03A0919B0380935B0338
:101E000090935C03A0935D0381E090E00E94622DBB
:101E1000892B11F410929B0380E090E00E94622DC8
:101E2000892B09F063C0E12FF0E0E058FC4F80E01F
:101E300090E0DC01A15ABC4F2C912193019688308F
:101E40009105B9F750C0E09179030E2F10E0809111
:101E50005E038830C9F580915D0380FF12C08091D8
:101E6000560380FF0CC080919C06816080939C0685
:101E70008091560360E086950E94E20D02C00E94A8
:101E8000480A80915D0381FF09C020E04091590319
:101E900060915803809157030E948B0A80915D03E3
:101EA00082FF09C080915C03882319F00E94C70D4E
:101EB00002C00E94E70880915D0383FF03C081E0B8
:101EC0008093960310925E03F801E058FC4F80E087
:101ED00090E02191DC01A15ABC4F2C9301968830EF
:101EE0009105B9F716C01092ED0213C08091ED0272
:101EF0008F5F8093ED02863060F0E0917803F0E030
:101F0000E058FC4F80E090E01192019688309105F6
:101F1000D9F7842DDF91CF911F910F91FF90EF9012
:101F2000DF90CF90BF90AF909F908F907F906F90F9
:101F30005F904F903F9008956F927F928F929F9203
:101F4000AF92BF92CF92DF92EF92FF920F931F93C7
:101F5000CF93DF93CDB7DEB72A970FB6F894DEBFE5
:101F60000FBECDBFFC010081D18083819481892B7C
:101F700039F01FEFD11206C091E00F3F19F403C0F2
:101F800091E001C090E090FD41C77F0185E0DE0156
:101F9000169601900D928A95E1F7F70122818E81C4
:101FA0009F81222349F00E94BA1F182F682F8E812B
:101FB0009F810E94342003C00E940720182F20E632
:101FC000129FF001112436E0D39EE00DF11D112483
:101FD000E00FF11DEE0FFF1FE551FD4F059114912C
:101FE000F7018281980128503D456901882309F451
:101FF00011C10C33110528F4F801E75EFD4F808113
:1020000001C080E21F928F931F930F93F70180818D
:102010001F928F9381811F928F9387EF91E09F93FF
:102020008F931F9287E18F938BE691E09F938F931D
:102030000E948A2E0FB6F894DEBF0FBECDBF38E0E7
:10204000C316D10408F0EBC0F601EA5AFF4F0C9416
:102050006A2E44E062E01AC042E064E017C0F70173
:102060008281882309F4D4C060E070E0CB0109C00C
:10207000F7018281882309F4CBC062E070E080E040
:1020800090E00E94C920C4C044E063E0F70182816F
:102090000E943E25BDC0F7018281882309F4A5C0B6
:1020A00080917A0382FF07C033EEC32E32E0D32E35
:1020B0004AE0642E10C081E90E94DD23A9C082306D
:1020C00001F5F2E0CF0ED11CF60184910E94DD23D0
:1020D0003FEFC31AD30AF6012491222309F498C0D2
:1020E000213009F041C031968491813041F7F2E00E
:1020F000CF0ED11CF601B4908B2D0E94DD238B2DC9
:1021000007C0833041F4F2E0CF0ED11CF601849178
:102110000E945423DDCF843009F065C0F2E0CF0E79
:10212000D11CF601249180E090E030E02053310989
:102130002A30310570F4689EA001699E500D11246B
:10214000C901840F951FFFEFCF1ADF0AF601249112
:10215000ECCF009709F4BCCFEFE9FFE03197F1F73E
:1021600000C000000197F5CFE22FF0E0ED59FD4FE0
:102170007490822F86958695869590E0FC01ED5AA5
:10218000FD4F84902770912C022E02C09594879465
:102190000A94E2F7F1E08F229924FC01ED5BFD4FF8
:1021A000A490B12C02C0B594A7942A95E2F721E03F
:1021B000A222BB248114910419F081EE0E94DD2338
:1021C000A114B10419F086EE0E94DD23872D0E9430
:1021D0006724AB2819F086EE0E945423892809F45D
:1021E00077CF81EE95CF6F0173CF81E90E945423A1
:1021F0000FC0F7018281882359F00E94930B8091D0
:102200009C06816080939C0661E086950E94E20DA9
:10221000D12C07C038E0C316D10408F42FC5DD2443
:10222000D39440918C0450918D0460918E047091F0
:102230008F048090690490906A04A0906B04B09021
:102240006C04E5E5F2E020E030E0808190E0A0E081
:10225000B0E0411551056105710531F48815990506
:10226000AA05BB0579F405C0481759076A077B071B
:1022700049F449E0429FC001439F900D11248A5ABE
:102280009D4F08C02F5F3F4F399627303105E9F643
:102290008DEE91E020917A0322FF03C02FEE31E012
:1022A00002C023EF31E09F938F933F932F9389E0F8
:1022B00092E09F938F931F9287E18F938BE391E03E
:1022C0009F938F930E948A2E0FB6F894DEBF0FBEA5
:1022D000CDBFDD2009F49AC5033F3CE51307C1F1EA
:1022E00080F4083D9CE51907C9F0093DECE51E079F
:1022F000D9F1073DFCE51F07D1F526E241EE61EE7D
:1023000010C0053F2CE5120759F130F1063F8CE56E
:10231000180769F527E245EE66EE03C027E245EEB1
:1023200065EEC7012A960FB6F894DEBF0FBECDBF8B
:10233000DF91CF911F910F91FF90EF90DF90CF90A1
:10234000BF90AF909F908F907F906F900C94530DA3
:1023500026E241EE60EEE5CF27E245EE64EEE1CF06
:1023600026E241EE62EEDDCF28E241E0D9CFF7016F
:102370009281992309F452C1109252030230FCE574
:102380001F0708F435C106312CE5120738F0980113
:102390002A5F3C452930310508F02AC10E94131FED
:1023A00090937B0380937A0300313CE5130709F493
:1023B000C3C008F041C008309CE5190709F49AC071
:1023C000F0F40430FCE51F0709F487C068F402301C
:1023D0003CE5130709F477C003301C4509F0E5C05C
:1023E00080917A03826076C006309CE5190709F473
:1023F0006EC008F07BC080917A0388606BC00C309F
:10240000FCE51F0709F485C068F40A303CE51307B2
:1024100009F474C008F079C00E94342380917A03D3
:10242000806858C00E309CE5190709F476C008F0A2
:102430007FC080917A038BC00B3FFCE51F0709F436
:102440004FC018F503313CE5130709F47DC078F45B
:1024500001319CE5190709F473C002311C4509F0EC
:10246000A4C00E94342380917A038F7733C0053152
:10247000FCE51F0709F472C008F486C00A3F1C453A
:1024800009F093C080917B033EC00F3F8CE5180795
:1024900009F45FC058F40D3FECE51E0709F444C091
:1024A00008F43FC080917B0382602DC001302DE590
:1024B000120709F475C008F45DC002301D4509F02B
:1024C00074C060E06EC080917A03816003C0809127
:1024D0007A03806180937A0368C080917A0311C087
:1024E00080917B03826080937B035FC080917A033D
:1024F0008062F0CF80917A038064ECCF80917A0380
:1025000088608460E7CF8160EECF80917A038E7F10
:10251000E1CF80917A038D7FDDCF80917A03877F31
:10252000D9CF80917B0318C080917B038D7FDBCF57
:1025300080917A038F7ECECF80917A038F7DCACF30
:1025400080917A038F7BC6CF80917A03877F8B7FC0
:10255000C1CF80917B038D7F8E7FC5CF80917A0321
:1025600082FB222720F991E0922790FB82F990FBD1
:1025700083F9B0CF80917B03982F909591708E7FD7
:10258000892B90FB81F9AFCF0E94342380917A038D
:1025900087FB222720F991E0922790FB87F99ACFB9
:1025A00061E08EE090E00E94022E60917A0310912B
:1025B0007B0384E090E00E94022E612F81E290E094
:1025C0000E94022E2A960FB6F894DEBF0FBECDBF32
:1025D000DF91CF911F910F91FF90EF90DF90CF90FF
:1025E000BF90AF909F908F907F906F900C9434230A
:1025F00006312CE51207B9F5809167048A7A91E0DB
:1026000009F490E090935303882311F065E301C02F
:1026100069E288EE93E00E94F91E0FC006318CE556
:10262000180709F05AC080915303882309F42BC37B
:1026300065E388EE93E00E94EC1E2A960FB6F894AC
:10264000DEBF0FBECDBFDF91CF911F910F91FF90E5
:10265000EF90DF90CF90BF90AF909F908F907F9042
:102660006F900C948D1F01152CE51207D1F00E3DD3
:102670001C4509F03CC02A960FB6F894DEBF0FBE89
:10268000CDBFDF91CF911F910F91FF90EF90DF9021
:10269000CF90BF90AF909F908F907F906F900C9451
:1026A000241F0E9434238FEF94E3ECE0815090408C
:1026B000E040E1F700C0000087E797E7909301084A
:1026C000809300089AE088E10FB6F894A89580936B
:1026D00060000FBE90936000FFCF8091670482720C
:1026E000F801E25CFC45E431F10508F4CEC2F701E3
:1026F00000811181992349F0C8010E94BA1FD82E88
:10270000682FC8010E94342004C0C8010E9407201D
:10271000D82EB8018D2D0E94C80B8C01982EF70180
:10272000A580A2942FE0A222C280C110109266045C
:1027300080916404877079F0CC2069F080E2800F8A
:10274000883048F082E00E948F2080916404877076
:10275000DD24D3948111D12CB12EB2949FE0B92203
:102760008B2D90E08C30910508F04BC2FC01E25AB1
:10277000FF4F0C946A2E812F807F1F70882311F0E9
:102780001295107FCC20B9F0112309F425C280E204
:10279000800F883010F0911006C080916704182BCC
:1027A0001093670405C080916604182B109366048B
:1027B0000E948D1F11C2802F0E945423112309F4FF
:1027C00020C2005E1095083010F0911006C0809174
:1027D000670418231093670405C0809166041823CA
:1027E000109366040E948D1F0CC2812F807F1F7082
:1027F000803211F01295107F802F992021F0F1E0A6
:102800009F16E1F02AC0CC2081F080916804AA20B4
:1028100051F001E0A01207C0182B181709F4F1C1FC
:1028200010936804EEC1812B10C0AA2021F021E092
:10283000A21609F4E6C10E94871F16C0CC2041F001
:1028400035E03A1508F4DDC1812F0E944A23D9C131
:1028500084E08A1508F4D5C107C0CC2019F0AA205D
:1028600099F3BAC1A110BFC1812F0E943F23C9C1F2
:10287000CC20F9F0053F51F0063F71F0043FA9F478
:10288000809154039091550381600BC08091540353
:1028900090915503826005C0809154039091550337
:1028A00084609093550380935403802F0E94F81DF9
:1028B0001EC0053F51F0063F71F0043FA9F480911E
:1028C0005403909155038E7F0BC0809154039091D7
:1028D00055038D7F05C080915403909155038B7FE4
:1028E0009093550380935403802F0E942E1D0E94C5
:1028F000AD1E8DC1812F837009F069C0C11085C1E3
:10290000902F929596959770990F990F802F8F70B1
:10291000882E912CA12CB12C092E04C0880C991C56
:10292000AA1CBB1C0A94D2F704FF12C04FE050E06F
:1029300060E070E004C0440F551F661F771F9A9532
:10294000D2F7DB01CA0180959095A095B09503C0A0
:1029500080E090E0DC0116951695412F43704230DF
:1029600019F1C8F40091690410916A0420916B0474
:1029700030916C04413059F088299929AA29BB2942
:10298000BC01CD0160237123822393230AC0802AD6
:10299000912AA22AB32ABC01CD01682979298A2962
:1029A0009B290E94C92031C188299929AA29BB29BC
:1029B0000091690410916A0420916B0430916C04B9
:1029C000BC01CD016027712782279327EACFCC2055
:1029D00019F0812F817001C08695882309F415C1F3
:1029E000902F929596959770990F990F802F8F70D1
:1029F000882E912CA12CB12C092E04C0880C991C76
:102A0000AA1CBB1C0A94D2F704FF12C04FE050E08E
:102A100060E070E004C0440F551F661F771F9A9551
:102A2000D2F7DB01CA0180959095A095B09503C0BF
:102A300080E090E0DC0116951695412F43704230FE
:102A4000D9F068F500918C0410918D0420918E04CA
:102A500030918F04413059F088299929AA29BB293E
:102A6000BC01CD0160237123822393231EC0802AE1
:102A7000912AA22AB32A13C088299929AA29BB29F5
:102A800000918C0410918D0420918E0430918F045C
:102A9000BC01CD01602771278227932706C0BC01A6
:102AA000CD01682979298A299B290E946020ADC01F
:102AB0001F70CC2039F0812F0E94A820802F0E9407
:102AC0004A23A3C0802F0E943F23812F0E946A20A7
:102AD0009CC0802F22EF921609F440C0291538F0CF
:102AE00030EF931661F091EF991699F170C0E3EF12
:102AF0009E16D9F1F4EF9F1609F44EC068C0CC20A1
:102B000019F104E00A1508F47CC01F7181E090E01F
:102B1000A0E0B0E0AC01BD0104C0440F551F661F2A
:102B2000771F1A95D2F780918C0490918D04A09113
:102B30008E04B0918F048A019B01082719272A2748
:102B40003B27C901B80125C025E02A1508F459C062
:102B5000DCCFCC2029F0812F8F712CC0CC20D9F371
:102B6000812F8F710E946A204CC0CC2079F01F7198
:102B700081E090E0A0E0B0E0BC01CD0104C0660FB0
:102B8000771F881F991F1A95D2F703C060E070E085
:102B9000CB010E94602035C0CC2079F01F71812FBD
:102BA0000E94A82038E0139FC00111248360809305
:102BB0006404812F0E94A82024C081E00E948F20FD
:102BC00081E08A15F0F482E00E948F201AC0CC20A8
:102BD00039F0AA2009F4BFCF802F0E94DD2311C055
:102BE000AA2009F4BDCF893349F49FEFE7EEF3E063
:102BF0009150E040F040E1F700C00000802F0E94BB
:102C0000542388EF8B0D843010F40E94B308DD202C
:102C1000A9F08091640480FD11C0F70112828595AE
:102C2000859585950E94A820C7010E949C0F8091E0
:102C300064048595859585950E946A2085E0F70155
:102C4000DE01119601900D928A95E1F789819A81B2
:102C50000E9407209A8100E6809FF001112416E06F
:102C6000919FE00DF11D11248981E80FF11DEE0FF8
:102C7000FF1FE551FD4F85919491C8C0F601E659BB
:102C8000FF4F0C946A2E69E2D4CCEE58FF4F0C949F
:102C90006A2E80919C0680FF33C08E7F80939C06B5
:102CA00060919C0670919D0680919E0690919F0672
:102CB0000E94790A0E94E70880919B0381608093BB
:102CC0009B039FEFE0E7F2E09150E040F040E1F736
:102CD00000C000002A960FB6F894DEBF0FBECDBF2D
:102CE000DF91CF911F910F91FF90EF90DF90CF90E8
:102CF000BF90AF909F908F907F906F900C94EE0854
:102D0000816080939C0661E0869549C042E25EE066
:102D10006BE27EE02CC04BE25EE062E27EE027C028
:102D20004FE55BE068E67BE022C048E65BE06FE5EC
:102D30007BE01DC047E45BE063E57BE018C043E552
:102D40005BE067E47BE013C04FE25BE06BE37BE0BA
:102D50000EC04BE35BE06FE27BE009C041E75BE064
:102D600062E87BE004C042E85BE061E77BE02A9632
:102D70000FB6F894DEBF0FBECDBFDF91CF911F918C
:102D80000F91FF90EF90DF90CF90BF90AF909F900A
:102D90008F907F906F900C94E10861E081E02A961B
:102DA0000FB6F894DEBF0FBECDBFDF91CF911F915C
:102DB0000F91FF90EF90DF90CF90BF90AF909F90DA
:102DC0008F907F906F900C94E20D64E082E008C0D9
:102DD0006AE085E005C06DE08BE002C067E18EE04F
:102DE0002A960FB6F894DEBF0FBECDBFDF91CF910C
:102DF0001F910F91FF90EF90DF90CF90BF90AF9019
:102E00009F908F907F906F900C94350E2A960FB6FE
:102E1000F894DEBF0FBECDBFDF91CF911F910F9110
:102E2000FF90EF90DF90CF90BF90AF909F908F90EA
:102E30007F906F900895CF93DF93CDB7DEB7CC54DA
:102E4000D1090FB6F894DEBF0FBECDBF84B7877F20
:102E500084BF0FB6F894A895809160008861809334
:102E60006000109260000FBE90E080E80FB6F8940A
:102E700080936100909361000FBE85B7806885BF25
:102E800085B7806885BF0E94EC280E9492298091B6
:102E9000E20084608093E200789480918204882329
:102EA000A1F01091E9001F709091EC00892F8170C2
:102EB00090FD80E8182B1092E9008091E80083FDD6
:102EC0000E94D3251F701093E90082E084BD93E037
:102ED00095BD9AEF97BD80936E000E94AB0B8093D7
:102EE000220180912201882321F010920D018CE0B3
:102EF00004C08CE080930D0184E180930E010E9458
:102F0000AB0B882331F062E070E082E191E00E9437
:102F1000802C8091220180912201811102C098E0D1
:102F200001C090E09093790388E0891B8093780337
:102F3000ACECB2E044ED52E061E070E08D91E82F3E
:102F4000E295EF70F0E021A18F708B0102C0000FBD
:102F5000111F8A95E2F7C801902F9095922391A3B3
:102F600092A1892B82A34A175B0741F7ACEDB2E02F
:102F700042EE52E061E070E08D91E82FE295EF7053
:102F8000F0E021A18F708B0102C0000F111F8A9504
:102F9000E2F7C801902F9095922391A392A1892BDB
:102FA00082A34A175B0741F7E8E6F3E088E793E07E
:102FB000A0E8B3E011921D928E179F07D9F780E029
:102FC00090E00E94FC2D8C3E9E4F11F00E94241F29
:102FD0000E94AB0B811106C062E070E082E191E0DB
:102FE0000E94892C1092C10380E8809390040E9473
:102FF0003B2B6DE070E08EE797E00E947E25892BE9
:1030000009F043C08091C10363E070E081FD3AC0E4
:103010008BE797E00E947E25892BB9F56DE070E083
:103020008BE697E00E947E25892B79F50E94951EFC
:10303000DC01CB01805A9541AF4FBF4F8093C30352
:103040009093C403A093C503B093C603E3E9F4E0EF
:1030500080E092E0DF018C011D9201501040E1F709
:10306000F0939A06E09399068FEF9FEF9093920466
:103070008093910481E08093C8038093C7031092EA
:10308000C20303C088E797E0C5CF80E090E00E94CC
:10309000FC2D8C3E9E4F11F00E94241F82E090E098
:1030A0000E94EE2D8093D7030E94131F90937B0301
:1030B00080937A0383E090E00E94EE2D682F70E009
:1030C00080E090E00E94C92080917C0381113BC088
:1030D00080E090E00E94FC2D8C3E9E4F21F00E94EB
:1030E000241F0E94930B88E090E00E94F62D6093CD
:1030F0009C0670939D0680939E0690939F068091F8
:103100009B03836080939B036E7F71F40E94930BFB
:1031100088E090E00E94F62D60939C0670939D06D7
:1031200080939E0690939F060E945F0A0E94E70884
:1031300080919C0680FF04C060E086950E94E20DAD
:1031400081E080937C038AE891E090937E038093F2
:103150007D0344244394512C80918204853009F0EE
:103160004BC080918204843009F434C010927F03F4
:1031700020E488E190E00FB6F894A8958093600071
:103180000FBE209360000E94E7088091A206811183
:103190000AC081E08093A20680919C068170809392
:1031A000A1060E94480A83B7817F846083BF83B7EA
:1031B000816083BF7894889583B78E7F83BF0FB675
:1031C000F894A895809160008861809360001092C7
:1031D00060000FBE80918104882309F4BDCF0E9456
:1031E000470E80E993E0E0E8F3E021912111C0C3AC
:1031F0008E179F07D1F7B0CF0E94470E982E0E94DE
:10320000AB0B882309F445C0E8EDF3E0A0E8B3E098
:1032100000E010E0302F2D9191919227A1F180E0F4
:10322000FF24F394492F4F2151F122968FAF22971B
:1032300023963FAF23972F2181E009F480E0249665
:103240008FAF24970E94A11E8160782F26969FAF92
:103250008EAF269722964FAD229723965FAD239788
:1032600024966FAD249726968FAD26970E94170857
:10327000F801E852FC4F8081F826F0822AC08F5F67
:10328000FF0C863079F60F5F1F4F0031110509F0F2
:10329000C1CF8FEF27968FAF279728968FAF2897AC
:1032A00029961FAE29970E94A11E8160782F2B9628
:1032B0009FAF8EAF2B9727964FAD279728965FAD80
:1032C000289729966FAD29972B968FAD2B970E9443
:1032D000170880919A03882309F48BC08091990381
:1032E000E0919C06E695E81BE0939503823059F443
:1032F000F0E0EF56F84FE4910E2F10E02CE1E22EB3
:103300002AE0F22E21C0853061F4E695F0E0E25724
:10331000F84FE4910E2F10E093ECE92E99E0F92E8E
:1033200013C08B3059F4F0E0E557F84FE4910E2FBD
:1033300010E08AE3E82E89E0F82E06C000ED17E0E1
:10334000BFE3EB2EB7E0FB2E80919603882389F034
:10335000109296030E94A11E980120953095820F2D
:10336000931F909394038093930310929803109269
:10337000970380919303909194030E94861E801777
:103380009107B8F1809192038823B1F010929203D3
:1033900080919003909191030E94861E80339547FF
:1033A00058F00E94A11E9093910380939003809106
:1033B0009B03886080939B03C0909703D0909803F1
:1033C000E0919303F09194030E0F1F1F1093940349
:1033D0000093930383E993E0F701099580919703A4
:1033E00090919803892B29F4CD2819F081E08093DE
:1033F00092038091C803882309F4B1C103E914E062
:1034000010939A06009399060E94AB0B882309F447
:103410008DC040919C0330919C0680919D069091B7
:103420009E0620919F0643130CC040919D034813B4
:1034300008C040919E03491304C040919F03421766
:10344000A9F1269526952695969596959695869515
:1034500086958695432F469530FD02C03EE201C019
:103460003AE21F922F931F929F931F928F931F9266
:103470004F931F923F9382EA92E09F938F931F9204
:1034800087E18F9383E291E09F938F930E948A2E2E
:1034900085E0ECE9F6E0ACE9B3E001900D928A95A5
:1034A000E1F70FB6F894DEBF0FBECDBF83E291E027
:1034B0000E9426258BE391E00E9426250E94B308F6
:1034C00080FD03C028E032E002C024E932E081FD43
:1034D00003C048E052E002C048E952E082FD03C068
:1034E00088E092E002C08DE992E09F938F935F9312
:1034F0004F933F932F938DEB92E09F938F931F9267
:1035000087E18F9383E591E09F938F930E948A2EAA
:1035100083E591E00E9426258BE691E00E94262516
:103520000FB6F894DEBF0FBECDBF0DC080E4E5E955
:10353000F1E0DE01119601900D928A95E1F7CE013E
:1035400001960E9426252091910430919204211524
:10355000310509F4E4C08091C2038111E0C0082F55
:1035600010E07201082E02C0EE0CFF1C0A94E2F774
:10357000A70142235323452B11F48F5FF0CF909185
:10358000C1039801A5E0220F331FAA95E1F790FD32
:1035900012C08295880F807680938501220F232F99
:1035A000221F330B319520938801815E8093860121
:1035B0001092890112C0E5E036952795EA95E1F76A
:1035C000220F220F220F2093850110928801295F7C
:1035D0002093860183E08093890124E630E047E070
:1035E00050E063E871E088E70E94C82B892B09F05E
:1035F00096C08091C10380FD22C0A80175E0440FF0
:10360000551F7A95E1F74D565B4F04E610E020E236
:1036100030E060E488E70E94EF2B892B09F07FC03F
:103620000E94BF08E094F0948091910490919204DC
:10363000E822F922F0929204E092910470C080E2B4
:10364000E1EAF3E0DF011D928A95E9F7A80135E090
:10365000440F551F3A95E1F7E6EEF2E02D96FFAFE5
:10366000EEAF2D9702EE12E06AEEA62E62E0B62EC5
:103670002D96AEADBFAD2D978D912D96BFAFAEAF50
:103680002D97F80191918F01BA01690F711D6D5647
:103690007B4F90E08F559C4FFC0127E0822E9F01CD
:1036A000281B390B242C01C0220C2A95EAF76B0148
:1036B000712CD6016D906D016220282D271927707D
:1036C000322E022E000C330BB62D01C0BB0F3A94E4
:1036D000EAF73B2E3195219531092770332701C038
:1036E00066942A95EAF736286080362830827394EB
:1036F00028E07212DECF8A9431963FEF8312CFCF4B
:103700002D968EAD9FAD2D97A816B90609F0B0CFB6
:1037100004E610E020E230E041EA53E07ACF809105
:10372000C7038823E1F00E94951E0091C303109106
:10373000C4032091C5033091C603DC01CB01801B7B
:10374000910BA20BB30BB7FD0AC062E070E084E9F5
:1037500097E00E947E25892B11F41092C7039110E7
:103760000E94BF0886E0E0EDF3E0DE0111960190D3
:103770000D928A95E1F78091D203811105C0809165
:10378000D303882309F471C08091CE039091CF03B5
:103790000E94861EAC019091CD0321E030E0911192
:1037A00002C020E030E02417350708F05EC09F3FDC
:1037B00019F09F5F9093CD031092D4031092D5031C
:1037C0008091D203181624F40E94D51D8093D20351
:1037D0008091D20387FF05C00E94D51D81958093FB
:1037E000D2038091D303181624F40E94D51D809330
:1037F000D3038091D30387FF05C00E94D51D819517
:103800008093D3033091D2033323E1F02091D3038B
:103810002223C1F005EB3003C0011124992319F0D4
:103820009093D20303C081E08093D20315EB210370
:10383000C0011124992319F09093D30303C081E0B0
:103840008093D3030E94AD1E8091CB039091CC0353
:103850009093CF038093CE0386E0FE013196A0EDD6
:10386000B3E001900D928A95E1F78091D403811124
:1038700005C08091D503882309F46EC08091C903E7
:103880009091CA030E94861E9C019091CD039923BA
:1038900009F484C02536310508F45EC09F3F19F055
:1038A0009F5F9093CD031092D2031092D303809127
:1038B000D403181624F40E94B31D8093D40380917E
:1038C000D40387FF05C00E94B31D81958093D40364
:1038D0008091D503181624F40E94B31D8093D5035C
:1038E0008091D50387FF05C00E94B31D8195809309
:1038F000D5033091D4033323E1F02091D503222363
:10390000C1F045EB3403C0011124992319F09093C1
:10391000D40303C081E08093D40305EB2003C001EE
:103920001124992319F09093D50303C081E080936B
:10393000D5030E94AD1E8091CB039091CC03909350
:10394000CA038093C90386E0FE013196A0EDB3E07F
:1039500001900D928A95E1F70E94B3089091D603E9
:10396000891709F4F9CB0E94B3088093D603F4CBEE
:1039700080E189BD82E189BD09B400FEFDCF80915F
:10398000D8008F7D8093D8008091E0008260809382
:10399000E0008091E00081FDFCCFDECB2D32314094
:1039A00008F07ECFD9CF08950895809177040895C7
:1039B0009C0180918204843001F582E08093E900CB
:1039C0009FEF8091E800915085FD06C085ED8A95B6
:1039D000F1F700009111F5CF8091E80085FF0DC04F
:1039E000C90140E050E066E070E00E94A7258091A8
:1039F000E8008E778093E80008950895CF93DF93D1
:103A000020918204243039F521E02093E9002FEF42
:103A10003091E800215035FD06C035ED3A95F1F7BB
:103A200000002111F5CF2091E80025FF14C0EC0122
:103A300040E050E068E070E00E94A7258091E80037
:103A40008E778093E80088E0FE01A8E7B4E001905B
:103A50000D928A95E1F7DF91CF910895803F39F477
:103A60008091D30387FF6CC01092D30369C0813F5C
:103A700029F48091D3031816BCF362C09091D2034D
:103A8000823F29F497FF5CC01092D20359C0833F54
:103A900019F41916CCF354C0893F41F48091D40332
:103AA00018160CF04DC01092D4034AC08A3F29F476
:103AB0008091D40387FF44C0F6CF8B3F39F48091C7
:103AC000D50387FF3DC01092D5033AC08C3F29F43F
:103AD0008091D5031816BCF333C0843F21F4809144
:103AE000D1038E7F17C0853F21F48091D1038D7F54
:103AF00011C0863F21F48091D1038B7F0BC0873F9B
:103B000021F48091D103877F05C0883F31F48091F3
:103B1000D1038F7E8093D10313C08D3F21F4809118
:103B200071048E7F0BC08E3F21F4809171048D7FD4
:103B300005C08F3F29F4809171048B7F80937104BD
:103B40008091D20381110EC08091D30381110AC0EC
:103B50008091D403811106C08091D503811102C0E8
:103B60001092CD0308958091710480FD16C081FDEF
:103B700016C082FD18C08091CD03882391F0883251
:103B800090F428E0829FC001112468E270E00E9456
:103B9000562E862F672B29F007C082E0089584E017
:103BA000089581E0089588E008958091710480FD72
:103BB00017C081FD17C082FD19C08091CD038823F5
:103BC00099F0863998F42CE0829FC001112466E9AF
:103BD00070E00E94562E862F672B49F481E00895ED
:103BE00083E0089586E0089584E008958CE00895C8
:103BF000803F21F40E94D51D819504C0813F29F4A6
:103C00000E94D51D8093D3030895823F21F40E9422
:103C1000D51D819504C0833F29F40E94D51D809352
:103C2000D2030895893F19F40E94B31D05C08A3F4D
:103C300031F40E94B31D81958093D40308958B3F86
:103C400021F40E94B31D819504C08C3F29F40E9489
:103C5000B31D8093D5030895843F21F48091D1034F
:103C6000816017C0853F21F48091D103826011C02B
:103C7000863F21F48091D10384600BC0873F21F4FB
:103C80008091D103886005C0883F31F48091D103D1
:103C900080618093D10308958D3F21F48091710458
:103CA00081600BC08E3F21F480917104826005C059
:103CB0008F3F29F48091710484608093710408958A
:103CC00078941F920F920FB60F9211248F939F93A7
:103CD000AF93BF9380916D0490916E04A0916F0497
:103CE000B09170040196A11DB11D80936D04909355
:103CF0006E04A0936F04B0937004BF91AF919F9135
:103D00008F910F900FBE0F901F9018959C014FB789
:103D1000F89480916D0490916E04A0916F04B0911D
:103D200070044FBF821B930B08952FB7F8946091D6
:103D30006D0470916E0480916F04909170042FBF98
:103D400008952FB7F89480916D0490916E04A0911E
:103D50006F04B09170042FBF0895E0917D03F0913E
:103D60007E03309749F082E08093D0030480F58190
:103D7000E02D80ED93E009950E94A11E9093CC0365
:103D80008093CB0308951F920F920FB60F921124C8
:103D90008F939F93AF93BF9380917F03811113C043
:103DA00080916D0490916E04A0916F04B0917004A5
:103DB0004196A11DB11D80936D0490936E04A09354
:103DC0006F04B0937004BF91AF919F918F910F904A
:103DD0000FBE0F901F9018959C012A5F3F4FFC016A
:103DE0004281461301C01282019682179307B9F7E8
:103DF00008959C01FC0132969FEF80E041914617A7
:103E000089F09F3F19F4411101C0982F8F5F8630D0
:103E1000A9F79F3F39F0F901E90FF11D97FDFA95D8
:103E2000628308950895CF9384E090E00E94EE2D80
:103E3000C82F81E290E00E94EE2D2C2F30E0A901E6
:103E4000582BCA01CF9108956CEE7EEF80E090E090
:103E50000E94202E60E082E090E00E94022E60E04E
:103E600083E090E00E94022E1092690410926A048E
:103E700010926B0410926C0460E084E090E00E9469
:103E8000022E60E081E290E00E94022E60E085E078
:103E900090E00E94022E60E086E090E00E94022EF8
:103EA0006FEF87E090E00E94022E40E050E0BA0100
:103EB00088E090E00E94142E60E08DE090E00E9487
:103EC000022E40E050E0BA0188E190E00E94142EFA
:103ED00060E087E190E00E94022E40E050E0BA01ED
:103EE0008CE190E00E94142E60E080E290E00E945D
:103EF000022E40E050E0BA018FE090E00E94142EC4
:103F000040E050E0BA0183E190E00C94142E8091DF
:103F1000680481111092680408959091670480915B
:103F20006604892B20916504982F922B9093E803C7
:103F300080916804882389F0892B8093E803EAEE56
:103F4000F3E097E080E0915029F021912223D9F30A
:103F50008F5FF9CF81110E94871FE0917D03F0915F
:103F60007E03309731F00280F381E02D88EE93E0FC
:103F700009940895BF92CF92DF92EF92FF920F9330
:103F80001F93CF93DF938C01C0908C04D0908D044D
:103F9000E0908E04F0908F048091690490916A04FF
:103FA000A0916B04B0916C04C82AD92AEA2AFB2A92
:103FB000CFE1D0E0D701C6010C2E04C0B695A7957D
:103FC000979587950A94D2F780FD04C0219790F7C2
:103FD000B12C07C0BC2EB8018C2F0E94C80B0197D2
:103FE000A9F38B2DDF91CF911F910F91FF90EF904F
:103FF000DF90CF90BF900895CF93DF93EC010E94A4
:10400000BA1FBE010E94C80BDF91CF910895292FDE
:10401000220F920F990F890F682F66956695669506
:10402000982F977085E0689FB001112440E050E020
:1040300080E0FB01E40FF51FE85DFB4F208130E0DD
:10404000092E02C0369527950A94E2F7217033278E
:10405000042E01C0220F0A94EAF7822B4F5F5F4FB4
:104060004530510531F70895292F220F920F990FEE
:10407000890FE82FE695E695E695877051E001C037
:10408000550F8A95EAF785E0E89FF0011124E85D75
:10409000FB4F20E030E070E04081CB01022E02C0F7
:1040A000969587950A94E2F78170819584278523F8
:1040B000842781932F5F3F4F2530310569F708959D
:1040C00060938C0470938D0480938E0490938F047E
:1040D0000C9421230F931F9341E050E060E070E0C7
:1040E00004C0440F551F661F771F8A95D2F740956D
:1040F00050956095709580918C0490918D04A0915D
:104100008E04B0918F048A019B01082319232A236E
:104110003B23C901B8011F910F910C94602020919D
:1041200064048095822380936404982F977079F4B7
:1041300030E0482F082E000C550B2417350739F0B6
:104140008595859585950E946A201092640408954E
:104150000F931F9341E050E060E070E004C0440F13
:10416000551F661F771F8A95D2F780918C04909116
:104170008D04A0918E04B0918F048A019B01082BBD
:10418000192B2A2B3B2BC901B8011F910F910C94BD
:1041900060206093690470936A0480936B04909329
:1041A0006C040C942123809127049091F6038917C5
:1041B00019F08F5F8770FBCF08950F931F93CF93F4
:1041C000DF938091F50382958F7009F05DC0809137
:1041D000F203882309F458C0809127041091F60354
:1041E0006091F0037091F103C091F303D091F40357
:1041F00091E06F3F09F090E0292F06E0811709F464
:1042000043C0209721F07F3F21F030E003C031E030
:1042100001C0322F90E030FD34C0089FF001099FAB
:10422000F00D1124DF01A950BC4F11963C9111975C
:10423000371327C03C91361324C012963C91129735
:1042400031111FC013964D915C9114974C1B5D0B5F
:10425000413E5105B0F48091F5038F7080618093E9
:10426000F503E450FC4F80818F708061808380EF84
:1042700093E00E949C0FDF91CF911F910F910C94BE
:10428000D32001968770BACFDF91CF911F910F9104
:1042900008950E94FC1F292F2F70E92FE295EF70DF
:1042A0004E2F50E0FA013297EE30F105B8F4EA579C
:1042B000FF4F0C946A2E803F99F018F4883E70F4FA
:1042C0000FC0843F59F40CC0883E50F0813F31F458
:1042D00007C0822F869586958695089580E008957B
:1042E00081E008959F92AF92BF92CF92DF92EF92BA
:1042F000FF920F931F93CF93DF93CDB7DEB76197F4
:104300000FB6F894DEBF0FBECDBF8C0185E0F8017B
:10431000DE011D9601900D928A95E1F7F8019081DA
:104320008181E2803091F0036091F1034091F303C9
:104330005091F4034115510531F06F3F31F421E004
:104340003F3F19F403C021E001C020E0F22FF170DB
:104350009F2E20FD23C1F801C380D48020EFA22E20
:1043600023E0B22EF090F203F601E41BF50BFF20E0
:1043700009F4CEC02091F503E13EF10508F099C0A3
:10438000422F407F09F051C0681311C039130FC08C
:10439000FE2CE1100CC02F7020612093F503C501A5
:1043A0000E949C0F8091F503F801858337C1CD28C9
:1043B00031F08F3F31F421E09F3F19F403C021E039
:1043C00001C020E020FD03C021E02E2502C020E036
:1043D00030E0F22FF170FF2E20FF1DC02091270446
:1043E0004091F60356E0241709F4F6C030E0529FDE
:1043F000F001539FF00D1124E950FC4F61818613A9
:1044000006C06081961303C06281E61204C02F5F6C
:104410003F4F2770E8CFFE2CEE2009F4FFC08091BB
:10442000F50381608093F50350C0681307C039130A
:1044300005C0E11003C0F80125838DC09D878E87DC
:104440008D859E850E944921882369F1EE2059F1CE
:104450002091F503822F82958F7090E0029774F07F
:104460008091F0039091F10398878F831986DB8602
:10447000CA862C87CE0107960E949C0F86E0F80121
:10448000A0EFB3E001900D928A95E1F70E94DD2044
:104490000DC06817E1F09D878E878D859E850E94EF
:1044A000492181111EC0C8010E949C0FFF24F39472
:1044B000B5C0422F407F69F780EF93E00E949C0FC8
:1044C00086E0F50111928A95E9F7F12CA7C039131E
:1044D000E2CFE110E0CFF8012583C8010E949C0FD4
:1044E00057C0EE2001F32091F503822F82958F7043
:1044F00090E002971CF28091F0039091F1039A836F
:1045000089831B82DD82CC822E83CE010196B4CFBB
:10451000E13EF105E8F5FE2CEE2029F2681327C0F4
:10452000391325C02091F50320FD18C0822F8295F4
:104530008F70482F50E04115510581F0F801258317
:104540004F30510541F08F5F982F9295907F822FC9
:104550008F70892B8583C8010E949C0F86E0F8012B
:10456000A0EFB3E001900D928A95E1F757C09D87C7
:104570008E878D859E850E94492181117FCF8091F4
:10458000F50381608093F503C8010E949C0F46C02B
:1045900086E0F50111928A95E9F740C0EE2009F412
:1045A00082CF9D878E878D859E850E944921F82E1A
:1045B000882309F478CF86E0F801A0EFB3E00190FA
:1045C0000D928A95E1F78091F0039091F1030E949A
:1045D000FC1F0E94DD2022C09D878E878D859E85D1
:1045E0000E94FC1F292F22952F70223028F49F70E3
:1045F00039F0811105C00BC0243028F49F7049F4B4
:10460000805E883020F0C8010E949C0F9F2CF92CFE
:1046100005C0F8019581907F99F7F9CF8F2D6196AC
:104620000FB6F894DEBF0FBECDBFDF91CF911F91C3
:104630000F91FF90EF90DF90CF90BF90AF909F9041
:10464000089510926604109265040E948D1FE0ED9B
:10465000F3E086E0DF011D928A95E9F71092CD0321
:10466000109271040C94AD1E1092670486E0EAEE7D
:10467000F3E0DF011D928A95E9F70C94212388234A
:1046800041F08095909167048923809367040C948E
:104690008D1F0895882339F090916704892B8093AA
:1046A00067040C948D1F0895882309F485C082380F
:1046B00069F40E94B30881FF7FC069E388EE93E04C
:1046C0000E94F91E0E948D1F69E30EC0833891F489
:1046D0000E94B30880FF70C063E588EE93E00E94FB
:1046E000F91E0E948D1F63E588EE93E00E94EC1E88
:1046F0000C948D1F843869F40E94B30882FF5CC05B
:1047000067E488EE93E00E94F91E0E948D1F67E423
:10471000EBCF9CEF980F913A10F4682FE5CF90E221
:10472000980F983088F4877021E030E0A90102C02A
:10473000440F551F8A95E2F7CA018095909167044E
:10474000892380936704D4CF9BE5980F9330A0F41E
:104750008091720490917304892B71F1109273040B
:1047600010927204E0917D03F0917E03309721F165
:104770000680F781E02D17C098E5980F9731B0F4C7
:104780008091740490917504892BB1F01092750496
:1047900010927404E0917D03F0917E03309761F0F4
:1047A0000084F185E02D80E090E00994803F20F0C6
:1047B0000E942E1D0C94AD1E0895CF93882309F4FA
:1047C00084C0C82F8238B1F40E94B30881FD7DC037
:1047D00069E388EE93E00E94F91E0E948D1F2FEF7F
:1047E00081EE94E0215080409040E1F700C000004D
:1047F00069E317C08338E1F40E94B30880FD65C007
:1048000063E588EE93E00E94F91E0E948D1F2FEF52
:1048100081EE94E0215080409040E1F700C000001C
:1048200063E588EE93E00E94EC1ECF910C948D1FFF
:104830008438B1F40E94B30882FD47C067E488EE73
:1048400093E00E94F91E0E948D1F2FEF81EE94E0ED
:10485000215080409040E1F700C0000067E4E1CFC4
:104860008CEF8C0F813A80F4EAEEF3E080EF93E076
:104870002191C21711F18E179F07D1F76C2F88EE87
:1048800093E00E94F91ED1CF80E28C0F883068F44B
:10489000C77081E090E001C0880FCA95EAF7909157
:1048A0006704892B80936704C0CFC03F70F08C2FC2
:1048B0000E94F81DCF910C94AD1E6C2F88EE93E0F2
:1048C0000E94EC1E0E948D1FD9CFCF910895CF93E7
:1048D000C82F0E94DD23C93349F42FEF87EE93E000
:1048E000215080409040E1F700C000008C2FCF9114
:1048F0000C945423CF93DF93C0919906D0919A06DC
:104900008A30B1F420919004CE0183599440622FF3
:1049100070E00E94422E281B822F66E00E94362EF5
:10492000C82FC15008F48FC080E20E947A24F9CFCA
:104930008D30E9F4C359D44020919004622F70E087
:10494000CE010E94422E281B822F9E01280F311D6E
:104950002115324018F080E0C0E0D0E0C80FD11D32
:10496000CD56DB4FD0939A06C09399066CC096E063
:10497000FE01A3E9B6E001900D929A95E1F7803E21
:1049800030F086E0FE0111928A95E9F70BC0F6E05F
:104990008F9FB00111246455774F46E050E0CE015F
:1049A0000E94E52DC0919906D0919A0646E050E00C
:1049B000BE0183E996E00E947D2E892B49F19E017C
:1049C00023593440A90185E0569547958A95E1F72A
:1049D00081E090E0BC0102C0660F771F4A95E2F7C4
:1049E0004091910450919204462B572B2A5F3F4FE0
:1049F00065E0369527956A95E1F702C0880F991F03
:104A00002A95E2F7842B952B90939204809391043E
:104A10009E012D58344040919004642F70E0C901EC
:104A20000E94422E481B463010F4240F311D2115E0
:104A300082E0380710F020E030E02D563B4F3093F5
:104A40009A0620939906DF91CF9108950F931F93B3
:104A5000CF93DF93EC01FC0101900020E9F78F0177
:104A600001501109C017D10720F489910E947A24BE
:104A7000F9CFDF91CF911F910F910895CF93DF93DD
:104A8000C62FD42F882321F0862F0E94A82003C090
:104A9000862F0E946A2041E050E060E070E0DB0178
:104AA000CA0104C0880F991FAA1FBB1FDA95D2F74D
:104AB00004C0440F551F661F771FCA95D2F7842B79
:104AC000952BA62BB72B40918C0450918D046091AF
:104AD0008E0470918F04482359236A237B23841703
:104AE0009507A607B70729F485E0DF91CF910C94CD
:104AF000A82085E0DF91CF910C946A20EF92FF927D
:104B00000F931F93CF93DF93EC017B0164E670E07A
:104B100088E70E94412B8C01EC0EFD1ECE15DF05AF
:104B200061F017FD0AC0FE01849164E670E00E9406
:104B3000982B8C012196892B89F30E941C2CC8018B
:104B4000DF91CF911F910F91FF90EF900895EF9219
:104B5000FF920F931F93CF93DF937C018B010E94F1
:104B60000B29811119C0E70101151105A1F08091F0
:104B7000E80085FD0AC08091E8008E778093E80008
:104B80000E940B29882381F307C089918093F1004B
:104B900001501109E9CF80E0DF91CF911F910F9172
:104BA000FF90EF9008951F93CF93DF93CDB7DEB7BB
:104BB000AA970FB6F894DEBF0FBECDBFE4E8F4E0CD
:104BC0008091F100819324E0EC38F207C9F78091DD
:104BD0008504833009F460C030F4813071F0823094
:104BE00009F49AC0B1C08A3009F486C08B3009F448
:104BF0006BC0893009F0A8C020C080918404813A3C
:104C000009F0A2C08091E800877F8093E80080913E
:104C1000880490918904892B21F468E088E794E066
:104C200003C060E080E090E070E00E94DD2A8091A7
:104C3000E8008B778093E80087C0809184048132FC
:104C400009F082C08091880490918904029708F04D
:104C50007BC08091E800877F8093E8008091E80026
:104C600082FD05C0809182048111F8CF6DC0209132
:104C7000F3008091F20090E0922B029729F480914A
:104C8000F1008B7F813021F48091F10080937704D3
:104C90008091E8008B7754C080918404813A09F0B8
:104CA00053C08091880490918904892B09F04CC0ED
:104CB0008091E800877F8093E8008091E80080FF82
:104CC000FCCF8091940137C0809184048132E1F55A
:104CD0008091880490918904892BB1F58091E80036
:104CE000877F8093E8000E943E298091860480930C
:104CF00094010E94342328C080918404813221F5DC
:104D00008091E800877F8093E8000E943E2980918F
:104D100087048093760418C080918404813AA1F4BA
:104D20008091E800877F8093E8008091E80080FF11
:104D3000FCCF809176048093F1008091E8008E771B
:104D40008093E8000E943E298091E80083FFD8C14B
:104D50008091840490918504492F50E04A30510598
:104D600008F0CEC1FA01EC56FF4F0C946A2E803841
:104D700021F0823809F0C4C108C08091800490916C
:104D80008104992389F082600FC0809188048F701C
:104D9000873008F0B5C18093E9008091EB0085FB76
:104DA000882780F91092E9009091E800977F90930E
:104DB000E8008093F1001092F10071C1282F2D7F3F
:104DC00009F09EC1882319F0823061F099C1809169
:104DD0008604813009F094C1933009F080E080931B
:104DE00081042EC08091860481112AC0809188049C
:104DF0008F702FEF280F263008F082C18093E900D2
:104E00002091EB0020FF1CC0933021F48091EB0037
:104E1000806214C09091EB0090619093EB0021E0D0
:104E200030E0A90102C0440F551F8A95E2F7409374
:104E3000EA001092EA008091EB0088608093EB001A
:104E40001092E9008091E800877F2CC1811158C140
:104E5000109186041F778091E3008078812B8093E6
:104E6000E3008091E800877F8093E8000E943E295C
:104E70008091E80080FFFCCF8091E3008068809300
:104E8000E300111102C082E001C083E0809382043C
:104E900037C18058823008F033C1809186049091E8
:104EA00087048C3D53E0950779F583E08A838AE295
:104EB00089834FB7F894DE01139620E03EE051E27B
:104EC000E32FF0E050935700E49120FF03C0E295F8
:104ED000EF703F5FEF708E2F90E0EA3010F0C796D2
:104EE00001C0C0968D939D932F5F243149F74FBF2A
:104EF0008091E800877F8093E8006AE270E0CE014D
:104F000001960E94DD2ABAC040918804509189041C
:104F1000292F332723303105B1F068F421303105D2
:104F200009F4FDC02230310509F0EAC08BE390E0BE
:104F3000E5E2F8E050C02132310581F1223231053D
:104F400009F439C0DDC0992781309105B9F070F0BE
:104F500082309105D9F0039709F0D2C0E2E7F8E07A
:104F6000E4918E2F90E0E2E7F8E032C0E8EAF8E062
:104F7000E4918E2F90E0E8EAF8E02AC0E4E9F8E056
:104F8000E4918E2F90E0E4E9F8E022C0E8E7F8E051
:104F9000E4918E2F90E0E8E7F8E01AC04115510542
:104FA00009F4C2C04130510509F0AAC089E090E07F
:104FB000E0E5F8E010C04115510509F4BAC04130F0
:104FC000510509F09DC08FE490E0E6E9F7E003C0E9
:104FD000009709F495C02091E800277F2093E8000E
:104FE00020918A0430918B048217930708F49C0166
:104FF00040E02115310589F180918204882309F46C
:105000003DC08530D9F18091E80083FD37C08091A3
:10501000E80082FD2FC08091E80080FFEACF409138
:10502000F3008091F20090E0942B2115310559F0A6
:105030008830910540F444914093F100319621501D
:1050400031090196F2CF41E0089709F040E08091E4
:10505000E8008E778093E800CCCF4111CDCF0AC015
:1050600080918204882351F0853041F08091E800DE
:1050700083FD04C08091E80082FFF2CF8091E800B8
:105080008B778093E8003CC08038D1F58091E800B0
:10509000877F8093E800809183048093F100809162
:1050A000E8008E778093E8000E943E2929C0811194
:1050B00027C080918604909187049927029704F570
:1050C0008091E800877F8093E80010918604109318
:1050D00083040E943E29111106C08091E30087FDE0
:1050E00002C081E001C084E08093820442E061EC70
:1050F00081E00E945D2942E261EC82E00E945D292C
:105100008091E80083FF1AC08091E800877F809338
:10511000E8008091EB0080628093EB000FC082E199
:1051200090E0E0E6F8E057CF89E090E0E7E3F8E0D0
:1051300052CF80E490E0E5EEF7E04DCFAA960FB6AF
:10514000F894DEBF0FBECDBFDF91CF911F910895C0
:105150001F920F920FB60F9211242F933F934F93EC
:105160005F936F937F938F939F93AF93BF93CF93EF
:10517000DF93EF93FF93C091E900CF708091EC0033
:10518000D82FD17080FDD0E81092E9008091F00016
:10519000877F8093F00078940E94D3251092E900D5
:1051A0008091F00088608093F000CD2BCF70C09389
:1051B000E900FF91EF91DF91CF91BF91AF919F9166
:1051C0008F917F916F915F914F913F912F910F90B0
:1051D0000FBE0F901F901895E8EDF0E080818E7F54
:1051E00080831092E2001092DA001092E100A0EEAB
:1051F000B0E08C9181608C9380818F77808319BC23
:10520000A7EDB0E08C918E7F8C9380818F7E808320
:1052100010929B0608952091E4003091E50095E6F8
:105220004091EC00842F817040FF23C08091E80002
:1052300080FD1DC080918204882399F0853099F00B
:105240008091EB0085FD11C04091E4005091E50094
:105250002417350729F3915011F09A01E1CF84E02A
:10526000089582E0089583E0089581E0089580E044
:1052700008954091E80042FFDDCF089580918404B5
:1052800087FF11C08091E80082FD05C080918204F3
:105290008111F8CF11C08091E8008B770BC080910D
:1052A0008204882349F08091E80080FFF8CF809144
:1052B000E8008E778093E8000895982F973068F57E
:1052C0009093E900981739F07091EC002091ED006F
:1052D0005091F00003C0242F762F50E021FD02C032
:1052E0009F5FECCF3091EB003E7F3093EB0030912D
:1052F000ED003D7F3093ED003091EB003160309355
:10530000EB007093EC002093ED005093F00020919F
:10531000EE0027FDE5CF80E008958F708093E900CF
:1053200081E00895CF92DF92EF92FF920F931F9347
:10533000CF93DF93C8EDD0E088818F7E8883E7ED3F
:10534000F0E080818160808384E082BF81E080938F
:105350009B0688818E7F888302EE10E0F801108220
:105360001092DA0081EEC82ED12CF60110828881CD
:105370008F77888388818068888388818F7D888300
:1053800019BC10928204109283041092810410922E
:10539000800490EEE92EF12CF70180818B7F8083D1
:1053A00088818160888342E060E080E00E945D291E
:1053B000F60180818E7F8083F80180818160808307
:1053C000808188608083F70180818E7F80838881DF
:1053D00080618883DF91CF911F910F91FF90EF90B3
:1053E000DF90CF9008951F920F920FB60F92112465
:1053F0002F933F934F935F936F937F938F939F93DD
:10540000AF93BF93EF93FF938091E10082FF09C0B8
:105410008091E20082FF05C08091E1008B7F809344
:10542000E1008091DA0080FF2AC08091D80080FFDF
:1054300026C08091DA008E7F8093DA008091D900B7
:1054400080FF18C080E189BD82E189BD09B400FEFA
:10545000FDCF81E08093820480919B0681110FC073
:105460000E94EC280E9492298091E200846080933F
:10547000E20005C019BC1092820410929B06809134
:10548000E10080FF17C08091E20080FF13C080918F
:10549000E2008E7F8093E2008091E2008061809341
:1054A000E2008091D80080628093D80019BC85E02A
:1054B000809382048091E10084FF43C08091E200E8
:1054C00084FF3FC080E189BD82E189BD09B400FE4F
:1054D000FDCF8091D8008F7D8093D8008091E1002E
:1054E0008F7E8093E1008091E2008F7E8093E200C6
:1054F0008091E20081608093E200809183048823A0
:1055000011F084E007C08091E30087FD02C081E0D4
:1055100001C083E0809382040E9434230E94B30878
:105520001092A2068091A106882349F080919C06E2
:10553000816080939C0660E086950E94E20D0E9447
:10554000C70D8091E10083FF27C08091E20083FFB7
:1055500023C08091E100877F8093E10082E0809307
:105560008204109283048091E1008E7F8093E10099
:105570008091E2008E7F8093E2008091E200806162
:105580008093E20042E060E080E00E945D2980912B
:10559000F00088608093F000FF91EF91BF91AF9190
:1055A0009F918F917F916F915F914F913F912F913B
:1055B0000F900FBE0F901F90189520918A04309184
:1055C0008B042617370748F06115710539F42091CF
:1055D000E8002E772093E80001C0B901FC0120E02B
:1055E0006115710579F1809182048823F1F185308C
:1055F000F1F18091E80083FD3CC08091E80082FDDC
:105600002EC08091E80080FFEBCF2091F3008091C5
:10561000F20090E0922B6115710551F088309105F0
:1056200038F421912093F100615071090196F3CF74
:1056300021E0089709F020E08091E8008E778093C0
:10564000E800CECF2111CFCF0AC0809182048823F9
:1056500061F0853061F08091E80083FD0AC080919F
:10566000E80082FFF2CF80E0089582E0089583E0B1
:10567000089581E008951092B9008CE08093B800FD
:105680000895EF92FF920F931F93CF93DF93182FFC
:10569000EB011092BC0084EA8093BC000E94A11E22
:1056A0007C018091BC0087FD0EC0CF3F8FEFD807F3
:1056B000C1F30E94A11E8E199F098C179D0788F3C4
:1056C0008EEF9FEF2EC08091B900887F883041F027
:1056D0008091B900887F803119F08FEF9FEF21C052
:1056E0001093BB0084E88093BC000E94A11E8C0133
:1056F0008091BC0087FD0CC0CF3F8FEFD807C1F36E
:105700000E94A11E801B910B8C179D0788F3D8CF98
:105710008091B900887F883111F08034F1F680E003
:1057200090E0DF91CF911F910F91FF90EF9008953E
:105730000F931F93CF93DF93EB018093BB0084E81B
:105740008093BC000E94A11E8C018091BC0087FD4B
:105750000EC0CF3F8FEFD807C1F30E94A11E801B60
:10576000910B8C179D0788F38EEF9FEF0CC0209153
:10577000B900287F81E090E0283211F480E090E0C9
:10578000919581959109DF91CF911F910F91089586
:10579000CF92DF92EF92FF920F931F93CF93DF93FD
:1057A0006B018A017901B9010E94412BE6010C0DC0
:1057B0001D1DC017D10761F424E92093BC00DF91BF
:1057C000CF911F910F91FF90EF90DF90CF900895B0
:1057D00097FDF2CFB70189910E94982BEACFCF9223
:1057E000DF92EF92FF920F931F93CF93DF93C62F19
:1057F0006A017901B8010E94412B97FD11C0B801DF
:105800008C2F0E94982BE601EC0CFD1CCE15DF05B9
:1058100039F097FD05C0B80189910E94982BF6CF09
:1058200024E92093BC00DF91CF911F910F91FF904D
:10583000EF90DF90CF90089584E98093BC000895A5
:105840008EE14A9B02C08150E1F74A9BFECF08954A
:105850005A9880E28A95F1F75A9A0895FC012AE055
:105860002A95F1F790E020E080E031E0261779F00A
:1058700040E14A95F1F7880F4A9B02C08160932767
:1058800000C0000040E14A95F1F72F5FEFCF20E123
:105890002A95F1F729B100C0000030E13A95F1F7FF
:1058A00022FB222720F992272081920F90830895CE
:1058B000EF92FF920F931F93CF93DF931F92CDB779
:1058C000DEB719828C017C01E60EF11C0E151F0556
:1058D00059F00E94202C68E0CE0101960E942E2CE7
:1058E000F80181938F01F2CF81E09981911180E0DD
:1058F0000F90DF91CF911F910F91FF90EF9008953E
:105900009093A5068093A4066093A306529A5A9A90
:1059100008959093A5068093A4066093A3065298D9
:105920005A9AEA9AE9E6F0E080818F7C80830895B4
:10593000615091E001C0990F6A95EAF720E031E0EB
:10594000992361F0492F482319F05A9A232701C05F
:105950005A9840E24A95F1F79695F2CF222311F03A
:105960005A9A01C05A9880E28A95F1F75A98089598
:10597000FF920F931F93CF93DF93EC018C01060FDF
:10598000111DC017D10741F0F9900E94282C68E042
:105990008F2D0E94982CF5CFDF91CF911F910F9101
:1059A000FF9008951F920F920FB60F9211240F933C
:1059B0001F932F933F934F935F936F937F938F9397
:1059C0009F93AF93BF93EF93FF93CF93DF931F9278
:1059D000CDB7DEB719820E94202C67E0CE01019678
:1059E0000E942E2C382F369536953695932F969506
:1059F0009570232F2570920F292F237096959695D9
:105A00008770920F891348C08981811145C08091A8
:105A1000A306831708F440C080E18A95F1F75A9AEB
:105A2000529AA2E0AA95F1F700C00091A406109145
:105A3000A506B8E03B9F000D111D11245A98F801EE
:105A40006581662321F0868197810E94B82C0E948F
:105A5000282CF0E1FA95F1F75A9852985A9A80E179
:105A60008A95F1F7D80112966C911297662369F026
:105A700013968D919C9114970E94582CD801ED910A
:105A8000FC91811105C082E004C0D801ED91FC9128
:105A900088E080830E94202C0F90DF91CF91FF91AE
:105AA000EF91BF91AF919F918F917F916F915F9196
:105AB0004F913F912F911F910F910F900FBE0F901B
:105AC0001F9018950F931F93CF93DF932091A306F8
:105AD00030E0281739070CF471C09C0193E0220FC5
:105AE000331F9A95E1F7C091A406D091A506C20F85
:105AF000D31FF894529A5A9845E04A95F1F700005E
:105B0000982F969595708570890F982F937086952C
:105B10008695890F8901082B0E94282C84E08A959C
:105B2000F1F700C067E0802F0E94982C40E14A9571
:105B3000F1F752985A9A4A9902C000C0FCCF87E008
:105B400090E04A9B0EC0019751F4529A5A9AE8810C
:105B5000F98181E08083789481E090E031C000C0D9
:105B6000F0CF6D81662381F08E819F810E94582C39
:105B700081110AC0529A5A9AE881F98182E08083A1
:105B8000789482E090E01CC00E94202C80E28A95EC
:105B9000F1F75A98529A40E14A95F1F76A816623E3
:105BA00021F08B819C810E94B82C0E94282CE881D6
:105BB000F9811082789480E090E002C084E090E067
:105BC000DF91CF911F910F910895FB01DC0102C07D
:105BD00005900D9241505040D8F70895F999FECFA5
:105BE00092BD81BDF89A992780B50895A6E1B0E0ED
:105BF00044E050E00C94282EA8E1B0E042E050E0F0
:105C00000C94282E262FF999FECF92BD81BDF89ACB
:105C1000019700B4021639F01FBA20BD0FB6F894F0
:105C2000FA9AF99A0FBE08950396272F0E94032E21
:105C30000E94022E252F0E94032E242F0C94032E47
:105C40000196272F0E94032E0C94022EDC01CB011B
:105C5000FC01F999FECF06C0F2BDE1BDF89A31967C
:105C600000B40D9241505040B8F70895991B79E067
:105C700004C0991F961708F0961B881F7A95C9F7DC
:105C800080950895AA1BBB1B51E107C0AA1FBB1F2B
:105C9000A617B70710F0A61BB70B881F991F5A95B8
:105CA000A9F780959095BC01CD01089597FB072E2B
:105CB00016F4009407D077FD09D00E94422E07FC0D
:105CC00005D03EF4909581959F4F0895709561950C
