:100000000C9466050C94AD050C94AD050C94AD05EF
:100010000C94AD050C94AD050C94AD050C94AD0598
:100020000C94AD050C94AD050C9452260C94072548
:100030000C94221B0C94AD050C94AD050C94AD05ED
:100040000C94AD050C94AD050C94AD050C94AD0568
:100050000C94AD050C94BF1A0C94AD050C94AD0531
:100060000C94AD050C94AD050C94AD050C94AD0548
:100070000C94AD050C94AD050C94AD050C94AD0538
:100080000C94AD050C94AD050C94AD050C94AD0528
:100090000C94AD050C94AD050C94AD050C94AD0518
:1000A0000C94AD050C94AD050C94AD054009780990
:1000B0007D09820987098C09910996099B09A00984
:1000C000A509BF09120DD709DA09120DDD09120DB4
:1000D000E009120D750A750AAF0AAF0ACB0C020BC4
:1000E000CB0CCB0C440B220C330C330CBA1DBA1DB9
:1000F000CD1DCD1DC31DCD1DCD1DCD1DBA1DBA1DE0
:10010000C81DCD1DCD1DC81D16233D23DF243D2355
:10011000DF248523A823DF24A324B62400000000C5
:1001200000000000000000000000000000000000CF
:100130007E0F00D4FFFFFFC7000000780000000022
:10014000000000002A2B2800000000000000000032
:100150000000000000000029000000002C1E3420D8
:10016000212224342627252E362D3738271E1F20FE
:100170002122232425263333362E37381F04050643
:100180000708090A0B0C0D0E0F1011121314151687
:100190001718191A1B1C1D2F3130232D3504050685
:1001A0000708090A0B0C0D0E0F1011121314151667
:1001B0001718191A1B1C1D2F3130354C0102E26033
:1001C0000103E2002A00130012000C0018001C00BA
:1001D000280033000F000E000D000B005200380005
:1001E000370036001000110087724F005100500098
:1001F0006564095D1700150008001A001400290045
:100200000A0009000700160004002B62050019000F
:1002100006001B001D00E1002C002A00085DE30021
:10022000E200E0004C0030002F0089002E002D007D
:100230000100310034003300000000004B00870053
:10024000380037003600000001004D004E004A0023
:10025000000001003E003D003C003B003A00010070
:1002600043004200410040003F0001000B5D0000E0
:10027000000045004400010001004C0001000100A5
:1002800001000100000027002600250024002300B3
:10029000010034002300220021000000000087003C
:1002A00020001F001E00000001003800360037004B
:1002B000270001002200210020001F001E00010075
:1002C000000000000000000000000100000000002D
:1002D0000000000000000100010001000100010019
:1002E0000100010000004B004A00F900FB00000083
:1002F00000004E004D00FA00FC000000F00000007D
:10030000F500F400000000000100F300F100F2002D
:100310000000010000000A5C135C0C5D005C000042
:100320000000C95CC75CC55CC25C00000000CA5C20
:10033000C85CC65CC35C0100000000000100010055
:10034000010001000001010101010101010102029E
:100350000202020202020203030303030303030473
:10036000040404040404050505050506060606063E
:10037000070707070708080808090909090A0A0AF8
:100380000B0B0B0C0C0C0D0D0D0E0E0E0F0F0F109A
:100390001011111112121313141415151616171724
:1003A000181819191A1A1B1B1C1D1D1E1E1F202090
:1003B000212222232424252626272829292A2B2CDA
:1003C0002D2D2E2F30313232333435363738393AFD
:1003D0003B3C3D3E3F404142434445464748494AF5
:1003E0004C4D4E4F50515354555658595A5B5D5EC3
:1003F0005F616264656668696B6C6D6F707273755E
:1004000077787A7B7D7E8082838587888A8C8E8FC1
:1004100091939596989A9C9EA0A2A3A5A7A9ABADEF
:10042000AFB1B3B5B7BABCBEC0C2C4C6C9CBCDCFDD
:10043000D1D4D6D8DBDDDFE2E4E7E9EBEEF0F3F58B
:10044000F8FAFDFFFFAA7F554000AF00DA02818F66
:10045000D9F1DB40A4A62EAF00A0C000A1C800AE19
:10046000D580A81FD300408D1420007F3F1F643229
:1004700014783C1E00AE05010902A10185020901A4
:10048000A10005091901290515002501950575012A
:10049000810295017503810105010930093115813A
:1004A000257F95027508810609381581257F9501FC
:1004B00075088106050C0A38021581257F9501759E
:1004C000088106C0C005010906A101050719E02938
:1004D000E7150025019508750181029501750881D0
:1004E000010507190029FF150026FF00950675086C
:1004F00081000508190129059505750191029501ED
:1005000075039101C009023B00020100A0FA090431
:100510000000010301010009211101000122400036
:100520000705810308000A09040100010300000017
:10053000092111010001224F000705820320000A52
:100540001201100100000008EDFEA3DF20000102EF
:1005500003010403300000001A03740072006500F8
:1005600061006400730074006F006E006500340069
:100570003800000012036D00610072006B00730010
:100580006100720064000000040309040000000020
:1005900000003E5B4F5B3E003E6B4F6B3E001C3EDF
:1005A0007C3E1C00183C7E3C18001C577D571C00EC
:1005B0001C5E7F5E1C0000183C180000FFE7C3E7CC
:1005C000FF00001824180000FFE7DBE7FF003048B9
:1005D0003A060E00262979292600407F05050700E6
:1005E000407F05253F005A3CE73C5A007F3E1C1CDB
:1005F0000800081C1C3E7F0014227F2214005F5F4D
:10060000005F5F0006097F017F00006689956A0030
:1006100060606060600094A2FFA2940008047E0401
:10062000080010207E20100008082A1C0800081C62
:100630002A0808001E10101010000C1E0C1E0C00C2
:1006400030383E383000060E3E0E06000000000036
:10065000000000005F000000000700070000147F9A
:10066000147F1400242A7F2A1200231308646200D6
:10067000364956205000000807030000001C2241A4
:1006800000000041221C00002A1C7F1C2A000808D0
:100690003E080800008070300000080808080800C4
:1006A0000000606000002010080402003E5149452F
:1006B0003E0000427F400000724949494600214106
:1006C000494D33001814127F100027454545390065
:1006D0003C4A49493100412111090700364949493D
:1006E0003600464949291E00000014000000004061
:1006F00034000000000814224100141414141400E3
:100700000041221408000201590906003E415D59CA
:100710004E007C1211127C007F49494936003E414F
:10072000414122007F4141413E007F49494941000A
:100730007F09090901003E41415173007F08080803
:100740007F0000417F4100002040413F01007F08C1
:10075000142241007F40404040007F021C027F0085
:100760007F0408107F003E4141413E007F09090996
:1007700006003E4151215E007F09192946002649A5
:100780004949320003017F0103003F4040403F00E0
:100790001F2040201F003F4038403F0063140814D2
:1007A00063000304780403006159494D4300007F4E
:1007B00041414100020408102000004141417F00F6
:1007C00004020102040040404040400000030708CA
:1007D00000002054547840007F28444438003844B6
:1007E00044442800384444287F00385454541800A6
:1007F00000087E0902001824241C78007F080404E5
:10080000780000447D4000002040403D00007F1003
:100810002844000000417F4000007C0478047800F8
:100820007C0804047800384444443800FC1824242C
:10083000180018242418FC007C08040408004854FC
:100840005454240004043F4424003C4040207C00D5
:100850001C2040201C003C4030403C004428102814
:1008600044004C1010107C004464544C44000008B8
:10087000364100000000770000000041360800000B
:100880000201020402003C2623263C000000000076
:100890000000000000000000000000000000000058
:1008A0000000000000000000000000000000000048
:1008B0000000000000000000000000000000000038
:1008C0000000000000000000000000000000000028
:100AC00000000000000000000000000011241FBE14
:100AD000CFEFDAE0DEBFCDBF04B603FE27C08091C2
:100AE000A7059091A805A091A905B091AA05873006
:100AF000904BA740B04BD1F41092A7051092A805D7
:100B00001092A9051092AA0514BE84B7877F84BFEE
:100B10000FB6F894A895809160008861809360007A
:100B2000109260000FBEE0E0F8E3099512E0A0E04B
:100B3000B1E0ECE3F8E502C005900D92AA37B107E9
:100B4000D9F725E0AAE7B2E001C01D92A73AB207A3
:100B5000E1F70E9441140C941C2C0C9400006F923D
:100B60007F928F929F92AF92BF92CF92DF92EF923D
:100B7000FF920F931F93CF93DF93CDB7DEB72A97E2
:100B80000FB6F894DEBF0FBECDBFFC010081D1804F
:100B900083819481892B39F01FEFD11206C091E037
:100BA0000F3F19F403C091E001C090E090FD3AC7F7
:100BB0007F0185E0DE01169601900D928A95E1F79E
:100BC000F70122818E819F81222349F00E94191C06
:100BD000182F682F8E819F810E94931C03C00E9452
:100BE000661C182F20E3129FF001112436E0D39EDB
:100BF000E00DF11D1124E00FF11DEE0FFF1FEC536E
:100C0000FE4F05911491F7018281882389F10C33FD
:100C1000110528F4F801E555FE4F808101C080E2FE
:100C20001F928F931F930F93F70180811F928F93D1
:100C300081811F928F9389E891E09F938F931F92F8
:100C400087E18F9385E591E09F938F930E942429FC
:100C50000FB6F894DEBF0FBECDBF09303DE51307D8
:100C600061F008F4D5C60B30EDE51E0769F0C4C08D
:100C700009303DE5130709F0B2C041E062E0F70139
:100C800082810E949D21CBC0F7018281882309F4D3
:100C9000AFC08091B00282FF07C03CEBC32E31E0B1
:100CA000D32E4AE0642E10C081E90E943C20B7C0D8
:100CB000823009F5F2E0CF0ED11CF60184910E943A
:100CC0003C203FEFC31AD30AF6012491222309F4F2
:100CD000A6C0213009F042C0F601319684918130DE
:100CE00039F7F2E0CF0ED11CF601B4908B2D0E94A3
:100CF0003C208B2D07C0833041F4F2E0CF0ED11C95
:100D0000F60184910E94B31FDCCF843009F065C0E6
:100D1000F2E0CF0ED11CF601249180E090E030E0AB
:100D2000205331092A30310570F4689EA001699E74
:100D3000500D1124C901840F951FFFEFCF1ADF0A50
:100D4000F6012491ECCF009709F4BBCFEFE9FFE067
:100D50003197F1F700C000000197F5CFE22FF0E0E6
:100D6000E45CFE4F7490822F86958695869590E080
:100D7000FC01E45DFE4F84902770912C022E02C08E
:100D8000959487940A94E2F7F1E08F229924FC016C
:100D9000E45EFE4FA490B12C02C0B594A7942A95AE
:100DA000E2F721E0A222BB248114910419F081EE24
:100DB0000E943C20A114B10419F086EE0E943C2050
:100DC000872D0E94C620AB2819F086EE0E94B31F23
:100DD000892809F476CF81EE95CF6F0172CF0A3062
:100DE0008DE5180708F414C60B30EDE51E0721F455
:100DF00081E90E94B31F13C00C30FDE51F0789F481
:100E0000F7018281882359F00E94EE108091A0059D
:100E100081608093A00561E086950E941313D12C18
:100E200002C0DD24D39440919003509191036091CE
:100E300092037091930380906D0390906E03A09045
:100E40006F03B0907003E7EEF1E020E030E08081C6
:100E500090E0A0E0B0E0411551056105710531F465
:100E600088159905AA05BB0579F405C048175907E7
:100E70006A077B0749F449E0429FC001439F900DF8
:100E8000112488519E4F08C02F5F3F4F399625305F
:100E90003105E9F68FE791E02091B00222FF03C00F
:100EA00021E831E002C025E831E09F938F933F9322
:100EB0002F938BE991E09F938F931F9287E18F93FC
:100EC00085E291E09F938F930E9424290FB6F894B6
:100ED000DEBF0FBECDBFDD2009F4A4C5033F3CE556
:100EE0001307C1F180F4083D9CE51907C9F0093DDD
:100EF000ECE51E07D9F1073DFCE51F07D1F526E219
:100F000041EE61EE10C0053F2CE5120759F130F1BA
:100F1000063F8CE5180769F527E245EE66EE03C04B
:100F200027E245EE65EEC7012A960FB6F894DEBFBC
:100F30000FBECDBFDF91CF911F910F91FF90EF902A
:100F4000DF90CF90BF90AF909F908F907F906F90E9
:100F50000C94891226E241EE60EEE5CF27E245EEE1
:100F600064EEE1CF26E241EE62EEDDCF28E241E021
:100F7000D9CFF7019281992309F452C110927A02D4
:100F80000230FCE51F0708F435C106312CE51207D5
:100F900038F098012A5F3C452930310508F02AC114
:100FA0000E94721B9093B1028093B00200313CE525
:100FB000130709F4C3C008F041C008309CE51907C5
:100FC00009F49AC0F0F40430FCE51F0709F487C067
:100FD00068F402303CE5130709F477C003301C4580
:100FE00009F0E5C08091B002826076C006309CE5D1
:100FF000190709F46EC008F07BC08091B0028860C8
:101000006BC00C30FCE51F0709F485C068F40A309A
:101010003CE5130709F474C008F079C00E94931FDF
:101020008091B002806858C00E309CE5190709F421
:1010300076C008F07FC08091B0028BC00B3FFCE50A
:101040001F0709F44FC018F503313CE5130709F4F5
:101050007DC078F401319CE5190709F473C00231B1
:101060001C4509F0A4C00E94931F8091B0028F77A5
:1010700033C00531FCE51F0709F472C008F486C0CF
:101080000A3F1C4509F093C08091B1023EC00F3F5A
:101090008CE5180709F45FC058F40D3FECE51E0716
:1010A00009F444C008F43FC08091B10282602DC0B1
:1010B00001302DE5120709F475C008F45DC0023057
:1010C0001D4509F074C060E06EC08091B00281607F
:1010D00003C08091B00280618093B00268C08091AB
:1010E000B00211C08091B10282608093B1025FC0F2
:1010F0008091B0028062F0CF8091B0028064ECCF2A
:101100008091B00288608460E7CF8160EECF8091EB
:10111000B0028E7FE1CF8091B0028D7FDDCF8091D4
:10112000B002877FD9CF8091B10218C08091B102FF
:101130008D7FDBCF8091B0028F7ECECF8091B002C9
:101140008F7DCACF8091B0028F7BC6CF8091B002D5
:10115000877F8B7FC1CF8091B1028D7F8E7FC5CF7E
:101160008091B00282FB222720F991E0922790FB28
:1011700082F990FB83F9B0CF8091B102982F9095BE
:1011800091708E7F892B90FB81F9AFCF0E94931FC6
:101190008091B00287FB222720F991E0922790FBF3
:1011A00087F99ACF61E08EE090E00E949C286091E0
:1011B000B0021091B10284E090E00E949C28612F5F
:1011C00081E290E00E949C282A960FB6F894DEBF38
:1011D0000FBECDBFDF91CF911F910F91FF90EF9088
:1011E000DF90CF90BF90AF909F908F907F906F9047
:1011F0000C94931F80916B0306312CE51207A1F527
:101200008A7A91E009F490E090937B02882311F0B0
:1012100065E301C069E28AE093E00E94581B0EC0BA
:1012200006311C4509F01DC180917B02882309F419
:10123000F7C365E38AE093E00E944B1B2A960FB642
:10124000F894DEBF0FBECDBFDF91CF911F910F91FC
:10125000FF90EF90DF90CF90BF90AF909F908F90D6
:101260007F906F900C94EC1B8272F801E25CFC455D
:10127000E431F10508F0BCC0EA5AFF4F0C94042990
:101280008091A00580FF2EC08E7F8093A005609185
:10129000A0057091A1058091A2059091A3050E94DF
:1012A000DB0F1092C5029FEFE0E7F2E09150E040C3
:1012B000F040E1F700C000002A960FB6F894DEBFB8
:1012C0000FBECDBFDF91CF911F910F91FF90EF9097
:1012D000DF90CF90BF90AF909F908F907F906F9056
:1012E0000C94CF0E81608093A00561E0869549C083
:1012F0004EE453E167E573E12CC047E553E16EE44A
:1013000073E127C04AEB50E163EC70E122C043EC8B
:1013100050E16AEB70E11DC042EA50E16EEA70E113
:1013200018C04EEA50E162EA70E113C04AE850E1A9
:1013300066E970E10EC046E950E16AE870E109C073
:101340004CEC50E16DED70E104C04DED50E16CEC02
:1013500070E12A960FB6F894DEBF0FBECDBFDF91C5
:10136000CF911F910F91FF90EF90DF90CF90BF90A2
:10137000AF909F908F907F906F900C94C90E61E01A
:1013800081E02A960FB6F894DEBF0FBECDBFDF9185
:10139000CF911F910F91FF90EF90DF90CF90BF9072
:1013A000AF909F908F907F906F900C94131364E098
:1013B00082E008C06AE085E005C06DE08BE002C015
:1013C00067E18EE02A960FB6F894DEBF0FBECDBF60
:1013D000DF91CF911F910F91FF90EF90DF90CF9011
:1013E000BF90AF909F908F907F906F900C946113FF
:1013F00001152CE51207C9F00E3D1C4591F52A9602
:101400000FB6F894DEBF0FBECDBFDF91CF911F9115
:101410000F91FF90EF90DF90CF90BF90AF909F9093
:101420008F907F906F900C94831B0E94931F8FEF7F
:1014300094E3ECE081509040E040E1F700C0000010
:1014400087E797E790930108809300089AE088E186
:101450000FB6F894A895809360000FBE909360003B
:10146000FFCFF70100811181992349F0C8010E9443
:10147000191CD82E682FC8010E94931C04C0C801F3
:101480000E94661CD82EB8018D2D0E94FE108C0182
:10149000982EF701A580A2942FE0A222B280B1106D
:1014A00010926A0380916803877079F0BB2069F01D
:1014B00080E2800F883048F082E00E94EE1C80912C
:1014C00068038770DD24D3948111D12CC12EC2947E
:1014D0009FE0C9228C2D90E08C30910508F05BC212
:1014E000FC01E659FF4F0C940429812F807F1F7067
:1014F000882311F01295107FBB20B9F0112309F455
:1015000035C280E2800F883010F0911006C08091C3
:101510006B03182B10936B0305C080916A03182B83
:1015200010936A030E94EC1B21C2802F0E94B31FFC
:10153000112309F430C2005E1095083010F09110AC
:1015400006C080916B03182310936B0305C0809134
:101550006A03182310936A030E94EC1B1CC2812F9C
:10156000807F1F70803211F01295107F992021F03A
:10157000F1E09F16E1F02AC0BB2081F080916C035E
:10158000AA2051F001E0A01207C0182B181709F487
:1015900002C210936C03FFC1812B10C0AA2021F05E
:1015A00021E0A21609F4F7C10E94E61B27C0BB2068
:1015B00041F035E03A1508F4EEC1812F0E94A91FD1
:1015C000EAC184E08A1508F4E6C118C0BB2049F0DE
:1015D000AA2099F3F701858180FFC8C18F708583A8
:1015E000ECCFAA2059F0093309F0D2C1FFEF17EE72
:1015F00023E0F15010402040E1F7C8C1812F0E9444
:101600009E1FC9C1BB20F9F0053F51F0063F71F0A4
:10161000043FA9F480917C0290917D0281600BC00F
:1016200080917C0290917D02826005C080917C0255
:1016300090917D02846090937D0280937C02802F44
:101640000E94571A1EC0053F51F0063F71F0043F3B
:10165000A9F480917C0290917D028E7F0BC08091D5
:101660007C0290917D028D7F05C080917C029091DB
:101670007D028B7F90937D0280937C02802F0E945D
:101680008D190E940C1B8DC1812F837009F069C0D8
:10169000B11085C1902F929596959770990F990FDB
:1016A000802F8F70882E912CA12CB12C092E04C074
:1016B000880C991CAA1CBB1C0A94D2F704FF12C008
:1016C0004FE050E060E070E004C0440F551F661F1B
:1016D000771F9A95D2F7DB01CA0180959095A09566
:1016E000B09503C080E090E0DC0116951695412F7F
:1016F0004370423019F1C8F400916D0310916E03EC
:1017000020916F0330917003413059F08829992955
:10171000AA29BB29BC01CD01602371238223932315
:101720000AC0802A912AA22AB32ABC01CD016829C5
:1017300079298A299B290E94281D31C18829992944
:10174000AA29BB2900916D0310916E0320916F03AC
:1017500030917003BC01CD01602771278227932748
:10176000EACFBB2019F0812F817001C086958823B4
:1017700009F415C1902F929596959770990F990F2E
:10178000802F8F70882E912CA12CB12C092E04C093
:10179000880C991CAA1CBB1C0A94D2F704FF12C027
:1017A0004FE050E060E070E004C0440F551F661F3A
:1017B000771F9A95D2F7DB01CA0180959095A09585
:1017C000B09503C080E090E0DC0116951695412F9E
:1017D00043704230D9F068F5009190031091910365
:1017E0002091920330919303413059F0882999292F
:1017F000AA29BB29BC01CD01602371238223932335
:101800001EC0802A912AA22AB32A13C088299929A6
:10181000AA29BB2900919003109191032091920372
:1018200030919303BC01CD01602771278227932754
:1018300006C0BC01CD01682979298A299B290E940B
:10184000BF1CADC01F70BB2039F0812F0E94071D47
:10185000802F0E94A91FA3C0802F0E949E1F812F4E
:101860000E94C91C9CC0802F32EF931609F440C01F
:10187000391538F090EF991661F0E1EF9E1699F165
:1018800070C0F3EF9F16D9F124EF921609F44EC001
:1018900068C0BB2019F134E03A1508F47CC01F7110
:1018A00081E090E0A0E0B0E0AC01BD0104C0440FD5
:1018B000551F661F771F1A95D2F78091900390915C
:1018C0009103A0919203B09193038A019B01082791
:1018D00019272A273B27C901B80125C025E02A1569
:1018E00008F459C0DCCFBB2029F0812F8F712CC0A8
:1018F000BB20D9F3812F8F710E94C91C4CC0BB2023
:1019000079F01F7181E090E0A0E0B0E0BC01CD0172
:1019100004C0660F771F881F991F1A95D2F703C05E
:1019200060E070E0CB010E94BF1C35C0BB2079F0A5
:101930001F71812F0E94071D38E0139FC0011124E1
:10194000836080936803812F0E94071D24C081E07B
:101950000E94EE1C81E08A15F0F482E00E94EE1CE9
:101960001AC0BB2039F0AA2009F4BFCF802F0E94F3
:101970003C2011C0AA2009F4BDCF893349F49FEF60
:10198000E7EEF3E09150E040F040E1F700C00000E6
:10199000802F0E94B31F88EF8C0D843010F40E94BA
:1019A0009B0EDD20A9F08091680380FD11C0F70136
:1019B00012828595859585950E94071DC7010E9415
:1019C000AF05809168038595859585950E94C91C12
:1019D00085E0F701DE01119601900D928A95E1F7FD
:1019E00089819A810E94661C9A8100E3809FF001A0
:1019F000112416E0919FE00DF11D11248981E80F5B
:101A0000F11DEE0FFF1FEC53FE4F859194910AC01C
:101A100008309DE5190709F004CA42E061E02FC9CA
:101A200069E208CC2A960FB6F894DEBF0FBECDBF90
:101A3000DF91CF911F910F91FF90EF90DF90CF90AA
:101A4000BF90AF909F908F907F906F900895089572
:101A5000BF92CF92DF92EF92FF920F931F93CF939B
:101A6000DF93E82EF62EE901E42FF0E0611106C0C5
:101A7000EC5BFC4F8491B82EE82F71C0262F30E02C
:101A8000EC5BFC4FE491FE2FCE2ED12C46E0849FE0
:101A9000C00111240FEF10E0B8010E94DC284BEACE
:101AA0004603C001479F900D11248E0D911D8E0D90
:101AB000911D982F990F890FD801A21BB30BAC9DD4
:101AC000A001AD9D500DBC9D500D1124B52EF89E6A
:101AD000D0011124AB2FBB277801EA1AFB0AEC9C3A
:101AE000D001ED9CB00DFC9CB00D11247801E81ADA
:101AF000F108E29EC001E39E900DF29E900D11242C
:101B0000892F9927081B190B0C9D90010D9D300DF5
:101B10001C9D300D1124832F6230710591F048F423
:101B200061157105E1F061307105B9F48E2FEB2F6D
:101B300016C06430710569F040F06630710579F0C7
:101B40000CC08E2FE52FB32E0AC0E52FBF2E8B2F92
:101B500006C0852FBE2EE32F02C0852FBB2EE98342
:101B60008883BA82DF91CF911F910F91FF90EF9000
:101B7000DF90CF90BF9008959091B00292FF0DC07A
:101B8000282F2871283019F4877F846006C0282FF9
:101B90002471243011F48B7F886093FF0DC0282FAF
:101BA0002871283119F4877E846106C0282F24719A
:101BB000243111F48B7E88612091B10220FF0DC089
:101BC000382F3871383019F4877F816006C0382F7C
:101BD0003171313011F48E7F886021FF0DC0282FC4
:101BE0002871283119F4877E816106C0282F217160
:101BF000213111F48E7E886194FD877E08951F93B4
:101C0000CF93DF93CDB7DEB767970FB6F894DEBFFB
:101C10000FBECDBF4B8B5C8B6D8B7E8B8F8B86E02D
:101C20009E01235F3F4FD901E82F1D92EA95E9F706
:101C300095E0FE017396D90101900D929A95E1F716
:101C4000F901DE01179601900D928A95E1F7CE0118
:101C500007960E94D11D81113EC086E0FE01379695
:101C6000DE01119601900D928A95E1F7FF81E885DA
:101C70006A857B856115710531F0EF3F31F481E0B4
:101C8000FF3F19F403C081E001C080E080FD23C064
:101C90002091180330E0C90101968770992740917F
:101CA000490350E08417950779F1F983EA837D832E
:101CB0006C8396E0929FD001939FB00D1124A75E94
:101CC000BC4FFE01319601900D929A95E1F78093F9
:101CD00018030E94321D16E0809149039091180369
:101CE0008917F9F0189FC0011124875E9C4F0E944C
:101CF000D11D8823B1F08091490390E0019687704F
:101D0000992780934903E8CF0E94931F10921803EC
:101D100010924903E2E1F3E086E0DF011D928A952B
:101D2000E9F767960FB6F894DEBF0FBECDBFDF911F
:101D3000CF911F910895E091B302F091B4023097D2
:101D400021F00190F081E02D099480E008950E9437
:101D5000F41ADC01CB01805A9541AF4FBF4F8093FD
:101D6000ED029093EE02A093EF02B093F002809107
:101D7000F10281110BC062E070E089E494E00E94FE
:101D8000DD21892B19F481E08093F1028091F10229
:101D90000895882311F0FA0101C0FB010994809194
:101DA000A00580FF0AC0539A8BB1877F9BB19860D2
:101DB0002FB7F894E2E8F2E00CC0E2E8F2E086EA3D
:101DC00092E011821082128233968E179F07C9F714
:101DD000EACF32E0E63AF30789F0319148E09BB967
:101DE000000000C037FF8BB9330F000000C000C0F7
:101DF00000C08BB900C04A9591F7EBCF2FBF87EC9D
:101E000090E00197F1F700C0000008950F931F9331
:101E1000CF93DF93C2E8D2E0FE01118210821282DA
:101E2000339682E0E63AF807C1F700E010E08091CF
:101E30008102082E000C990B08171907ACF080914D
:101E40000C01082E000C990B801791076CF0409143
:101E5000A3054D3D08F04CED9E016091A2058091D7
:101E6000A1050E94280D03C0198218821A820F5FF3
:101E70001F4F23960C301105D1F60E94CF0E809192
:101E80000B0190918102980F9093810220910C0197
:101E9000280F20930C01121614F49B301CF081952E
:101EA00080930B01DF91CF911F910F910895EF92D5
:101EB000FF921F93CF93DF93EC0182E8E82E82E03C
:101EC000F82E10E04091A3054D3D08F04CED8C81BB
:101ED00097016091A205810F0E94280D1B5E83E08F
:101EE000E80EF11C1C3F71F70E94CF0E9A818C8185
:101EF00090FF02C08F5F01C081508C83DF91CF9132
:101F00001F91FF90EF9008959091A00590FF0CC055
:101F1000E2E8F2E0818360834283339692E0E63A1E
:101F2000F907C1F70C94CF0E08950F931F93CF9329
:101F3000DF9300D01F92CDB7DEB78C018091A00552
:101F400080FF13C04091A3054D3D08F04CED9E016C
:101F50002F5F3F4F6091A205F80184810E94280DF8
:101F60004B8169818A810E94840FF80184818F5F8F
:101F700084830F900F900F90DF91CF911F910F915D
:101F800008958091A005282F269530E02115310570
:101F900019F48170826005C02831310524F0817008
:101FA0008E628093A0058091A3058D3D18F08CED85
:101FB0008093A3050895CF92DF92EF92FF926B0179
:101FC0007C010E94C10FB701A60188E090E0FF905C
:101FD000EF90DF90CF900C94AE285F926F927F923B
:101FE0008F929F92AF92BF92CF92DF92EF92FF9229
:101FF0000F931F93CF93DF9300D01F92CDB7DEB71F
:10200000082F762E142F622E8091A00580FF6FC0BE
:10201000E82FE695AE2FB0E0AC5EBD4F9C9190935B
:10202000C4028E7F823081F44D3D08F04CED9E015C
:102030002F5F3F4F672D802F0E94280D4B816981B4
:102040008A810E94840F41C0923019F40091A10549
:102050003CC09530D9F39E30C1F5EE508E2F817083
:10206000582EE695F0E0EC5BFB4FA590B49082E82B
:10207000C82E82E0D82EE12CF12CBB249CE0892EC6
:10208000912CAE9CC001AF9C900DBE9C900D112474
:10209000B4010E94DC28802F511002C0860F01C0BD
:1020A000861B412F1D3D08F04CED9601672D0E94C7
:1020B000280D8FEFE81AF80A83E0C80ED11C8CE0D7
:1020C000E816F104F1F60E94CF0E0093A10570927C
:1020D000A2051093A305662051F06091A0057091B0
:1020E000A1058091A2059091A3050E94DB0F0F909E
:1020F0000F900F90DF91CF911F910F91FF90EF9074
:10210000DF90CF90BF90AF909F908F907F906F9017
:102110005F900895E0EAF5E0438128E0421B08F46F
:1021200040E021E0628181810C94ED0FE0EAF5E06E
:10213000438128E0420F08F44FEF21E06281818162
:102140000C94ED0FE0EAF5E0628128E0621B08F4F0
:1021500060E021E0438181810C94ED0FE0EAF5E03D
:10216000628128E0620F08F46FEF21E043818181F2
:102170000C94ED0FE0EAF5E0818121E0438162817A
:1021800088500C94ED0FE0EAF5E0818121E0438175
:102190006281885F0C94ED0F8091A405882319F06B
:1021A00081508093A4056091A0057091A105809154
:1021B000A2059091A3050C94DB0F8091A4058330B8
:1021C00018F48F5F8093A4056091A0057091A1051C
:1021D0008091A2059091A3050C94DB0FE0EAF5E055
:1021E00083E0808311828FEF82838CED838314825E
:1021F00060817181828193810C94DB0FCF93DF9397
:1022000020E3829FC0011124FC0146E0749FE00D91
:10221000F11D1124E60FF11DEE0FFF1FEC53FE4FD1
:10222000C591D491CE01C238D10569F1B0F4C13362
:10223000D10509F475C048F4C932D10509F469C063
:10224000CA32D10509F473C079C0C533D10509F488
:1022500059C0C933D105B9F071C0C33ED10571F180
:1022600038F4C03ED105B1F0C23ED10511F166C0CF
:10227000C63ED105B9F1C73ED105C9F1C43ED1056D
:1022800009F05CC024C02091B00220FD3AC121FDBC
:1022900038C154C02091B00220FD2DC12091B1025F
:1022A00020FF34C18091B00284FD22C183EE90E012
:1022B0002DC12091B00222FF29C1F4CF8091B0023C
:1022C00082FD1CC18091B10280FD1BC1EBCF20912A
:1022D000B10221FF1BC18091B00284FD09C187EECC
:1022E00090E014C12091B00223FF10C1F4CF80917F
:1022F000B00283FD09C18091B10281FFECCF84EE71
:1023000090E004C12091B00225FF00C189E290E075
:10231000FDC02091B00225FFF9C085E390E0F6C032
:102320002091B00226FFF2C08AE290E0EFC0209137
:10233000B00226FFEBC081E390E0E8C0C11552E592
:10234000D50778F5C11521E5D20708F09BC0CF3F2E
:10235000D10509F0B8F4C03FD10508F06EC0C53A08
:10236000D10540F4C430D10508F0D0C0219709F45C
:10237000CDC0BEC09E01205E31092830310508F075
:10238000B7C0C4C0C11540E5D40708F05DC0C11591
:1023900050E4D50708F054C0C115D04208F4B6C0C7
:1023A000A7C0C11546E5D40720F5C11555E5D507E9
:1023B00008F082C0C11584E5D80708F078C09E01F6
:1023C000237033279C2F96959695C115D34508F019
:1023D0005EC041E050E002C0440F551F2A95E2F76D
:1023E00080E2989F90011124CA01822B932B9C6854
:1023F0008DC0C1155AE5D50778F4C11589E5D80710
:1024000008F063C0C11528E5D20708F471C09C2FFD
:102410008827806F906A7AC0CE01905681159042CD
:1024200008F066C08D2F8F710E94BC0D9E0133276E
:1024300030628F71A901582B59C0CE01906566C0DA
:10244000CE019F70906A62C0CE01F4E096958795A8
:10245000FA95E1F7282F23703C2F337081E090E04C
:1024600002C0880F991F3A95E2F79C68922B2C2F97
:102470002F702695269550E2259F90011124822BDE
:10248000932B44C09C2F8827816F906A3FC041E006
:1024900050E002C0440F551F2A95E2F780E2989F52
:1024A00090011124CA01822B932B9A682FC09C2F74
:1024B0008827846F906A2AC08C2F0E94BC0D8F7170
:1024C00090E0982F8827906221C08C2F8F700E94F7
:1024D000BC0D9E0194E0369527959A95E1F72F70F3
:1024E00030E0322F22273069A901482BCA010EC0E3
:1024F00080E090E00BC089E390E008C082EE90E0BD
:1025000005C080EE90E002C086EE90E0DF91CF91B2
:1025100008950F931F93CF93DF93C62FD42F122FBD
:10252000FC0182818823C9F060937A020E94001B1B
:102530009093A7028093A60280E28C0F883008F067
:1025400057C0C77081E001C0880FCA95EAF7DF91D4
:10255000CF911F910F910C94A91F80917A0268135B
:1025600030C08091A6029091A7020E94E51A813E98
:10257000910538F500E20D0FCD17B9F080E28C0F10
:10258000883040F4C77081E001C0880FCA95EAF72F
:102590000E949E1F083028F581E09D2F977001C092
:1025A000880F9A95EAF70E94A91F812F0E94C620E2
:1025B0000830F0F4D77081E001C0880FDA95EAF7AF
:1025C0000AC080E28C0F883098F4C77081E001C0A7
:1025D000880FCA95EAF7DF91CF911F910F910C9464
:1025E0009E1F812FDF91CF911F910F910C94C620D8
:1025F000DF91CF911F910F9108956091A00566958D
:1026000070E04BE050E080E091E00E940A29892BC5
:1026100019F481E08093C5020E94001B9093BF02D1
:102620008093BE0208959091A00590FF36C09170EE
:10263000811102C0926006C0883110F09E6202C013
:10264000880F982B9093A005662351F06091A00508
:102650007091A1058091A2059091A3050E94DB0FC6
:102660006091A005669570E04BE050E080E091E05D
:102670000E940A29892B19F01092C50202C00E94FB
:10268000FD1281E08093C10220E04091A30560919A
:10269000A2058091A1050C94ED0F08958091A005ED
:1026A0008695815009F487E161E00C9413138091C1
:1026B000A00586958F5F883108F081E061E00C9479
:1026C00013139091A00590FF04C09695981740F0C1
:1026D00003C0811105C090E0961710F40C945713B5
:1026E00061E00C9413135F926F927F928F929F928E
:1026F000AF92BF92CF92DF92EF92FF920F931F9310
:10270000CF93DF9364E672E008EA12E0D801612C0F
:10271000EE24E394F12C5D015C901C92EB01899115
:10272000BE01E82FE295EF70F0E021A18F70A701C4
:1027300002C0440F551F8A95E2F7CA01242B21A33A
:1027400022A1942E9094292122A350EA5A95F1F7C0
:102750009CE6C92E92E0D92E40E050E0E601899037
:102760006E01282D22952F7030E0E90128A17C9080
:1027700030E0D82DDF7002C035952795DA95E2F765
:1027800020FD08C03E2D042E01C0330F0A94EAF745
:10279000232F01C020E027292C934F5F5F4F463045
:1027A0005105E1F691A1992291A292A1892B82A3D0
:1027B000119681E0F5019081951101C080E0682AB1
:1027C000F2E0A03BBF0709F0A6CF662049F081E008
:1027D000809380020E94001B90937F0280937E0270
:1027E000809180028823A1F080917E0290917F02E7
:1027F0000E94E51A069760F0E6EBF2E0D8018D91B1
:102800008D018193B2E0003B1B07C1F7109280025B
:10281000862DDF91CF911F910F91FF90EF90DF9068
:10282000CF90BF90AF909F908F907F906F905F9070
:102830000895089508959C0180918603843001F5E0
:1028400082E08093E9009FEF8091E800915085FD40
:1028500006C085ED8A95F1F700009111F5CF8091C2
:10286000E80085FF0DC0C90140E050E066E070E07F
:102870000E9406228091E8008E778093E8000895F8
:102880000895CF93DF93CDB7DEB762970FB6F89474
:10289000DEBF0FBECDBF84B7877F84BF0FB6F8946D
:1028A000A89580916000886180936000109260001C
:1028B0000FBE90E080E80FB6F8948093610090938B
:1028C00061000FBE85B7806885BF85B7806885BF0A
:1028D0000E944B250E94F1258091E2008460809344
:1028E000E2007894809186038823A1F01091E9009A
:1028F0001F709091EC00892F817090FD80E8182B5B
:102900001092E9008091E80083FD0E9432221F703E
:102910001093E90082E084BD93E095BD9AEF97BDE6
:1029200080936E00A4E6B2E04CE652E061E070E015
:102930008D91E82FE295EF70F0E021A18F708B016F
:1029400002C0000F111F8A95E2F7C801902F9095E1
:10295000922391A392A1892B82A34A175B0741F787
:10296000ACE6B2E042E752E061E070E08D91E82F22
:10297000E295EF70F0E021A18F708B0102C0000F93
:10298000111F8A95E2F7C801902F9095922391A389
:1029900092A1892B82A34A175B0741F7E8EAF2E08C
:1029A00080EB92E0A6EBB2E011921D928E179F078A
:1029B000D9F780E090E00E9496288C3E9E4F11F05F
:1029C0000E94831B1092EB0280E8809394030E9484
:1029D0009A276DE070E08EE594E00E94DD21892B5E
:1029E00009F043C08091EB0263E070E081FD3AC0E2
:1029F0008BE594E00E94DD21892BB9F56DE070E054
:102A00008BE494E00E94DD21892B79F50E94F41A71
:102A1000DC01CB01805A9541AF4FBF4F8093ED024F
:102A20009093EE02A093EF02B093F002E7E9F3E097
:102A300080E092E0DF018C011D9201501040E1F72F
:102A4000F0939E05E0939D058FEF9FEF9093960383
:102A50008093950381E08093F2028093F1021092BB
:102A6000EC0203C088E594E0C5CF80E090E00E94CE
:102A700096288C3E9E4F11F00E94831B82E090E0CE
:102A80000E948828809301030E94721B9093B102D8
:102A90008093B00283E090E00E948828682F70E065
:102AA00080E090E00E94281D8091B202811136C022
:102AB00080E090E00E9496288C3E9E4F21F00E947C
:102AC000831B0E94EE1088E090E00E9490286093A3
:102AD000A0057093A1058093A2059093A3056E7F36
:102AE00071F40E94EE1088E090E00E9490286093BC
:102AF000A0057093A1058093A2059093A3050E9461
:102B0000C10F1092C5028091A00580FF04C060E053
:102B100086950E94131381E08093B20284E791E0CE
:102B20009093B4028093B30244244394512C1AE747
:102B3000212E12E0312E80918603853009F058C095
:102B400080918603843009F441C01092B50220E4DC
:102B500088E190E00FB6F894A895809360000FBECE
:102B6000209360001092C5028091A605811117C0C4
:102B700081E08093A6058091A005982F9170909395
:102B8000A5058E7F8093A0053FEF40E782E031509E
:102B900040408040E1F700C000000E94CF0E83B7A4
:102BA000817F846083BF83B7816083BF7894889579
:102BB00083B78E7F83BF0FB6F894A895809160008D
:102BC000886180936000109260000FBE8091850341
:102BD000882309F4B0CF0E9473138EEB92E0E6EBEA
:102BE000F2E0219121114BC38E179F07D1F7A3CF9C
:102BF0000E947313D82EE2E0F3E0A6EBB2E000E00F
:102C000010E0302F2D919191922721F180E0FF2447
:102C1000F3944F2D4923D1F08F8338872F2181E002
:102C200009F480E089870E94001B8160782F9B87D0
:102C30008A874F81588569858B850E94FF0DF80131
:102C4000EE5FFC4F8081F826F08219C08F5FFF0C89
:102C50008630F9F60F5F1F4F0830110591F68FEFA0
:102C60008C878D871E860E94001B8160782F988B31
:102C70008F874C855D856E8588890E94FF0D8091C8
:102C8000C502882309F45CC08091C402E091A005CC
:102C9000E695E81BE093C002823049F4F0E0EF587B
:102CA000FB4FE491EE2EF12C05E91FE01DC08530AD
:102CB00051F4E695F0E0E259FB4FE491EE2EF12C51
:102CC00007E51FE011C08B3049F4F0E0E559FB4FF8
:102CD000E491EE2EF12C06E01FE006C0A0EDEA2EF6
:102CE000A7E0FA2E07E21DE08091C102882389F057
:102CF0001092C1020E94001B970120953095820F0F
:102D0000931F9093BF028093BE021092C302109251
:102D1000C2028091BE029091BF020E94E51A8E15F8
:102D20009F0570F0E091BE02F091BF02EE0EFF1E13
:102D3000F092BF02E092BE028EEB92E0F80109959C
:102D40008091F202882309F491C107E913E01093FE
:102D50009E0500939D054091C6023091A00580918B
:102D6000A1059091A2052091A30543130CC04091A9
:102D7000C702481308C04091C802491304C04091DB
:102D8000C9024217A9F126952695269596959695FE
:102D90009695869586958695432F469530FD02C07B
:102DA0003EE201C03AE21F922F931F929F931F921F
:102DB0008F931F924F931F923F938AE392E09F93CA
:102DC0008F931F9287E18F938DE091E09F938F9374
:102DD0000E94242985E0E0EAF5E0A6ECB2E001904B
:102DE0000D928A95E1F70FB6F894DEBF0FBECDBF06
:102DF0008DE091E00E94852185E291E00E9485218D
:102E00000E949B0E80FD03C02AE931E002C02CE243
:102E100032E081FD03C04AE951E002C040E352E0E4
:102E200082FD03C08AE991E002C085E392E09F93AE
:102E30008F935F934F933F932F9385E592E09F93FA
:102E40008F931F9287E18F93EDE3F1E0FF93EF9370
:102E50000E9424298DE391E00E94852185E591E07F
:102E60000E94852120919503309196030FB6F89426
:102E7000DEBF0FBECDBF2115310509F4D7C080914B
:102E8000EC028111D3C0082F10E07201082E02C09D
:102E9000EE0CFF1C0A94E2F7A70142235323452BB3
:102EA00011F48F5FF0CF9091EB029801F5E0220FC3
:102EB000331FFA95E1F790FD12C08295880F807656
:102EC00080936F01220F232F221F330B3195209304
:102ED0007201815E809370011092730112C075E0DF
:102EE000369527957A95E1F7220F220F220F20932E
:102EF0006F0110927201295F2093700183E080932B
:102F0000730124E630E047E050E06DE671E088E7C9
:102F10000E942728892B09F089C08091EB0280FD4F
:102F200022C0A80165E0440F551F6A95E1F7495694
:102F30005C4F04E610E020E230E060E488E70E94A5
:102F40004E28892B09F072C00E94A70EE094F094DD
:102F50008091950390919603E822F922F0929603CE
:102F6000E092950363C080E2ABECB2E01D928A95DB
:102F7000E9F7A80135E0440F551F3A95E1F7E6E778
:102F8000F2E0FA8BE98B02E712E0A989BA898D9108
:102F9000BA8BA98BF80191918F01BA01690F711D4C
:102FA00069567C4F90E085539D4FFC0127E0922E9F
:102FB0009F01281B390B742C01C0770C2A95EAF766
:102FC0005B01812CD501CD905D01C720292D2819E9
:102FD0002770622E022E000C330BBC2D01C0BB0FDC
:102FE0006A94EAF76B2E31952195310927703327C2
:102FF00001C0C6942A95EAF76C28C0806C286082CC
:10300000839428E08212DECF9A9431963FEF931298
:10301000CFCF89899A892816390609F0B6CF04E6F8
:1030200010E020E230E04BEC52E087CF8091F102DB
:103030008823E1F00E94F41A0091ED021091EE0253
:103040002091EF023091F002DC01CB01801B910B4B
:10305000A20BB30BB7FD0AC062E070E084E794E016
:103060000E94DD21892B11F41092F102D1100E94EF
:10307000A70E86E0EAEFF2E0DE01119601900D92D4
:103080008A95E1F78091FC02811105C08091FD02D3
:10309000882309F471C08091F8029091F9020E948E
:1030A000E51AAC019091F70221E030E0911102C0E5
:1030B00020E030E02417350708F05EC09F3F19F08C
:1030C0009F5F9093F7021092FE021092FF02809190
:1030D000FC02181624F40E94341A8093FC0280919A
:1030E000FC0287FF05C00E94341A81958093FC0280
:1030F0008091FD02181624F40E94341A8093FD0278
:103100008091FD0287FF05C00E94341A819580934B
:10311000FD023091FC023323E1F02091FD022223D5
:10312000C1F005EB3003C0011124992319F09093ED
:10313000FC0203C081E08093FC0215EB2103C00177
:103140001124992319F09093FD0203C081E080932C
:10315000FD020E940C1B8091F5029091F602909363
:10316000F9028093F80286E0FE013196AAEFB2E000
:1031700001900D928A95E1F78091FE02811105C0C0
:103180008091FF02882309F46EC08091F302909130
:10319000F4020E94E51A9C019091F702992309F428
:1031A00084C02536310508F45EC09F3F19F09F5F4B
:1031B0009093F7021092FC021092FD028091FE02A1
:1031C000181624F40E94121A8093FE028091FE02C7
:1031D00087FF05C00E94121A81958093FE0280919C
:1031E000FF02181624F40E94121A8093FF028091A5
:1031F000FF0287FF05C00E94121A81958093FF028B
:103200003091FE023323E1F02091FF022223C1F02E
:1032100045EB3403C0011124992319F09093FE0269
:1032200003C081E08093FE0205EB2003C00111245E
:10323000992319F09093FF0203C081E08093FF026D
:103240000E940C1B8091F5029091F6029093F4027B
:103250008093F30286E0FE013196AAEFB2E001907E
:103260000D928A95E1F70E949B0E909100038917B9
:1032700009F461CC0E949B0E809300035CCC80E13A
:1032800089BD82E189BD09B400FEFDCF8091D800DF
:103290008F7D8093D8008091E00082608093E00071
:1032A0008091E00081FDFCCF46CC2D32314008F00A
:1032B0007ECFD9CF80917B030895CF93DF93209168
:1032C0008603243039F521E02093E9002FEF309177
:1032D000E800215035FD06C035ED3A95F1F70000C4
:1032E0002111F5CF2091E80025FF14C0EC0140E04A
:1032F00050E068E070E00E9406228091E8008E773E
:103300008093E80088E0FE01ACE7B3E001900D9205
:103310008A95E1F7DF91CF910895803F39F480914C
:10332000FD0287FF6CC01092FD0269C0813F29F445
:103330008091FD021816BCF362C09091FC02823F9E
:1033400029F497FF5CC01092FC0259C0833F19F426
:103350001916CCF354C0893F41F48091FE0218162F
:103360000CF04DC01092FE024AC08A3F29F48091B1
:10337000FE0287FF44C0F6CF8B3F39F48091FF02F5
:1033800087FF3DC01092FF023AC08C3F29F4809124
:10339000FF021816BCF333C0843F21F48091FB0276
:1033A0008E7F17C0853F21F48091FB028D7F11C075
:1033B000863F21F48091FB028B7F0BC0873F21F475
:1033C0008091FB02877F05C0883F31F48091FB022A
:1033D0008F7E8093FB0213C08D3F21F48091750393
:1033E0008E7F0BC08E3F21F4809175038D7F05C0C9
:1033F0008F3F29F4809175038B7F809375038091B3
:10340000FC0281110EC08091FD0281110AC08091E1
:10341000FE02811106C08091FF02811102C010924C
:10342000F70208958091750380FD16C081FD16C0D6
:1034300082FD18C08091F702882391F0883290F4C1
:1034400028E0829FC001112468E270E00E94F02809
:10345000862F672B29F007C082E0089584E0089545
:1034600081E0089588E008958091750380FD17C07C
:1034700081FD17C082FD19C08091F702882399F061
:10348000863998F42CE0829FC001112466E970E02F
:103490000E94F028862F672B49F481E0089583E08D
:1034A000089586E0089584E008958CE00895803FB3
:1034B00021F40E94341A819504C0813F29F40E94AE
:1034C000341A8093FD020895823F21F40E94341A39
:1034D000819504C0833F29F40E94341A8093FC0232
:1034E0000895893F19F40E94121A05C08A3F31F4E9
:1034F0000E94121A81958093FE0208958B3F21F459
:103500000E94121A819504C08C3F29F40E94121A5D
:103510008093FF020895843F21F48091FB02816033
:1035200017C0853F21F48091FB02826011C0863F65
:1035300021F48091FB0284600BC0873F21F48091CD
:10354000FB02886005C0883F31F48091FB028061F6
:103550008093FB0208958D3F21F480917503816073
:103560000BC08E3F21F480917503826005C08F3FB0
:1035700029F480917503846080937503089578948D
:103580001F920F920FB60F9211248F939F93AF93B8
:10359000BF938091710390917203A0917303B091D6
:1035A00074030196A11DB11D809371039093720362
:1035B000A0937303B0937403BF91AF919F918F91C8
:1035C0000F900FBE0F901F9018959C014FB7F89465
:1035D0008091710390917203A0917303B091740371
:1035E0004FBF821B930B08952FB7F894609171031E
:1035F0007091720380917303909174032FBF0895AB
:103600002FB7F8948091710390917203A091730386
:10361000B09174032FBF0895E091B302F091B4020A
:10362000309749F082E08093FA020480F581E02D22
:103630008AEF92E009950E94001B9093F602809316
:10364000F50208951F920F920FB60F9211248F93D7
:103650009F93AF93BF938091B502811113C0809166
:10366000710390917203A0917303B091740341961A
:10367000A11DB11D8093710390937203A0937303F6
:10368000B0937403BF91AF919F918F910F900FBE34
:103690000F901F9018959C012A5F3F4FFC014281BB
:1036A000461301C01282019682179307B9F7089555
:1036B0009C01FC0132969FEF80E04191461789F012
:1036C0009F3F19F4411101C0982F8F5F8630A9F7F1
:1036D0009F3F39F0F901E90FF11D97FDFA956283DB
:1036E00008950895CF9384E090E00E948828C82F21
:1036F00081E290E00E9488282C2F30E0A901582B0D
:10370000CA01CF9108956CEE7EEF80E090E00E94B8
:10371000BA2860E082E090E00E949C2860E083E0AC
:1037200090E00E949C2810926D0310926E031092FC
:103730006F031092700360E084E090E00E949C2888
:1037400060E081E290E00E949C2860E085E090E0EB
:103750000E949C2860E086E090E00E949C286FEF29
:1037600087E090E00E949C2840E050E0BA0188E0A9
:1037700090E00E94AE2860E08DE090E00E949C28DE
:1037800040E050E0BA0188E190E00E94AE2860E09D
:1037900087E190E00E949C2840E050E0BA018CE173
:1037A00090E00E94AE2860E080E290E00E949C28B9
:1037B00040E050E0BA018FE090E00E94AE2840E087
:1037C00050E0BA0183E190E00C94AE2880916C0344
:1037D000811110926C03089590916B0380916A039C
:1037E000892B20916903982F922B90930A03809143
:1037F0006C03882389F0892B80930A03ECE0F3E0C3
:1038000097E080E0915029F021912223D9F38F5F36
:10381000F9CF81110E94E61BE091B302F091B4024E
:10382000309731F00280F381E02D8AE093E0099433
:103830000895BF92CF92DF92EF92FF920F931F9362
:10384000CF93DF938C01C0909003D0909103E090D0
:103850009203F090930380916D0390916E03A09179
:103860006F03B0917003C82AD92AEA2AFB2ACFE154
:10387000D0E0D701C6010C2E04C0B695A795979548
:1038800087950A94D2F780FD04C0219790F7B12C58
:1038900007C0BC2EB8018C2F0E94FE100197A9F31F
:1038A0008B2DDF91CF911F910F91FF90EF90DF90C3
:1038B000CF90BF900895CF93DF93EC010E94191C25
:1038C000BE010E94FE10DF91CF910895292F220F93
:1038D000920F990F890F682F669566956695982FB8
:1038E000977085E0689FB001112440E050E080E0CF
:1038F000FB01E40FF51FE65BFC4F208130E0092E51
:1039000002C0369527950A94E2F721703327042EDA
:1039100001C0220F0A94EAF7822B4F5F5F4F4530B8
:10392000510531F70895292F220F920F990F890F12
:10393000E82FE695E695E695877051E001C0550FB2
:103940008A95EAF785E0E89FF0011124E65BFC4FD9
:1039500020E030E070E04081CB01022E02C096955D
:1039600087950A94E2F781708195842785238427BF
:1039700081932F5F3F4F2530310569F7089560939C
:1039800090037093910380939203909393030C940C
:10399000801F0F931F9341E050E060E070E004C08F
:1039A000440F551F661F771F8A95D2F74095509593
:1039B000609570958091900390919103A0919203EE
:1039C000B09193038A019B01082319232A233B23E7
:1039D000C901B8011F910F910C94BF1C209168037D
:1039E0008095822380936803982F977079F430E054
:1039F000482F082E000C550B2417350739F08595F4
:103A0000859585950E94C91C1092680308950F93AF
:103A10001F9341E050E060E070E004C0440F551F88
:103A2000661F771F8A95D2F780919003909191033A
:103A3000A0919203B09193038A019B01082B192B4B
:103A40002A2B3B2BC901B8011F910F910C94BF1C6D
:103A500060936D0370936E0380936F039093700374
:103A60000C94801F8091490390911803891719F0D5
:103A70008F5F8770FBCF08950F931F93CF93DF93D2
:103A80008091170382958F7009F05DC080911403B7
:103A9000882309F458C0809149031091180360915C
:103AA000120370911303C0911503D091160391E096
:103AB0006F3F09F090E0292F06E0811709F443C019
:103AC000209721F07F3F21F030E003C031E001C0BA
:103AD000322F90E030FD34C0089FF001099FF00DB7
:103AE0001124DF01A75EBC4F11963C91119737134B
:103AF00027C03C91361324C012963C911297311185
:103B00001FC013964D915C9114974C1B5D0B413E69
:103B10005105B0F4809117038F7080618093170373
:103B2000E25EFC4F80818F708061808382E193E050
:103B30000E94AF05DF91CF911F910F910C94321D20
:103B400001968770BACFDF91CF911F910F910895A1
:103B50000E945B1C292F2F70E92FE295EF704E2FEA
:103B600050E0FA013297EE30F105B8F4EA58FF4F11
:103B70000C940429803F99F018F4883E70F40FC02B
:103B8000843F59F40CC0883E50F0813F31F407C0A7
:103B9000822F869586958695089580E0089581E028
:103BA00008959F92AF92BF92CF92DF92EF92FF92D1
:103BB0000F931F93CF93DF93CDB7DEB761970FB607
:103BC000F894DEBF0FBECDBF8C0185E0F801DE01A9
:103BD0001D9601900D928A95E1F7F80190818181FF
:103BE000E2803091120360911303409115035091CC
:103BF00016034115510531F06F3F31F421E03F3F8D
:103C000019F403C021E001C020E0F22FF1709F2ED3
:103C100020FD23C1F801C380D48022E1A22E23E03D
:103C2000B22EF0901403F601E41BF50BFF2009F40B
:103C3000CEC020911703E13EF10508F099C0422F54
:103C4000407F09F051C0681311C039130FC0FE2C1A
:103C5000E1100CC02F70206120931703C5010E9452
:103C6000AF0580911703F801858337C1CD2831F066
:103C70008F3F31F421E09F3F19F403C021E001C0E0
:103C800020E020FD03C021E02E2502C020E030E02E
:103C9000F22FF170FF2E20FF1DC0209149034091AB
:103CA000180356E0241709F4F6C030E0529FF001E3
:103CB000539FF00D1124E75EFC4F6181861306C00F
:103CC0006081961303C06281E61204C02F5F3F4FEC
:103CD0002770E8CFFE2CEE2009F4FFC08091170377
:103CE00081608093170350C0681307C0391305C063
:103CF000E11003C0F80125838DC09D878E878D85D7
:103D00009E850E94A81D882369F1EE2059F120911B
:103D10001703822F82958F7090E0029774F0809144
:103D200012039091130398878F831986DB86CA86C6
:103D30002C87CE0107960E94AF0586E0F801A2E12C
:103D4000B3E001900D928A95E1F70E943C1D0DC0F1
:103D50006817E1F09D878E878D859E850E94A81D3E
:103D600081111EC0C8010E94AF05FF24F394B5C0A5
:103D7000422F407F69F782E193E00E94AF0586E021
:103D8000F50111928A95E9F7F12CA7C03913E2CF1A
:103D9000E110E0CFF8012583C8010E94AF0557C0AC
:103DA000EE2001F320911703822F82958F7090E00F
:103DB00002971CF280911203909113039A838983D6
:103DC0001B82DD82CC822E83CE010196B4CFE13EF0
:103DD000F105E8F5FE2CEE2029F2681327C039130F
:103DE00025C02091170320FD18C0822F82958F7067
:103DF000482F50E04115510581F0F80125834F30DF
:103E0000510541F08F5F982F9295907F822F8F7090
:103E1000892B8583C8010E94AF0586E0F801A2E1E5
:103E2000B3E001900D928A95E1F757C09D878E8788
:103E30008D859E850E94A81D81117FCF80911703DB
:103E4000816080931703C8010E94AF0546C086E0D9
:103E5000F50111928A95E9F740C0EE2009F482CF6E
:103E60009D878E878D859E850E94A81DF82E8823AC
:103E700009F478CF86E0F801A2E1B3E001900D9259
:103E80008A95E1F780911203909113030E945B1CC5
:103E90000E943C1D22C09D878E878D859E850E9435
:103EA0005B1C292F22952F70223028F49F7039F047
:103EB000811105C00BC0243028F49F7049F4805E46
:103EC000883020F0C8010E94AF059F2CF92C05C056
:103ED000F8019581907F99F7F9CF8F2D61960FB6F4
:103EE000F894DEBF0FBECDBFDF91CF911F910F9130
:103EF000FF90EF90DF90CF90BF90AF909F9008958C
:103F000010926A03109269030E94EC1BEAEFF2E040
:103F100086E0DF011D928A95E9F71092F702109270
:103F200075030C940C1B10926B0386E0ECE0F3E03D
:103F3000DF011D928A95E9F70C94801F882341F0D8
:103F4000809590916B03892380936B030C94EC1BF9
:103F50000895882339F090916B03892B80936B032C
:103F60000C94EC1B0895882309F485C0823869F409
:103F70000E949B0E81FF7FC069E38AE093E00E946C
:103F8000581B0E94EC1B69E30EC0833891F40E9419
:103F90009B0E80FF70C063E58AE093E00E94581B8F
:103FA0000E94EC1B63E58AE093E00E944B1B0C949B
:103FB000EC1B843869F40E949B0E82FF5CC067E4AE
:103FC0008AE093E00E94581B0E94EC1B67E4EBCF51
:103FD0009CEF980F913A10F4682FE5CF90E2980F7C
:103FE000983088F4877021E030E0A90102C0440FC6
:103FF000551F8A95E2F7CA01809590916B0389233A
:1040000080936B03D4CF9BE5980F9330A0F48091FD
:10401000760390917703892B71F1109277031092B8
:104020007603E091B302F091B402309721F106805B
:10403000F781E02D17C098E5980F9731B0F4809183
:10404000780390917903892BB1F010927903109243
:104050007803E091B302F091B402309761F00084EC
:10406000F185E02D80E090E00994803F20F00E94EF
:104070008D190C940C1B0895CF93882309F484C0E8
:10408000C82F8238B1F40E949B0E81FD7DC069E388
:104090008AE093E00E94581B0E94EC1B2FEF81EEF8
:1040A00094E0215080409040E1F700C0000069E3B7
:1040B00017C08338E1F40E949B0E80FD65C063E564
:1040C0008AE093E00E94581B0E94EC1B2FEF81EEC8
:1040D00094E0215080409040E1F700C0000063E58B
:1040E0008AE093E00E944B1BCF910C94EC1B843828
:1040F000B1F40E949B0E82FD47C067E48AE093E022
:104100000E94581B0E94EC1B2FEF81EE94E021507F
:1041100080409040E1F700C0000067E4E1CF8CEF01
:104120008C0F813A80F4ECE0F3E082E193E021919E
:10413000C21711F18E179F07D1F76C2F8AE093E019
:104140000E94581BD1CF80E28C0F883068F4C77072
:1041500081E090E001C0880FCA95EAF790916B0367
:10416000892B80936B03C0CFC03F70F08C2F0E94CF
:10417000571ACF910C940C1B6C2F8AE093E00E948D
:104180004B1B0E94EC1BD9CFCF910895CF93C82F22
:104190000E943C20C93349F42FEF87EE93E0215071
:1041A00080409040E1F700C000008C2FCF910C942C
:1041B000B31FCF93DF93C0919D05D0919E058A30A8
:1041C000B1F420919403CE0187599340622F70E09F
:1041D0000E94DC28281B822F66E00E94D028C82F6E
:1041E000C15008F48FC080E20E94D920F9CF8D30F1
:1041F000E9F4C759D34020919403622F70E0CE01B7
:104200000E94DC28281B822F9E01280F311D2115BA
:10421000324018F080E0C0E0D0E0C80FD11DC95690
:10422000DC4FD0939E05C0939D056CC096E0FE01C7
:10423000A7E9B5E001900D929A95E1F7803E30F044
:1042400086E0FE0111928A95E9F70BC0F6E08F9F98
:10425000B001112464577A4F46E050E0CE010E942D
:104260007F28C0919D05D0919E0546E050E0BE019B
:1042700087E995E00E941729892B49F19E0127596A
:104280003340A90185E0569547958A95E1F781E08D
:1042900090E0BC0102C0660F771F4A95E2F740919B
:1042A000950350919603462B572B2A5F3F4F65E0AD
:1042B000369527956A95E1F702C0880F991F2A95D0
:1042C000E2F7842B952B90939603809395039E01A0
:1042D0002159334040919403642F70E0C9010E943A
:1042E000DC28481B463010F4240F311D211582E0D4
:1042F000380710F020E030E029563C4F30939E05FF
:1043000020939D05DF91CF9108950F931F93CF9335
:10431000DF93EC01FC0101900020E9F78F010150CF
:104320001109C017D10720F489910E94D920F9CF33
:10433000DF91CF911F910F910895CF93DF93C62FF7
:10434000D42F882321F0862F0E94071D03C0862FBB
:104350000E94C91C41E050E060E070E0DB01CA014E
:1043600004C0880F991FAA1FBB1FDA95D2F704C09B
:10437000440F551F661F771FCA95D2F7842B952BC4
:10438000A62BB72B4091900350919103609192031B
:1043900070919303482359236A237B23841795073D
:1043A000A607B70729F483E0DF91CF910C94071D8E
:1043B00083E0DF91CF910C94C91CEF92FF920F9391
:1043C0001F93CF93DF93EC017B0164E670E088E7F5
:1043D0000E94A0278C01EC0EFD1ECE15DF0561F0BA
:1043E00017FD0AC0FE01849164E670E00E94F72781
:1043F0008C012196892B89F30E947B28C801DF91CB
:10440000CF911F910F91FF90EF900895EF92FF923F
:104410000F931F93CF93DF937C018B010E946A253A
:10442000811119C0E70101151105A1F08091E80083
:1044300085FD0AC08091E8008E778093E8000E9495
:104440006A25882381F307C089918093F100015088
:104450001109E9CF80E0DF91CF911F910F91FF907B
:10446000EF9008951F93CF93DF93CDB7DEB7AA9750
:104470000FB6F894DEBF0FBECDBFE8E8F3E0809141
:10448000F100819323E0E039F207C9F780918903B5
:10449000833009F460C030F4813071F0823009F467
:1044A0009AC0B1C08A3009F486C08B3009F46BC061
:1044B000893009F0A8C020C080918803813A09F0B2
:1044C000A2C08091E800877F8093E80080918C03F0
:1044D00090918D03892B21F468E08CE793E003C071
:1044E00060E080E090E070E00E943C278091E8006E
:1044F0008B778093E80087C080918803813209F030
:1045000082C080918C0390918D03029708F07BC04C
:104510008091E800877F8093E8008091E80082FD29
:1045200005C0809186038111F8CF6DC02091F30002
:104530008091F20090E0922B029729F48091F10093
:104540008B7F813021F48091F10080937B038091F7
:10455000E8008B7754C080918803813A09F053C0FA
:1045600080918C0390918D03892B09F04CC0809130
:10457000E800877F8093E8008091E80080FFFCCF0F
:1045800080917E0137C0809188038132E1F580916E
:104590008C0390918D03892BB1F58091E800877F82
:1045A0008093E8000E949D2580918A0380937E017C
:1045B0000E94931F28C080918803813221F5809149
:1045C000E800877F8093E8000E949D2580918B03FF
:1045D00080937A0318C080918803813AA1F4809176
:1045E000E800877F8093E8008091E80080FFFCCF9F
:1045F00080917A038093F1008091E8008E77809318
:10460000E8000E949D258091E80083FFD8C1809139
:10461000880390918903492F50E04A30510508F0F2
:10462000CEC1FA01EC57FF4F0C940429803821F0D9
:10463000823809F0C4C108C0809184039091850339
:10464000992389F082600FC080918C038F7087302E
:1046500008F0B5C18093E9008091EB0085FB8827C5
:1046600080F91092E9009091E800977F9093E8001C
:104670008093F1001092F10071C1282F2D7F09F075
:104680009EC1882319F0823061F099C180918A031C
:10469000813009F094C1933009F080E08093850364
:1046A0002EC080918A0381112AC080918C038F7063
:1046B0002FEF280F263008F082C18093E900209167
:1046C000EB0020FF1CC0933021F48091EB0080624E
:1046D00014C09091EB0090619093EB0021E030E0EA
:1046E000A90102C0440F551F8A95E2F74093EA00E2
:1046F0001092EA008091EB0088608093EB001092AA
:10470000E9008091E800877F2CC1811158C1109188
:104710008A031F778091E3008078812B8093E300E8
:104720008091E800877F8093E8000E949D2580911A
:10473000E80080FFFCCF8091E30080688093E30075
:10474000111102C082E001C083E08093860337C16B
:104750008058823008F033C180918A0390918B0396
:104760008C3D53E0950779F583E08A838AE289835B
:104770004FB7F894DE01139620E03EE051E2E32FBC
:10478000F0E050935700E49120FF03C0E295EF70F2
:104790003F5FEF708E2F90E0EA3010F0C79601C0B7
:1047A000C0968D939D932F5F243149F74FBF809121
:1047B000E800877F8093E8006AE270E0CE0101960E
:1047C0000E943C27BAC040918C0350918D03292F41
:1047D000332723303105B1F068F42130310509F475
:1047E000FDC02230310509F0EAC08BE390E0E5E03E
:1047F000F5E050C02132310581F12232310509F452
:1048000039C0DDC0992781309105B9F070F0823050
:104810009105D9F0039709F0D2C0E2E5F5E0E49103
:104820008E2F90E0E2E5F5E032C0E8E8F5E0E491B3
:104830008E2F90E0E8E8F5E02AC0E4E7F5E0E491A7
:104840008E2F90E0E4E7F5E022C0E8E5F5E0E491A2
:104850008E2F90E0E8E5F5E01AC04115510509F406
:10486000C2C04130510509F0AAC089E090E0E0E300
:10487000F5E010C04115510509F4BAC041305105A9
:1048800009F09DC08FE490E0E6E7F4E003C00097F4
:1048900009F495C02091E800277F2093E80020913B
:1048A0008E0330918F038217930708F49C0140E038
:1048B0002115310589F180918603882309F43DC0D3
:1048C0008530D9F18091E80083FD37C08091E80000
:1048D00082FD2FC08091E80080FFEACF4091F30075
:1048E0008091F20090E0942B2115310559F0883029
:1048F000910540F444914093F100319621503109E3
:104900000196F2CF41E0089709F040E08091E8007D
:104910008E778093E800CCCF4111CDCF0AC0809133
:104920008603882351F0853041F08091E80083FDB3
:1049300004C08091E80082FFF2CF8091E8008B777D
:104940008093E8003CC08038D1F58091E800877FF3
:104950008093E800809187038093F1008091E800C4
:104960008E778093E8000E949D2529C0811127C081
:1049700080918A0390918B039927029704F5809187
:10498000E800877F8093E80010918A0310938703E3
:104990000E949D25111106C08091E30087FD02C091
:1049A00081E001C084E08093860342E061EC81E015
:1049B0000E94BC2542E261EC82E00E94BC2580910D
:1049C000E80083FF1AC08091E800877F8093E800A9
:1049D0008091EB0080628093EB000FC082E190E059
:1049E000E0E4F5E057CF89E090E0E7E1F5E052CF71
:1049F00080E490E0E5ECF4E04DCFAA960FB6F89491
:104A0000DEBF0FBECDBFDF91CF911F9108951F92E2
:104A10000F920FB60F9211242F933F934F935F93F2
:104A20006F937F938F939F93AF93BF93CF93DF93B6
:104A3000EF93FF93C091E900CF708091EC00D82FE5
:104A4000D17080FDD0E81092E9008091F000877F5E
:104A50008093F00078940E9432221092E9008091B5
:104A6000F00088608093F000CD2BCF70C093E900F8
:104A7000FF91EF91DF91CF91BF91AF919F918F9176
:104A80007F916F915F914F913F912F910F900FBE4A
:104A90000F901F901895E8EDF0E080818E7F808365
:104AA0001092E2001092DA001092E100A0EEB0E065
:104AB0008C9181608C9380818F77808319BCA7ED66
:104AC000B0E08C918E7F8C9380818F7E808310925A
:104AD0009F0508952091E4003091E50095E640910E
:104AE000EC00842F817040FF23C08091E80080FD9E
:104AF0001DC080918603882399F0853099F08091BC
:104B0000EB0085FD11C04091E4005091E5002417B1
:104B1000350729F3915011F09A01E1CF84E008950F
:104B200082E0089583E0089581E0089580E008958B
:104B30004091E80042FFDDCF08958091880387FF10
:104B400011C08091E80082FD05C08091860381112B
:104B5000F8CF11C08091E8008B770BC0809186035D
:104B6000882349F08091E80080FFF8CF8091E80029
:104B70008E778093E8000895982F973068F590938A
:104B8000E900981739F07091EC002091ED005091F8
:104B9000F00003C0242F762F50E021FD02C09F5F5C
:104BA000ECCF3091EB003E7F3093EB003091ED0085
:104BB0003D7F3093ED003091EB0031603093EB009E
:104BC0007093EC002093ED005093F0002091EE00E4
:104BD00027FDE5CF80E008958F708093E90081E0A4
:104BE0000895CF92DF92EF92FF920F931F93CF938E
:104BF000DF93C8EDD0E088818F7E8883E7EDF0E019
:104C000080818160808384E082BF81E080939F0502
:104C100088818E7F888302EE10E0F8011082109266
:104C2000DA0081EEC82ED12CF601108288818F77B0
:104C3000888388818068888388818F7D888319BC78
:104C400010928603109287031092850310928403BA
:104C500090EEE92EF12CF70180818B7F8083888193
:104C60008160888342E060E080E00E94BC25F6011C
:104C700080818E7F8083F801808181608083808144
:104C800088608083F70180818E7F80838881806146
:104C90008883DF91CF911F910F91FF90EF90DF906C
:104CA000CF9008951F920F920FB60F9211242F9359
:104CB0003F934F935F936F937F938F939F93AF93A4
:104CC000BF93EF93FF938091E10082FF09C0809131
:104CD000E20082FF05C08091E1008B7F8093E100BC
:104CE0008091DA0080FF2AC08091D80080FF26C022
:104CF0008091DA008E7F8093DA008091D90080FF66
:104D000018C080E189BD82E189BD09B400FEFDCFF4
:104D100081E08093860380919F0581110FC00E94DE
:104D20004B250E94F1258091E20084608093E2008F
:104D300005C019BC1092860310929F058091E10076
:104D400080FF17C08091E20080FF13C08091E200D5
:104D50008E7F8093E2008091E20080618093E20088
:104D60008091D80080628093D80019BC85E0809340
:104D700086038091E10084FF43C08091E20084FFBC
:104D80003FC080E189BD82E189BD09B400FEFDCF4D
:104D90008091D8008F7D8093D8008091E1008F7E34
:104DA0008093E1008091E2008F7E8093E200809109
:104DB000E20081608093E20080918703882311F0F4
:104DC00084E007C08091E30087FD02C081E001C05C
:104DD00083E0809386030E94931F0E949B0E109293
:104DE000A6058091A505882349F08091A0058160E2
:104DF0008093A00560E086950E9413130E94FD1227
:104E00008091E10083FF27C08091E20083FF23C0EF
:104E10008091E100877F8093E10082E080938603A8
:104E2000109287038091E1008E7F8093E100809152
:104E3000E2008E7F8093E2008091E20080618093A7
:104E4000E20042E060E080E00E94BC258091F0003A
:104E500088608093F000FF91EF91BF91AF919F9197
:104E60008F917F916F915F914F913F912F910F9013
:104E70000FBE0F901F90189520918E0330918F03D5
:104E80002617370748F06115710539F42091E800BD
:104E90002E772093E80001C0B901FC0120E06115E4
:104EA000710579F1809186038823F1F18530F1F164
:104EB0008091E80083FD3CC08091E80082FD2EC017
:104EC0008091E80080FFEBCF2091F3008091F20009
:104ED00090E0922B6115710551F08830910538F4FE
:104EE00021912093F100615071090196F3CF21E0E7
:104EF000089709F020E08091E8008E778093E80021
:104F0000CECF2111CFCF0AC080918603882361F0D4
:104F1000853061F08091E80083FD0AC08091E8004F
:104F200082FFF2CF80E0089582E0089583E0089543
:104F300081E008951092B9008CE08093B800089544
:104F4000EF92FF920F931F93CF93DF93182FEB01F4
:104F50001092BC0084EA8093BC000E94001B7C017C
:104F60008091BC0087FD0EC0CF3F8FEFD807C1F303
:104F70000E94001B8E199F098C179D0788F38EEFE6
:104F80009FEF2EC08091B900887F883041F08091DA
:104F9000B900887F803119F08FEF9FEF21C0109307
:104FA000BB0084E88093BC000E94001B8C018091B0
:104FB000BC0087FD0CC0CF3F8FEFD807C1F30E9424
:104FC000001B801B910B8C179D0788F3D8CF809115
:104FD000B900887F883111F08034F1F680E090E0EC
:104FE000DF91CF911F910F91FF90EF9008950F9354
:104FF0001F93CF93DF93EB018093BB0084E88093F2
:10500000BC000E94001B8C018091BC0087FD0EC07B
:10501000CF3F8FEFD807C1F30E94001B801B910B7D
:105020008C179D0788F38EEF9FEF0CC02091B9007D
:10503000287F81E090E0283211F480E090E09195A3
:1050400081959109DF91CF911F910F910895CF9292
:10505000DF92EF92FF920F931F93CF93DF936B0139
:105060008A017901B9010E94A027E6010C0D1D1DDE
:10507000C017D10761F424E92093BC00DF91CF91E0
:105080001F910F91FF90EF90DF90CF90089597FDC3
:10509000F2CFB70189910E94F727EACFCF92DF9232
:1050A000EF92FF920F931F93CF93DF93C62F6A0166
:1050B0007901B8010E94A02797FD11C0B8018C2F7B
:1050C0000E94F727E601EC0CFD1CCE15DF0539F038
:1050D00097FD05C0B80189910E94F727F6CF24E912
:1050E0002093BC00DF91CF911F910F91FF90EF9023
:1050F000DF90CF90089584E98093BC000895FB0170
:10510000DC0102C005900D9241505040D8F708953F
:10511000F999FECF92BD81BDF89A992780B508957F
:10512000A6E1B0E044E050E00C94C228A8E1B0E071
:1051300042E050E00C94C228262FF999FECF92BD90
:1051400081BDF89A019700B4021639F01FBA20BD4C
:105150000FB6F894FA9AF99A0FBE08950396272F7E
:105160000E949D280E949C28252F0E949D28242F64
:105170000C949D280196272F0E949D280C949C2812
:10518000DC01CB01FC01F999FECF06C0F2BDE1BD07
:10519000F89A319600B40D9241505040B8F70895F6
:1051A000991B79E004C0991F961708F0961B881F79
:1051B0007A95C9F780950895AA1BBB1B51E107C0DA
:1051C000AA1FBB1FA617B70710F0A61BB70B881F97
:1051D000991F5A95A9F780959095BC01CD01089526
:1051E00097FB072E16F4009407D077FD09D00E9494
:1051F000DC2807FC05D03EF4909581959F4F0895DB
:10520000709561957F4F0895EE0FFF1F0590F49103
:10521000E02D0994FC014150504030F001900616F9
:10522000D1F73197CF010895882799270895FB0179
:10523000DC0104C08D910190801921F4415050404F
:10524000C8F7881B990B0895AEE0B0E0EAE2F9E2F6
:105250000C94F32B0D891E898F89988D26E02C8361
:105260001A83098397FF02C080E090E801979E832C
:105270008D83AE01455E5F4F698D7A8DCE010196BB
:105280000E9454294D815E8157FD0AC02F813885C7
:10529000421753070CF49A01F801E20FF31F108232
:1052A0002E96E4E00C940F2CABE0B0E0EAE5F9E2D6
:1052B0000C94E52B6C017B018A01FC01178216829C
:1052C000838181FFCCC1CE0101963C01F60193811F
:1052D000F70193FD859193FF81917F01882309F464
:1052E000BAC1853239F493FD859193FF81917F0195
:1052F000853229F4B60190E00E944B2BE7CF912C28
:10530000212C312CFFE1F315D8F08B3279F038F4F1
:10531000803279F08332A1F4232D20611DC08D32BB
:1053200061F0803369F4232D216016C0832D8260E3
:10533000382EE32DE4603E2E2AC0F32DF8601DC008
:1053400037FC2DC020ED280F2A3040F08E32B9F402
:1053500036FC81C1232D2064322E19C036FE06C0D2
:105360008AE0989E200D1124922E11C0EAE02E9E14
:10537000200D1124222EF32DF0623F2E08C08C3612
:1053800021F4832D8068382E02C0883641F4F7015D
:1053900093FD859193FF81917F018111B3CF982F68
:1053A0009F7D9554933028F40C5F1F4F9FE39983A2
:1053B0000DC0833631F0833771F0833509F059C061
:1053C00021C0F801808189830E5F1F4F8824839458
:1053D000912C530113C02801F2E04F0E511CF8012B
:1053E000A080B18036FE03C0692D70E002C06FEF6F
:1053F0007FEFC5010E94402B4C018201F32DFF7706
:105400003F2E16C0280122E0420E511CF801A08058
:10541000B18036FE03C0692D70E002C06FEF7FEFF0
:10542000C5010E94352B4C01F32DF0683F2E8201FF
:1054300033FC1BC0822D90E088169906B0F4B601AB
:1054400080E290E00E944B2B2A94F4CFF50137FCC8
:10545000859137FE81915F01B60190E00E944B2B50
:1054600021102A9421E0821A91088114910471F785
:10547000E8C0843611F0893641F5F80137FE07C0DF
:1054800060817181828193810C5F1F4F08C06081B0
:105490007181072E000C880B990B0E5F1F4FF32DA7
:1054A000FF763F2E97FF09C0909580957095619586
:1054B0007F4F8F4F9F4FF0683F2E2AE030E0A301CF
:1054C0000E94872B882E861845C0853731F4232DFE
:1054D0002F7EB22E2AE030E025C0932D997FB92E81
:1054E0008F36C1F018F4883579F0B5C0803719F0DF
:1054F000883721F0B0C0E92FE061BE2EB4FE0DC0A8
:10550000FB2DF460BF2E09C034FE0AC0292F26608F
:10551000B22E06C028E030E005C020E130E002C035
:1055200020E132E0F801B7FE07C06081718182811D
:1055300093810C5F1F4F06C06081718180E090E015
:105540000E5F1F4FA3010E94872B882E8618FB2D0C
:10555000FF773F2E36FE0DC0232D2E7FA22E8914FD
:1055600058F434FE0BC032FC09C0832D8E7EA82E69
:1055700005C0B82CA32C03C0B82C01C0B92CA4FEC4
:105580000FC0FE01E80DF11D8081803321F49A2DBA
:10559000997EA92E09C0A2FE06C0B394B39404C09C
:1055A0008A2D867809F0B394A3FC11C0A0FE06C032
:1055B000B21488F4280C922C9B180EC0B21460F41C
:1055C000B60180E290E00E944B2BB394F7CFB21467
:1055D00018F42B1802C0982C212CA4FE10C0B60180
:1055E00080E390E00E944B2BA2FE17C0A1FC03C0F9
:1055F00088E790E002C088E590E0B6010CC08A2DF3
:10560000867859F0A1FE02C08BE201C080E2A7FCBF
:105610008DE2B60190E00E944B2B891438F4B6015C
:1056200080E390E00E944B2B9A94F7CF8A94F30189
:10563000E80DF11D8081B60190E00E944B2B811096
:10564000F5CF222009F442CEB60180E290E00E941C
:105650004B2B2A94F6CFF6018681978102C08FEFFB
:105660009FEF2B96E2E10C94012CFC010590615018
:1056700070400110D8F7809590958E0F9F1F089568
:10568000FC016150704001900110D8F78095909511
:105690008E0F9F1F08950F931F93CF93DF93FB01EE
:1056A000238121FD03C08FEF9FEF2CC022FF16C086
:1056B00046815781248135814217530744F4A081E4
:1056C000B1819D012F5F3F4F318320838C932681D1
:1056D00037812F5F3F4F3783268314C08B01EC0146
:1056E000FB010084F185E02D0995892BE1F6D801B5
:1056F00016968D919C911797019617969C938E9371
:105700001697CE01DF91CF911F910F910895FA0165
:10571000AA27283051F1203181F1E8946F936E7FF0
:105720006E5F7F4F8F4F9F4FAF4FB1E03ED0B4E0E1
:105730003CD0670F781F891F9A1FA11D680F791F22
:105740008A1F911DA11D6A0F711D811D911DA11D33
:1057500020D009F468943F912AE0269F1124301943
:10576000305D3193DEF6CF010895462F4770405DDE
:105770004193B3E00FD0C9F7F6CF462F4F70405D8D
:105780004A3318F0495D31FD4052419302D0A9F7E8
:10579000EACFB4E0A6959795879577956795BA95E2
:1057A000C9F700976105710508959B01AC010A2EA8
:1057B00006945795479537952795BA95C9F7620F7F
:1057C000731F841F951FA01D08952F923F924F9223
:1057D0005F926F927F928F929F92AF92BF92CF9281
:1057E000DF92EF92FF920F931F93CF93DF93CDB78A
:1057F000DEB7CA1BDB0B0FB6F894DEBF0FBECDBF02
:1058000009942A88398848885F846E847D848C84D2
:105810009B84AA84B984C884DF80EE80FD800C81DB
:105820001B81AA81B981CE0FD11D0FB6F894DEBFBE
:0C5830000FBECDBFED010895F894FFCF2E
:10583C00010E0F101112131415161701024C4544CA
:10584C002073746174652072656164792E0A00009E
:10585C0000000000004C61796572207374617465FE
:10586C002072656164792E0A00000000004C6F63A1
:10587C006B2073746174652072656164792E0A0003
:10588C0000000000004B6579207374617465207210
:10589C00656164792E0A0000000000000000210000
:1058AC007F2200035A195D191B1419141A14013F95
:1058BC000077696E006D6163004B65793A256478F9
:1058CC002564202532782025630A004F533A25732E
:1058DC00204C617965723A25730A002020202061E2
:1058EC0062636465666768696A6B6C6D6E6F707114
:1058FC0072737475767778797A313233343536370A
:10590C0038393052454254202D20402020203B3A3B
:10591C00202C2E2F202020004261736500000000F7
:10592C00014261736500000000024C6F77657200E4
:10593C0000000452616973650000000E41646A75D1
:10594C007374000000010202020505050505050B34
:10595C000B0B0E0E0E0E0E0E0E0E0E0E4E756D0069
:10596C0043617073005363726E004C454425633A77
:10597C00253264206873763A2532642025326420FF
:10598C002532640A004C6F636B3A25732025732013
:10599C0025730A00F4F5F6F731333236946697C660
:0A59AC003435000810181810080028
:00000001FF
